{
  "_format": "hh-sol-artifact-1",
  "contractName": "GrumpyPriceResolver",
  "sourceName": "contracts/GrumpyPriceResolver.sol",
  "abi": [
    {
      "inputs": [],
      "stateMutability": "nonpayable",
      "type": "constructor"
    },
    {
      "inputs": [],
      "name": "UNSUPPORTED_OPERATION",
      "type": "error"
    },
    {
      "inputs": [],
      "name": "getPrice",
      "outputs": [
        {
          "internalType": "uint256",
          "name": "",
          "type": "uint256"
        }
      ],
      "stateMutability": "view",
      "type": "function"
    },
    {
      "inputs": [
        {
          "internalType": "address",
          "name": "",
          "type": "address"
        }
      ],
      "name": "getPriceFor",
      "outputs": [
        {
          "internalType": "uint256",
          "name": "",
          "type": "uint256"
        }
      ],
      "stateMutability": "view",
      "type": "function"
    },
    {
      "inputs": [
        {
          "internalType": "uint256",
          "name": "",
          "type": "uint256"
        }
      ],
      "name": "getPriceOf",
      "outputs": [
        {
          "internalType": "uint256",
          "name": "",
          "type": "uint256"
        }
      ],
      "stateMutability": "view",
      "type": "function"
    },
    {
      "inputs": [
        {
          "internalType": "address",
          "name": "",
          "type": "address"
        },
        {
          "internalType": "uint256",
          "name": "",
          "type": "uint256"
        },
        {
          "internalType": "bytes",
          "name": "",
          "type": "bytes"
        }
      ],
      "name": "getPriceWithParams",
      "outputs": [
        {
          "internalType": "uint256",
          "name": "",
          "type": "uint256"
        }
      ],
      "stateMutability": "view",
      "type": "function"
    }
  ],
  "bytecode": "0x608060405234801561001057600080fd5b506103d7806100206000396000f3fe608060405234801561001057600080fd5b506004361061004c5760003560e01c80637d2b87c01461005157806398d5fdca14610081578063b54b4fb91461009f578063fa8038a3146100cf575b600080fd5b61006b6004803603810190610066919061024f565b6100ff565b604051610078919061032c565b60405180910390f35b610089610133565b604051610096919061032c565b60405180910390f35b6100b960048036038101906100b491906102f0565b610167565b6040516100c6919061032c565b60405180910390f35b6100e960048036038101906100e4919061027c565b61019b565b6040516100f6919061032c565b60405180910390f35b60006040517fc1b9a99e00000000000000000000000000000000000000000000000000000000815260040160405180910390fd5b60006040517fc1b9a99e00000000000000000000000000000000000000000000000000000000815260040160405180910390fd5b60006040517fc1b9a99e00000000000000000000000000000000000000000000000000000000815260040160405180910390fd5b60006040517fc1b9a99e00000000000000000000000000000000000000000000000000000000815260040160405180910390fd5b6000813590506101de8161039c565b92915050565b60008083601f8401126101fa576101f9610388565b5b8235905067ffffffffffffffff81111561021757610216610383565b5b6020830191508360018202830111156102335761023261038d565b5b9250929050565b600081359050610249816103b3565b92915050565b60006020828403121561026557610264610397565b5b6000610273848285016101cf565b91505092915050565b6000806000806060858703121561029657610295610397565b5b60006102a4878288016101cf565b94505060206102b58782880161023a565b935050604085013567ffffffffffffffff8111156102d6576102d5610392565b5b6102e2878288016101e4565b925092505092959194509250565b60006020828403121561030657610305610397565b5b60006103148482850161023a565b91505092915050565b61032681610379565b82525050565b6000602082019050610341600083018461031d565b92915050565b600061035282610359565b9050919050565b600073ffffffffffffffffffffffffffffffffffffffff82169050919050565b6000819050919050565b600080fd5b600080fd5b600080fd5b600080fd5b600080fd5b6103a581610347565b81146103b057600080fd5b50565b6103bc81610379565b81146103c757600080fd5b5056fea164736f6c6343000806000a",
  "linkReferences": {},
  "deployedLinkReferences": {}
}