{
  "_format": "hh-sol-artifact-1",
  "contractName": "InfiniteTiles",
  "sourceName": "contracts/InfiniteTiles.sol",
  "abi": [
    {
      "inputs": [
        {
          "internalType": "string",
          "name": "_name",
          "type": "string"
        },
        {
          "internalType": "string",
          "name": "_symbol",
          "type": "string"
        },
        {
          "internalType": "string",
          "name": "_baseUri",
          "type": "string"
        },
        {
          "internalType": "contract IPriceResolver",
          "name": "_priceResolver",
          "type": "address"
        },
        {
          "internalType": "contract ITileContentProvider",
          "name": "_tokenUriResolver",
          "type": "address"
        },
        {
          "internalType": "contract IJBDirectory",
          "name": "_jbxDirectory",
          "type": "address"
        },
        {
          "internalType": "uint256",
          "name": "_jbxProjectId",
          "type": "uint256"
        },
        {
          "internalType": "string",
          "name": "_metadataUri",
          "type": "string"
        }
      ],
      "stateMutability": "nonpayable",
      "type": "constructor"
    },
    {
      "inputs": [],
      "name": "ALREADY_MINTED",
      "type": "error"
    },
    {
      "inputs": [],
      "name": "INCORRECT_PRICE",
      "type": "error"
    },
    {
      "inputs": [],
      "name": "INVALID_ADDRESS",
      "type": "error"
    },
    {
      "inputs": [],
      "name": "INVALID_AMOUNT",
      "type": "error"
    },
    {
      "inputs": [],
      "name": "INVALID_RATE",
      "type": "error"
    },
    {
      "inputs": [],
      "name": "INVALID_TOKEN",
      "type": "error"
    },
    {
      "inputs": [],
      "name": "PRIVILEDGED_OPERATION",
      "type": "error"
    },
    {
      "inputs": [],
      "name": "UNSUPPORTED_OPERATION",
      "type": "error"
    },
    {
      "anonymous": false,
      "inputs": [
        {
          "indexed": true,
          "internalType": "address",
          "name": "owner",
          "type": "address"
        },
        {
          "indexed": true,
          "internalType": "address",
          "name": "spender",
          "type": "address"
        },
        {
          "indexed": true,
          "internalType": "uint256",
          "name": "id",
          "type": "uint256"
        }
      ],
      "name": "Approval",
      "type": "event"
    },
    {
      "anonymous": false,
      "inputs": [
        {
          "indexed": true,
          "internalType": "address",
          "name": "owner",
          "type": "address"
        },
        {
          "indexed": true,
          "internalType": "address",
          "name": "operator",
          "type": "address"
        },
        {
          "indexed": false,
          "internalType": "bool",
          "name": "approved",
          "type": "bool"
        }
      ],
      "name": "ApprovalForAll",
      "type": "event"
    },
    {
      "anonymous": false,
      "inputs": [
        {
          "indexed": true,
          "internalType": "address",
          "name": "previousOwner",
          "type": "address"
        },
        {
          "indexed": true,
          "internalType": "address",
          "name": "newOwner",
          "type": "address"
        }
      ],
      "name": "OwnershipTransferred",
      "type": "event"
    },
    {
      "anonymous": false,
      "inputs": [
        {
          "indexed": true,
          "internalType": "address",
          "name": "from",
          "type": "address"
        },
        {
          "indexed": true,
          "internalType": "address",
          "name": "to",
          "type": "address"
        },
        {
          "indexed": true,
          "internalType": "uint256",
          "name": "id",
          "type": "uint256"
        }
      ],
      "name": "Transfer",
      "type": "event"
    },
    {
      "inputs": [
        {
          "internalType": "uint256",
          "name": "",
          "type": "uint256"
        }
      ],
      "name": "addressForId",
      "outputs": [
        {
          "internalType": "address",
          "name": "",
          "type": "address"
        }
      ],
      "stateMutability": "view",
      "type": "function"
    },
    {
      "inputs": [
        {
          "internalType": "address",
          "name": "spender",
          "type": "address"
        },
        {
          "internalType": "uint256",
          "name": "id",
          "type": "uint256"
        }
      ],
      "name": "approve",
      "outputs": [],
      "stateMutability": "nonpayable",
      "type": "function"
    },
    {
      "inputs": [
        {
          "internalType": "address",
          "name": "owner",
          "type": "address"
        }
      ],
      "name": "balanceOf",
      "outputs": [
        {
          "internalType": "uint256",
          "name": "",
          "type": "uint256"
        }
      ],
      "stateMutability": "view",
      "type": "function"
    },
    {
      "inputs": [],
      "name": "baseUri",
      "outputs": [
        {
          "internalType": "string",
          "name": "",
          "type": "string"
        }
      ],
      "stateMutability": "view",
      "type": "function"
    },
    {
      "inputs": [],
      "name": "contractURI",
      "outputs": [
        {
          "internalType": "string",
          "name": "contractUri",
          "type": "string"
        }
      ],
      "stateMutability": "view",
      "type": "function"
    },
    {
      "inputs": [
        {
          "internalType": "uint256",
          "name": "",
          "type": "uint256"
        }
      ],
      "name": "getApproved",
      "outputs": [
        {
          "internalType": "address",
          "name": "",
          "type": "address"
        }
      ],
      "stateMutability": "view",
      "type": "function"
    },
    {
      "inputs": [],
      "name": "getMintPrice",
      "outputs": [
        {
          "internalType": "uint256",
          "name": "price",
          "type": "uint256"
        }
      ],
      "stateMutability": "view",
      "type": "function"
    },
    {
      "inputs": [
        {
          "internalType": "address",
          "name": "_tile",
          "type": "address"
        }
      ],
      "name": "grab",
      "outputs": [
        {
          "internalType": "uint256",
          "name": "mintedTokenId",
          "type": "uint256"
        }
      ],
      "stateMutability": "payable",
      "type": "function"
    },
    {
      "inputs": [
        {
          "internalType": "address",
          "name": "",
          "type": "address"
        }
      ],
      "name": "idForAddress",
      "outputs": [
        {
          "internalType": "uint256",
          "name": "",
          "type": "uint256"
        }
      ],
      "stateMutability": "view",
      "type": "function"
    },
    {
      "inputs": [
        {
          "internalType": "address",
          "name": "",
          "type": "address"
        },
        {
          "internalType": "address",
          "name": "",
          "type": "address"
        }
      ],
      "name": "isApprovedForAll",
      "outputs": [
        {
          "internalType": "bool",
          "name": "",
          "type": "bool"
        }
      ],
      "stateMutability": "view",
      "type": "function"
    },
    {
      "inputs": [
        {
          "internalType": "uint256",
          "name": "index",
          "type": "uint256"
        },
        {
          "internalType": "address",
          "name": "_tile",
          "type": "address"
        },
        {
          "internalType": "bytes",
          "name": "proof",
          "type": "bytes"
        }
      ],
      "name": "merkleMint",
      "outputs": [
        {
          "internalType": "uint256",
          "name": "mintedTokenId",
          "type": "uint256"
        }
      ],
      "stateMutability": "payable",
      "type": "function"
    },
    {
      "inputs": [],
      "name": "mint",
      "outputs": [
        {
          "internalType": "uint256",
          "name": "mintedTokenId",
          "type": "uint256"
        }
      ],
      "stateMutability": "payable",
      "type": "function"
    },
    {
      "inputs": [],
      "name": "name",
      "outputs": [
        {
          "internalType": "string",
          "name": "",
          "type": "string"
        }
      ],
      "stateMutability": "view",
      "type": "function"
    },
    {
      "inputs": [],
      "name": "owner",
      "outputs": [
        {
          "internalType": "address",
          "name": "",
          "type": "address"
        }
      ],
      "stateMutability": "view",
      "type": "function"
    },
    {
      "inputs": [
        {
          "internalType": "uint256",
          "name": "id",
          "type": "uint256"
        }
      ],
      "name": "ownerOf",
      "outputs": [
        {
          "internalType": "address",
          "name": "owner",
          "type": "address"
        }
      ],
      "stateMutability": "view",
      "type": "function"
    },
    {
      "inputs": [
        {
          "internalType": "address",
          "name": "_minter",
          "type": "address"
        }
      ],
      "name": "registerMinter",
      "outputs": [],
      "stateMutability": "nonpayable",
      "type": "function"
    },
    {
      "inputs": [
        {
          "internalType": "address",
          "name": "_minter",
          "type": "address"
        }
      ],
      "name": "removeMinter",
      "outputs": [],
      "stateMutability": "nonpayable",
      "type": "function"
    },
    {
      "inputs": [],
      "name": "renounceOwnership",
      "outputs": [],
      "stateMutability": "nonpayable",
      "type": "function"
    },
    {
      "inputs": [
        {
          "internalType": "uint256",
          "name": "_tokenId",
          "type": "uint256"
        },
        {
          "internalType": "uint256",
          "name": "_salePrice",
          "type": "uint256"
        }
      ],
      "name": "royaltyInfo",
      "outputs": [
        {
          "internalType": "address",
          "name": "receiver",
          "type": "address"
        },
        {
          "internalType": "uint256",
          "name": "royaltyAmount",
          "type": "uint256"
        }
      ],
      "stateMutability": "view",
      "type": "function"
    },
    {
      "inputs": [],
      "name": "royaltyRate",
      "outputs": [
        {
          "internalType": "uint16",
          "name": "",
          "type": "uint16"
        }
      ],
      "stateMutability": "view",
      "type": "function"
    },
    {
      "inputs": [],
      "name": "royaltyReceiver",
      "outputs": [
        {
          "internalType": "address payable",
          "name": "",
          "type": "address"
        }
      ],
      "stateMutability": "view",
      "type": "function"
    },
    {
      "inputs": [
        {
          "internalType": "address",
          "name": "_from",
          "type": "address"
        },
        {
          "internalType": "address",
          "name": "_to",
          "type": "address"
        },
        {
          "internalType": "uint256",
          "name": "_tokenId",
          "type": "uint256"
        }
      ],
      "name": "safeTransferFrom",
      "outputs": [],
      "stateMutability": "nonpayable",
      "type": "function"
    },
    {
      "inputs": [
        {
          "internalType": "address",
          "name": "_from",
          "type": "address"
        },
        {
          "internalType": "address",
          "name": "_to",
          "type": "address"
        },
        {
          "internalType": "uint256",
          "name": "_tokenId",
          "type": "uint256"
        },
        {
          "internalType": "bytes",
          "name": "_data",
          "type": "bytes"
        }
      ],
      "name": "safeTransferFrom",
      "outputs": [],
      "stateMutability": "nonpayable",
      "type": "function"
    },
    {
      "inputs": [],
      "name": "seize",
      "outputs": [
        {
          "internalType": "uint256",
          "name": "tokenId",
          "type": "uint256"
        }
      ],
      "stateMutability": "payable",
      "type": "function"
    },
    {
      "inputs": [
        {
          "internalType": "address",
          "name": "operator",
          "type": "address"
        },
        {
          "internalType": "bool",
          "name": "approved",
          "type": "bool"
        }
      ],
      "name": "setApprovalForAll",
      "outputs": [],
      "stateMutability": "nonpayable",
      "type": "function"
    },
    {
      "inputs": [
        {
          "internalType": "string",
          "name": "contractUri",
          "type": "string"
        }
      ],
      "name": "setContractUri",
      "outputs": [],
      "stateMutability": "nonpayable",
      "type": "function"
    },
    {
      "inputs": [
        {
          "internalType": "contract IPriceResolver",
          "name": "_priceResolver",
          "type": "address"
        }
      ],
      "name": "setPriceResolver",
      "outputs": [],
      "stateMutability": "nonpayable",
      "type": "function"
    },
    {
      "inputs": [
        {
          "internalType": "address",
          "name": "_royaltyReceiver",
          "type": "address"
        },
        {
          "internalType": "uint16",
          "name": "_royaltyRate",
          "type": "uint16"
        }
      ],
      "name": "setRoyalties",
      "outputs": [],
      "stateMutability": "nonpayable",
      "type": "function"
    },
    {
      "inputs": [
        {
          "internalType": "contract ITileContentProvider",
          "name": "_tokenUriResolver",
          "type": "address"
        }
      ],
      "name": "setTokenUriResolver",
      "outputs": [],
      "stateMutability": "nonpayable",
      "type": "function"
    },
    {
      "inputs": [
        {
          "internalType": "address",
          "name": "_account",
          "type": "address"
        },
        {
          "internalType": "address",
          "name": "_tile",
          "type": "address"
        }
      ],
      "name": "superMint",
      "outputs": [
        {
          "internalType": "uint256",
          "name": "mintedTokenId",
          "type": "uint256"
        }
      ],
      "stateMutability": "payable",
      "type": "function"
    },
    {
      "inputs": [
        {
          "internalType": "bytes4",
          "name": "interfaceId",
          "type": "bytes4"
        }
      ],
      "name": "supportsInterface",
      "outputs": [
        {
          "internalType": "bool",
          "name": "",
          "type": "bool"
        }
      ],
      "stateMutability": "view",
      "type": "function"
    },
    {
      "inputs": [],
      "name": "symbol",
      "outputs": [
        {
          "internalType": "string",
          "name": "",
          "type": "string"
        }
      ],
      "stateMutability": "view",
      "type": "function"
    },
    {
      "inputs": [
        {
          "internalType": "uint256",
          "name": "index",
          "type": "uint256"
        }
      ],
      "name": "tokenByIndex",
      "outputs": [
        {
          "internalType": "uint256",
          "name": "",
          "type": "uint256"
        }
      ],
      "stateMutability": "view",
      "type": "function"
    },
    {
      "inputs": [
        {
          "internalType": "address",
          "name": "owner",
          "type": "address"
        },
        {
          "internalType": "uint256",
          "name": "index",
          "type": "uint256"
        }
      ],
      "name": "tokenOfOwnerByIndex",
      "outputs": [
        {
          "internalType": "uint256",
          "name": "",
          "type": "uint256"
        }
      ],
      "stateMutability": "view",
      "type": "function"
    },
    {
      "inputs": [
        {
          "internalType": "uint256",
          "name": "tokenId",
          "type": "uint256"
        }
      ],
      "name": "tokenURI",
      "outputs": [
        {
          "internalType": "string",
          "name": "uri",
          "type": "string"
        }
      ],
      "stateMutability": "view",
      "type": "function"
    },
    {
      "inputs": [],
      "name": "totalSupply",
      "outputs": [
        {
          "internalType": "uint256",
          "name": "",
          "type": "uint256"
        }
      ],
      "stateMutability": "view",
      "type": "function"
    },
    {
      "inputs": [
        {
          "internalType": "address payable",
          "name": "account",
          "type": "address"
        },
        {
          "internalType": "uint256",
          "name": "amount",
          "type": "uint256"
        }
      ],
      "name": "transferBalance",
      "outputs": [],
      "stateMutability": "nonpayable",
      "type": "function"
    },
    {
      "inputs": [
        {
          "internalType": "address",
          "name": "_from",
          "type": "address"
        },
        {
          "internalType": "address",
          "name": "_to",
          "type": "address"
        },
        {
          "internalType": "uint256",
          "name": "_tokenId",
          "type": "uint256"
        }
      ],
      "name": "transferFrom",
      "outputs": [],
      "stateMutability": "nonpayable",
      "type": "function"
    },
    {
      "inputs": [
        {
          "internalType": "address",
          "name": "newOwner",
          "type": "address"
        }
      ],
      "name": "transferOwnership",
      "outputs": [],
      "stateMutability": "nonpayable",
      "type": "function"
    },
    {
      "inputs": [
        {
          "internalType": "contract IERC20",
          "name": "token",
          "type": "address"
        },
        {
          "internalType": "address",
          "name": "to",
          "type": "address"
        },
        {
          "internalType": "uint256",
          "name": "amount",
          "type": "uint256"
        }
      ],
      "name": "transferTokenBalance",
      "outputs": [],
      "stateMutability": "nonpayable",
      "type": "function"
    },
    {
      "stateMutability": "payable",
      "type": "receive"
    }
  ],
  "bytecode": "0x60806040523480156200001157600080fd5b5060405162005c5638038062005c568339818101604052810190620000379190620004a0565b8787818181600090805190602001906200005392919062000316565b5080600190805190602001906200006c92919062000316565b505050505062000091620000856200024860201b60201c565b6200025060201b60201c565b6001600b8190555085600c9080519060200190620000b192919062000316565b5084600d60006101000a81548173ffffffffffffffffffffffffffffffffffffffff021916908373ffffffffffffffffffffffffffffffffffffffff16021790555083600e60006101000a81548173ffffffffffffffffffffffffffffffffffffffff021916908373ffffffffffffffffffffffffffffffffffffffff16021790555082601060006101000a81548173ffffffffffffffffffffffffffffffffffffffff021916908373ffffffffffffffffffffffffffffffffffffffff1602179055508160118190555080601290805190602001906200019492919062000316565b50600073ffffffffffffffffffffffffffffffffffffffff168473ffffffffffffffffffffffffffffffffffffffff16146200023a578373ffffffffffffffffffffffffffffffffffffffff16631499c592306040518263ffffffff1660e01b8152600401620002059190620005f6565b600060405180830381600087803b1580156200022057600080fd5b505af115801562000235573d6000803e3d6000fd5b505050505b5050505050505050620008a1565b600033905090565b6000600a60009054906101000a900473ffffffffffffffffffffffffffffffffffffffff16905081600a60006101000a81548173ffffffffffffffffffffffffffffffffffffffff021916908373ffffffffffffffffffffffffffffffffffffffff1602179055508173ffffffffffffffffffffffffffffffffffffffff168173ffffffffffffffffffffffffffffffffffffffff167f8be0079c531659141344cd1fd0a4f28419497f9722a3daafe3b4186f6b6457e060405160405180910390a35050565b82805462000324906200074a565b90600052602060002090601f01602090048101928262000348576000855562000394565b82601f106200036357805160ff191683800117855562000394565b8280016001018555821562000394579182015b828111156200039357825182559160200191906001019062000376565b5b509050620003a39190620003a7565b5090565b5b80821115620003c2576000816000905550600101620003a8565b5090565b6000620003dd620003d7846200063c565b62000613565b905082815260208101848484011115620003fc57620003fb62000819565b5b6200040984828562000714565b509392505050565b600081519050620004228162000839565b92915050565b600081519050620004398162000853565b92915050565b60008151905062000450816200086d565b92915050565b600082601f8301126200046e576200046d62000814565b5b815162000480848260208601620003c6565b91505092915050565b6000815190506200049a8162000887565b92915050565b600080600080600080600080610100898b031215620004c457620004c362000823565b5b600089015167ffffffffffffffff811115620004e557620004e46200081e565b5b620004f38b828c0162000456565b985050602089015167ffffffffffffffff8111156200051757620005166200081e565b5b620005258b828c0162000456565b975050604089015167ffffffffffffffff8111156200054957620005486200081e565b5b620005578b828c0162000456565b96505060606200056a8b828c0162000428565b95505060806200057d8b828c016200043f565b94505060a0620005908b828c0162000411565b93505060c0620005a38b828c0162000489565b92505060e089015167ffffffffffffffff811115620005c757620005c66200081e565b5b620005d58b828c0162000456565b9150509295985092959890939650565b620005f081620006ec565b82525050565b60006020820190506200060d6000830184620005e5565b92915050565b60006200061f62000632565b90506200062d828262000780565b919050565b6000604051905090565b600067ffffffffffffffff8211156200065a5762000659620007e5565b5b620006658262000828565b9050602081019050919050565b60006200067f82620006c2565b9050919050565b6000620006938262000672565b9050919050565b6000620006a78262000672565b9050919050565b6000620006bb8262000672565b9050919050565b600073ffffffffffffffffffffffffffffffffffffffff82169050919050565b6000819050919050565b6000620006f98262000700565b9050919050565b60006200070d82620006c2565b9050919050565b60005b838110156200073457808201518184015260208101905062000717565b8381111562000744576000848401525b50505050565b600060028204905060018216806200076357607f821691505b602082108114156200077a5762000779620007b6565b5b50919050565b6200078b8262000828565b810181811067ffffffffffffffff82111715620007ad57620007ac620007e5565b5b80604052505050565b7f4e487b7100000000000000000000000000000000000000000000000000000000600052602260045260246000fd5b7f4e487b7100000000000000000000000000000000000000000000000000000000600052604160045260246000fd5b600080fd5b600080fd5b600080fd5b600080fd5b6000601f19601f8301169050919050565b620008448162000686565b81146200085057600080fd5b50565b6200085e816200069a565b81146200086a57600080fd5b50565b6200087881620006ae565b81146200088457600080fd5b50565b6200089281620006e2565b81146200089e57600080fd5b50565b6153a580620008b16000396000f3fe6080604052600436106102bf5760003560e01c80634f6ccce71161016e578063a22cb465116100cb578063ccb4807b1161007f578063e8a3d48511610064578063e8a3d48514610988578063e985e9c5146109b3578063f2fde38b146109f0576102d0565b8063ccb4807b1461092f578063e5f30d9014610958576102d0565b8063b88d4fde116100b0578063b88d4fde1461089e578063c4d1510d146108c7578063c87b56dd146108f2576102d0565b8063a22cb4651461084a578063a7f93ebd14610873576102d0565b8063715018a61161012257806395d89b411161010757806395d89b41146107c95780639abc8320146107f45780639fbc87131461081f576102d0565b8063715018a6146107875780638da5cb5b1461079e576102d0565b8063605297e111610153578063605297e1146106ef5780636352211e1461070d57806370a082311461074a576102d0565b80634f6ccce71461068957806356a6d9ef146106c6576102d0565b80631ad8f8481161021c5780632f745c59116101d057806338c86f32116101b557806338c86f321461060e57806342842e0e1461063757806347230dcb14610660576102d0565b80632f745c59146105a85780633092afd5146105e5576102d0565b806323b872dd1161020157806323b872dd146105185780632407497e146105415780632a55205a1461056a576102d0565b80631ad8f848146104ab578063222fc658146104e8576102d0565b8063095ea7b31161027357806311a1d03b1161025857806311a1d03b146104395780631249c58b1461046257806318160ddd14610480576102d0565b8063095ea7b3146103e75780630c222ee514610410576102d0565b806303a7f612116102a457806303a7f6121461034257806306fdde031461037f578063081812fc146103aa576102d0565b806301ffc9a7146102d557806303a03a8414610312576102d0565b366102d0576102ce6000610a19565b005b600080fd5b3480156102e157600080fd5b506102fc60048036038101906102f79190614131565b610ca4565b60405161030991906148f1565b60405180910390f35b61032c60048036038101906103279190613f29565b610d1e565b6040516103399190614ac9565b60405180910390f35b34801561034e57600080fd5b5061036960048036038101906103649190613ebc565b610e4e565b6040516103769190614ac9565b60405180910390f35b34801561038b57600080fd5b50610394610e66565b6040516103a1919061490c565b60405180910390f35b3480156103b657600080fd5b506103d160048036038101906103cc91906142fb565b610ef4565b6040516103de919061473e565b60405180910390f35b3480156103f357600080fd5b5061040e600480360381019061040991906140c4565b610f27565b005b34801561041c57600080fd5b5061043760048036038101906104329190614084565b611110565b005b34801561044557600080fd5b50610460600480360381019061045b919061418b565b6111d8565b005b61046a611273565b6040516104779190614ac9565b60405180910390f35b34801561048c57600080fd5b5061049561147a565b6040516104a29190614ac9565b60405180910390f35b3480156104b757600080fd5b506104d260048036038101906104cd91906142fb565b611487565b6040516104df919061473e565b60405180910390f35b61050260048036038101906104fd9190614355565b6114ba565b60405161050f9190614ac9565b60405180910390f35b34801561052457600080fd5b5061053f600480360381019061053a9190613f69565b6116a1565b005b34801561054d57600080fd5b5061056860048036038101906105639190614238565b6116bc565b005b34801561057657600080fd5b50610591600480360381019061058c91906143c9565b611708565b60405161059f92919061484a565b60405180910390f35b3480156105b457600080fd5b506105cf60048036038101906105ca91906140c4565b611844565b6040516105dc9190614ac9565b60405180910390f35b3480156105f157600080fd5b5061060c60048036038101906106079190613ebc565b611920565b005b34801561061a57600080fd5b506106356004803603810190610630919061420b565b611983565b005b34801561064357600080fd5b5061065e60048036038101906106599190613f69565b6119cf565b005b34801561066c57600080fd5b5061068760048036038101906106829190613ebc565b6119ea565b005b34801561069557600080fd5b506106b060048036038101906106ab91906142fb565b611a4d565b6040516106bd9190614ac9565b60405180910390f35b3480156106d257600080fd5b506106ed60048036038101906106e89190613ee9565b611abe565b005b6106f7611bd4565b6040516107049190614ac9565b60405180910390f35b34801561071957600080fd5b50610734600480360381019061072f91906142fb565b611e20565b604051610741919061473e565b60405180910390f35b34801561075657600080fd5b50610771600480360381019061076c9190613ebc565b611ecc565b60405161077e9190614ac9565b60405180910390f35b34801561079357600080fd5b5061079c611f84565b005b3480156107aa57600080fd5b506107b3611f98565b6040516107c0919061473e565b60405180910390f35b3480156107d557600080fd5b506107de611fc2565b6040516107eb919061490c565b60405180910390f35b34801561080057600080fd5b50610809612050565b604051610816919061490c565b60405180910390f35b34801561082b57600080fd5b506108346120de565b6040516108419190614759565b60405180910390f35b34801561085657600080fd5b50610871600480360381019061086c9190614044565b612104565b005b34801561087f57600080fd5b50610888612201565b6040516108959190614ac9565b60405180910390f35b3480156108aa57600080fd5b506108c560048036038101906108c09190613fbc565b612368565b005b3480156108d357600080fd5b506108dc612387565b6040516108e99190614aae565b60405180910390f35b3480156108fe57600080fd5b50610919600480360381019061091491906142fb565b61239b565b604051610926919061490c565b60405180910390f35b34801561093b57600080fd5b5061095660048036038101906109519190614265565b6125bd565b005b610972600480360381019061096d9190613ebc565b6125db565b60405161097f9190614ac9565b60405180910390f35b34801561099457600080fd5b5061099d6127e6565b6040516109aa919061490c565b60405180910390f35b3480156109bf57600080fd5b506109da60048036038101906109d59190613f29565b612878565b6040516109e791906148f1565b60405180910390f35b3480156109fc57600080fd5b50610a176004803603810190610a129190613ebc565b6128a7565b005b6000601060009054906101000a900473ffffffffffffffffffffffffffffffffffffffff1673ffffffffffffffffffffffffffffffffffffffff16638620265060115461eeee6040518363ffffffff1660e01b8152600401610a7c929190614ae4565b60206040518083038186803b158015610a9457600080fd5b505afa158015610aa8573d6000803e3d6000fd5b505050506040513d601f19601f82011682018060405250810190610acc91906141de565b9050600073ffffffffffffffffffffffffffffffffffffffff168173ffffffffffffffffffffffffffffffffffffffff161415610b095750610ca1565b8073ffffffffffffffffffffffffffffffffffffffff16631ebc263f6011543461eeee33600080600073ffffffffffffffffffffffffffffffffffffffff168a73ffffffffffffffffffffffffffffffffffffffff1614610c1957600e60009054906101000a900473ffffffffffffffffffffffffffffffffffffffff1673ffffffffffffffffffffffffffffffffffffffff16631328c0f68b6040518263ffffffff1660e01b8152600401610bbf919061473e565b60006040518083038186803b158015610bd757600080fd5b505afa158015610beb573d6000803e3d6000fd5b505050506040513d6000823e3d601f19601f82011682018060405250810190610c1491906142b2565b610c2a565b604051806020016040528060008152505b6040518863ffffffff1660e01b8152600401610c4c9796959493929190614b0d565b602060405180830381600087803b158015610c6657600080fd5b505af1158015610c7a573d6000803e3d6000fd5b505050506040513d601f19601f82011682018060405250810190610c9e9190614328565b50505b50565b60007f2a55205a000000000000000000000000000000000000000000000000000000007bffffffffffffffffffffffffffffffffffffffffffffffffffffffff1916827bffffffffffffffffffffffffffffffffffffffffffffffffffffffff19161480610d175750610d168261292b565b5b9050919050565b60006002600b541415610d66576040517f08c379a0000000000000000000000000000000000000000000000000000000008152600401610d5d90614a6e565b60405180910390fd5b6002600b8190555033610d77611f98565b73ffffffffffffffffffffffffffffffffffffffff168173ffffffffffffffffffffffffffffffffffffffff1614158015610dfc5750600f60008273ffffffffffffffffffffffffffffffffffffffff1673ffffffffffffffffffffffffffffffffffffffff16815260200190815260200160002060009054906101000a900460ff16155b15610e33576040517f7d05041300000000000000000000000000000000000000000000000000000000815260040160405180910390fd5b610e3d84846129a5565b9150506001600b8190555092915050565b60136020528060005260406000206000915090505481565b60008054610e7390614e6a565b80601f0160208091040260200160405190810160405280929190818152602001828054610e9f90614e6a565b8015610eec5780601f10610ec157610100808354040283529160200191610eec565b820191906000526020600020905b815481529060010190602001808311610ecf57829003601f168201915b505050505081565b60046020528060005260406000206000915054906101000a900473ffffffffffffffffffffffffffffffffffffffff1681565b60006002600083815260200190815260200160002060009054906101000a900473ffffffffffffffffffffffffffffffffffffffff1690508073ffffffffffffffffffffffffffffffffffffffff163373ffffffffffffffffffffffffffffffffffffffff16148061101f5750600560008273ffffffffffffffffffffffffffffffffffffffff1673ffffffffffffffffffffffffffffffffffffffff16815260200190815260200160002060003373ffffffffffffffffffffffffffffffffffffffff1673ffffffffffffffffffffffffffffffffffffffff16815260200190815260200160002060009054906101000a900460ff165b61105e576040517f08c379a000000000000000000000000000000000000000000000000000000000815260040161105590614a2e565b60405180910390fd5b826004600084815260200190815260200160002060006101000a81548173ffffffffffffffffffffffffffffffffffffffff021916908373ffffffffffffffffffffffffffffffffffffffff160217905550818373ffffffffffffffffffffffffffffffffffffffff168273ffffffffffffffffffffffffffffffffffffffff167f8c5be1e5ebec7d5bd14f71427d1e84f3dd0314c0f7b2291e5b200ac8c7c3b92560405160405180910390a4505050565b611118612ae8565b81601560006101000a81548173ffffffffffffffffffffffffffffffffffffffff021916908373ffffffffffffffffffffffffffffffffffffffff1602179055506127108161ffff161115611199576040517f1db2f87000000000000000000000000000000000000000000000000000000000815260040160405180910390fd5b6000601560149054906101000a900461ffff1661ffff1614156111d45780601560146101000a81548161ffff021916908361ffff1602179055505b5050565b6111e0612ae8565b8273ffffffffffffffffffffffffffffffffffffffff1663a9059cbb83836040518363ffffffff1660e01b815260040161121b92919061484a565b602060405180830381600087803b15801561123557600080fd5b505af1158015611249573d6000803e3d6000fd5b505050506040513d601f19601f8201168201806040525081019061126d9190614104565b50505050565b60006002600b5414156112bb576040517f08c379a00000000000000000000000000000000000000000000000000000000081526004016112b290614a6e565b60405180910390fd5b6002600b81905550600073ffffffffffffffffffffffffffffffffffffffff16600d60009054906101000a900473ffffffffffffffffffffffffffffffffffffffff1673ffffffffffffffffffffffffffffffffffffffff16141561134c576040517fc1b9a99e00000000000000000000000000000000000000000000000000000000815260040160405180910390fd5b600d60009054906101000a900473ffffffffffffffffffffffffffffffffffffffff1673ffffffffffffffffffffffffffffffffffffffff1663fa8038a333600061139561147a565b6040516020016113a591906146f7565b6040516020818303038152906040526040518463ffffffff1660e01b81526004016113d29392919061480c565b60206040518083038186803b1580156113ea57600080fd5b505afa1580156113fe573d6000803e3d6000fd5b505050506040513d601f19601f820116820180604052508101906114229190614328565b341461145a576040517f2656d32500000000000000000000000000000000000000000000000000000000815260040160405180910390fd5b61146333610a19565b61146d33336129a5565b90506001600b8190555090565b6000600880549050905090565b60146020528060005260406000206000915054906101000a900473ffffffffffffffffffffffffffffffffffffffff1681565b60006002600b541415611502576040517f08c379a00000000000000000000000000000000000000000000000000000000081526004016114f990614a6e565b60405180910390fd5b6002600b81905550600073ffffffffffffffffffffffffffffffffffffffff16600d60009054906101000a900473ffffffffffffffffffffffffffffffffffffffff1673ffffffffffffffffffffffffffffffffffffffff161415611593576040517fc1b9a99e00000000000000000000000000000000000000000000000000000000815260040160405180910390fd5b600d60009054906101000a900473ffffffffffffffffffffffffffffffffffffffff1673ffffffffffffffffffffffffffffffffffffffff1663fa8038a3338786866040518563ffffffff1660e01b81526004016115f49493929190614873565b60206040518083038186803b15801561160c57600080fd5b505afa158015611620573d6000803e3d6000fd5b505050506040513d601f19601f820116820180604052508101906116449190614328565b341461167c576040517f2656d32500000000000000000000000000000000000000000000000000000000815260040160405180910390fd5b61168584610a19565b61168f33856129a5565b90506001600b81905550949350505050565b6116ac838383612b66565b6116b7838383612c6f565b505050565b6116c4612ae8565b80600e60006101000a81548173ffffffffffffffffffffffffffffffffffffffff021916908373ffffffffffffffffffffffffffffffffffffffff16021790555050565b60008060008314806117795750600073ffffffffffffffffffffffffffffffffffffffff166002600086815260200190815260200160002060009054906101000a900473ffffffffffffffffffffffffffffffffffffffff1673ffffffffffffffffffffffffffffffffffffffff16145b1561178b57600091506000905061183d565b600073ffffffffffffffffffffffffffffffffffffffff16601560009054906101000a900473ffffffffffffffffffffffffffffffffffffffff1673ffffffffffffffffffffffffffffffffffffffff161461180957601560009054906101000a900473ffffffffffffffffffffffffffffffffffffffff1661180b565b305b9150612710601560149054906101000a900461ffff1661ffff16846118309190614cac565b61183a9190614c7b565b90505b9250929050565b6000600360008473ffffffffffffffffffffffffffffffffffffffff1673ffffffffffffffffffffffffffffffffffffffff1681526020019081526020016000205482106118c7576040517f08c379a00000000000000000000000000000000000000000000000000000000081526004016118be9061492e565b60405180910390fd5b600660008473ffffffffffffffffffffffffffffffffffffffff1673ffffffffffffffffffffffffffffffffffffffff168152602001908152602001600020600083815260200190815260200160002054905092915050565b611928612ae8565b6000600f60008373ffffffffffffffffffffffffffffffffffffffff1673ffffffffffffffffffffffffffffffffffffffff16815260200190815260200160002060006101000a81548160ff02191690831515021790555050565b61198b612ae8565b80600d60006101000a81548173ffffffffffffffffffffffffffffffffffffffff021916908373ffffffffffffffffffffffffffffffffffffffff16021790555050565b6119da838383612b66565b6119e583838361306f565b505050565b6119f2612ae8565b6001600f60008373ffffffffffffffffffffffffffffffffffffffff1673ffffffffffffffffffffffffffffffffffffffff16815260200190815260200160002060006101000a81548160ff02191690831515021790555050565b6000611a5761147a565b8210611a98576040517f08c379a0000000000000000000000000000000000000000000000000000000008152600401611a8f906149ee565b60405180910390fd5b60088281548110611aac57611aab614fb7565b5b90600052602060002001549050919050565b611ac6612ae8565b600073ffffffffffffffffffffffffffffffffffffffff168273ffffffffffffffffffffffffffffffffffffffff161415611b2d576040517f5963709b00000000000000000000000000000000000000000000000000000000815260040160405180910390fd5b6000811480611b5257503073ffffffffffffffffffffffffffffffffffffffff163181115b15611b89576040517ffae8279100000000000000000000000000000000000000000000000000000000815260040160405180910390fd5b8173ffffffffffffffffffffffffffffffffffffffff166108fc829081150290604051600060405180830381858888f19350505050158015611bcf573d6000803e3d6000fd5b505050565b6000601360003373ffffffffffffffffffffffffffffffffffffffff1673ffffffffffffffffffffffffffffffffffffffff1681526020019081526020016000205490506000811415611c53576040517fd0995cf200000000000000000000000000000000000000000000000000000000815260040160405180910390fd5b6000611c5e82611e20565b90503373ffffffffffffffffffffffffffffffffffffffff168173ffffffffffffffffffffffffffffffffffffffff161415611cc6576040517fc1b9a99e00000000000000000000000000000000000000000000000000000000815260040160405180910390fd5b600d60009054906101000a900473ffffffffffffffffffffffffffffffffffffffff1673ffffffffffffffffffffffffffffffffffffffff1663fa8038a33384611d0e61147a565b604051602001611d1e91906146f7565b6040516020818303038152906040526040518463ffffffff1660e01b8152600401611d4b939291906148b3565b60206040518083038186803b158015611d6357600080fd5b505afa158015611d77573d6000803e3d6000fd5b505050506040513d601f19601f82011682018060405250810190611d9b9190614328565b3414611dd3576040517f2656d32500000000000000000000000000000000000000000000000000000000815260040160405180910390fd5b8073ffffffffffffffffffffffffffffffffffffffff166108fc349081150290604051600060405180830381858888f19350505050611e1157600080fd5b611e1c8133846131b6565b5090565b60008073ffffffffffffffffffffffffffffffffffffffff166002600084815260200190815260200160002060009054906101000a900473ffffffffffffffffffffffffffffffffffffffff1691508173ffffffffffffffffffffffffffffffffffffffff161415611ec7576040517f08c379a0000000000000000000000000000000000000000000000000000000008152600401611ebe90614a4e565b60405180910390fd5b919050565b60008073ffffffffffffffffffffffffffffffffffffffff168273ffffffffffffffffffffffffffffffffffffffff161415611f3d576040517f08c379a0000000000000000000000000000000000000000000000000000000008152600401611f349061498e565b60405180910390fd5b600360008373ffffffffffffffffffffffffffffffffffffffff1673ffffffffffffffffffffffffffffffffffffffff168152602001908152602001600020549050919050565b611f8c612ae8565b611f9660006133b8565b565b6000600a60009054906101000a900473ffffffffffffffffffffffffffffffffffffffff16905090565b60018054611fcf90614e6a565b80601f0160208091040260200160405190810160405280929190818152602001828054611ffb90614e6a565b80156120485780601f1061201d57610100808354040283529160200191612048565b820191906000526020600020905b81548152906001019060200180831161202b57829003601f168201915b505050505081565b600c805461205d90614e6a565b80601f016020809104026020016040519081016040528092919081815260200182805461208990614e6a565b80156120d65780601f106120ab576101008083540402835291602001916120d6565b820191906000526020600020905b8154815290600101906020018083116120b957829003601f168201915b505050505081565b601560009054906101000a900473ffffffffffffffffffffffffffffffffffffffff1681565b80600560003373ffffffffffffffffffffffffffffffffffffffff1673ffffffffffffffffffffffffffffffffffffffff16815260200190815260200160002060008473ffffffffffffffffffffffffffffffffffffffff1673ffffffffffffffffffffffffffffffffffffffff16815260200190815260200160002060006101000a81548160ff0219169083151502179055508173ffffffffffffffffffffffffffffffffffffffff163373ffffffffffffffffffffffffffffffffffffffff167f17307eab39ab6107e8899845ad3d59bd9653f200f220920489ca2b5937696c31836040516121f591906148f1565b60405180910390a35050565b60008073ffffffffffffffffffffffffffffffffffffffff16600d60009054906101000a900473ffffffffffffffffffffffffffffffffffffffff1673ffffffffffffffffffffffffffffffffffffffff16141561228b576040517fc1b9a99e00000000000000000000000000000000000000000000000000000000815260040160405180910390fd5b600d60009054906101000a900473ffffffffffffffffffffffffffffffffffffffff1673ffffffffffffffffffffffffffffffffffffffff1663fa8038a33360006122d461147a565b336040516020016122e6929190614712565b6040516020818303038152906040526040518463ffffffff1660e01b81526004016123139392919061480c565b60206040518083038186803b15801561232b57600080fd5b505afa15801561233f573d6000803e3d6000fd5b505050506040513d601f19601f820116820180604052508101906123639190614328565b905090565b612373858585612b66565b612380858585858561347e565b5050505050565b601560149054906101000a900461ffff1681565b6060600073ffffffffffffffffffffffffffffffffffffffff166002600084815260200190815260200160002060009054906101000a900473ffffffffffffffffffffffffffffffffffffffff1673ffffffffffffffffffffffffffffffffffffffff16141561241c576040518060200160405280600081525090506125b8565b600073ffffffffffffffffffffffffffffffffffffffff16600e60009054906101000a900473ffffffffffffffffffffffffffffffffffffffff1673ffffffffffffffffffffffffffffffffffffffff161461252957600e60009054906101000a900473ffffffffffffffffffffffffffffffffffffffff1673ffffffffffffffffffffffffffffffffffffffff16631675f455836040518263ffffffff1660e01b81526004016124cd9190614ac9565b60006040518083038186803b1580156124e557600080fd5b505afa1580156124f9573d6000803e3d6000fd5b505050506040513d6000823e3d601f19601f8201168201806040525081019061252291906142b2565b90506125b7565b600c805461253690614e6a565b80601f016020809104026020016040519081016040528092919081815260200182805461256290614e6a565b80156125af5780601f10612584576101008083540402835291602001916125af565b820191906000526020600020905b81548152906001019060200180831161259257829003601f168201915b505050505090505b5b919050565b6125c5612ae8565b8181601291906125d6929190613bec565b505050565b60006002600b541415612623576040517f08c379a000000000000000000000000000000000000000000000000000000000815260040161261a90614a6e565b60405180910390fd5b6002600b81905550600073ffffffffffffffffffffffffffffffffffffffff16600d60009054906101000a900473ffffffffffffffffffffffffffffffffffffffff1673ffffffffffffffffffffffffffffffffffffffff1614156126b4576040517fc1b9a99e00000000000000000000000000000000000000000000000000000000815260040160405180910390fd5b600d60009054906101000a900473ffffffffffffffffffffffffffffffffffffffff1673ffffffffffffffffffffffffffffffffffffffff1663fa8038a33360006126fd61147a565b8660405160200161270f929190614712565b6040516020818303038152906040526040518463ffffffff1660e01b815260040161273c9392919061480c565b60206040518083038186803b15801561275457600080fd5b505afa158015612768573d6000803e3d6000fd5b505050506040513d601f19601f8201168201806040525081019061278c9190614328565b34146127c4576040517f2656d32500000000000000000000000000000000000000000000000000000000815260040160405180910390fd5b6127cd82610a19565b6127d733836129a5565b90506001600b81905550919050565b6060601280546127f590614e6a565b80601f016020809104026020016040519081016040528092919081815260200182805461282190614e6a565b801561286e5780601f106128435761010080835404028352916020019161286e565b820191906000526020600020905b81548152906001019060200180831161285157829003601f168201915b5050505050905090565b60056020528160005260406000206020528060005260406000206000915091509054906101000a900460ff1681565b6128af612ae8565b600073ffffffffffffffffffffffffffffffffffffffff168173ffffffffffffffffffffffffffffffffffffffff16141561291f576040517f08c379a00000000000000000000000000000000000000000000000000000000081526004016129169061494e565b60405180910390fd5b612928816133b8565b50565b60007f780e9d63000000000000000000000000000000000000000000000000000000007bffffffffffffffffffffffffffffffffffffffffffffffffffffffff1916827bffffffffffffffffffffffffffffffffffffffffffffffffffffffff1916148061299e575061299d826135cb565b5b9050919050565b600060016129b161147a565b6129bb9190614c25565b90506000601360008473ffffffffffffffffffffffffffffffffffffffff1673ffffffffffffffffffffffffffffffffffffffff1681526020019081526020016000205414612a36576040517fdfa4c0d500000000000000000000000000000000000000000000000000000000815260040160405180910390fd5b816014600083815260200190815260200160002060006101000a81548173ffffffffffffffffffffffffffffffffffffffff021916908373ffffffffffffffffffffffffffffffffffffffff16021790555080601360008473ffffffffffffffffffffffffffffffffffffffff1673ffffffffffffffffffffffffffffffffffffffff16815260200190815260200160002081905550612ad860008483612b66565b612ae2838261365d565b92915050565b612af0613870565b73ffffffffffffffffffffffffffffffffffffffff16612b0e611f98565b73ffffffffffffffffffffffffffffffffffffffff1614612b64576040517f08c379a0000000000000000000000000000000000000000000000000000000008152600401612b5b906149ce565b60405180910390fd5b565b600073ffffffffffffffffffffffffffffffffffffffff168373ffffffffffffffffffffffffffffffffffffffff161415612ba957612ba481613878565b612be8565b8173ffffffffffffffffffffffffffffffffffffffff168373ffffffffffffffffffffffffffffffffffffffff1614612be757612be683826138c1565b5b5b600073ffffffffffffffffffffffffffffffffffffffff168273ffffffffffffffffffffffffffffffffffffffff161415612c2b57612c2681613a65565b612c6a565b8273ffffffffffffffffffffffffffffffffffffffff168273ffffffffffffffffffffffffffffffffffffffff1614612c6957612c688282613b36565b5b5b505050565b6002600082815260200190815260200160002060009054906101000a900473ffffffffffffffffffffffffffffffffffffffff1673ffffffffffffffffffffffffffffffffffffffff168373ffffffffffffffffffffffffffffffffffffffff1614612d10576040517f08c379a0000000000000000000000000000000000000000000000000000000008152600401612d0790614a8e565b60405180910390fd5b600073ffffffffffffffffffffffffffffffffffffffff168273ffffffffffffffffffffffffffffffffffffffff161415612d80576040517f08c379a0000000000000000000000000000000000000000000000000000000008152600401612d779061496e565b60405180910390fd5b8273ffffffffffffffffffffffffffffffffffffffff163373ffffffffffffffffffffffffffffffffffffffff161480612e405750600560008473ffffffffffffffffffffffffffffffffffffffff1673ffffffffffffffffffffffffffffffffffffffff16815260200190815260200160002060003373ffffffffffffffffffffffffffffffffffffffff1673ffffffffffffffffffffffffffffffffffffffff16815260200190815260200160002060009054906101000a900460ff165b80612ea957506004600082815260200190815260200160002060009054906101000a900473ffffffffffffffffffffffffffffffffffffffff1673ffffffffffffffffffffffffffffffffffffffff163373ffffffffffffffffffffffffffffffffffffffff16145b612ee8576040517f08c379a0000000000000000000000000000000000000000000000000000000008152600401612edf90614a2e565b60405180910390fd5b600360008473ffffffffffffffffffffffffffffffffffffffff1673ffffffffffffffffffffffffffffffffffffffff1681526020019081526020016000206000815480929190600190039190505550600360008373ffffffffffffffffffffffffffffffffffffffff1673ffffffffffffffffffffffffffffffffffffffff16815260200190815260200160002060008154809291906001019190505550816002600083815260200190815260200160002060006101000a81548173ffffffffffffffffffffffffffffffffffffffff021916908373ffffffffffffffffffffffffffffffffffffffff1602179055506004600082815260200190815260200160002060006101000a81549073ffffffffffffffffffffffffffffffffffffffff0219169055808273ffffffffffffffffffffffffffffffffffffffff168473ffffffffffffffffffffffffffffffffffffffff167fddf252ad1be2c89b69c2b068fc378daa952ba7f163c4a11628f55a4df523b3ef60405160405180910390a4505050565b61307a8383836116a1565b60008273ffffffffffffffffffffffffffffffffffffffff163b1480613172575063150b7a0260e01b7bffffffffffffffffffffffffffffffffffffffffffffffffffffffff19168273ffffffffffffffffffffffffffffffffffffffff1663150b7a023386856040518463ffffffff1660e01b81526004016130ff939291906147c2565b602060405180830381600087803b15801561311957600080fd5b505af115801561312d573d6000803e3d6000fd5b505050506040513d601f19601f82011682018060405250810190613151919061415e565b7bffffffffffffffffffffffffffffffffffffffffffffffffffffffff1916145b6131b1576040517f08c379a00000000000000000000000000000000000000000000000000000000081526004016131a8906149ae565b60405180910390fd5b505050565b600073ffffffffffffffffffffffffffffffffffffffff168273ffffffffffffffffffffffffffffffffffffffff161415613226576040517f08c379a000000000000000000000000000000000000000000000000000000000815260040161321d9061496e565b60405180910390fd5b613231838383612b66565b600360008473ffffffffffffffffffffffffffffffffffffffff1673ffffffffffffffffffffffffffffffffffffffff1681526020019081526020016000206000815480929190600190039190505550600360008373ffffffffffffffffffffffffffffffffffffffff1673ffffffffffffffffffffffffffffffffffffffff16815260200190815260200160002060008154809291906001019190505550816002600083815260200190815260200160002060006101000a81548173ffffffffffffffffffffffffffffffffffffffff021916908373ffffffffffffffffffffffffffffffffffffffff1602179055506004600082815260200190815260200160002060006101000a81549073ffffffffffffffffffffffffffffffffffffffff0219169055808273ffffffffffffffffffffffffffffffffffffffff168473ffffffffffffffffffffffffffffffffffffffff167fddf252ad1be2c89b69c2b068fc378daa952ba7f163c4a11628f55a4df523b3ef60405160405180910390a4505050565b6000600a60009054906101000a900473ffffffffffffffffffffffffffffffffffffffff16905081600a60006101000a81548173ffffffffffffffffffffffffffffffffffffffff021916908373ffffffffffffffffffffffffffffffffffffffff1602179055508173ffffffffffffffffffffffffffffffffffffffff168173ffffffffffffffffffffffffffffffffffffffff167f8be0079c531659141344cd1fd0a4f28419497f9722a3daafe3b4186f6b6457e060405160405180910390a35050565b6134898585856116a1565b60008473ffffffffffffffffffffffffffffffffffffffff163b1480613585575063150b7a0260e01b7bffffffffffffffffffffffffffffffffffffffffffffffffffffffff19168473ffffffffffffffffffffffffffffffffffffffff1663150b7a0233888787876040518663ffffffff1660e01b8152600401613512959493929190614774565b602060405180830381600087803b15801561352c57600080fd5b505af1158015613540573d6000803e3d6000fd5b505050506040513d601f19601f82011682018060405250810190613564919061415e565b7bffffffffffffffffffffffffffffffffffffffffffffffffffffffff1916145b6135c4576040517f08c379a00000000000000000000000000000000000000000000000000000000081526004016135bb906149ae565b60405180910390fd5b5050505050565b60006301ffc9a760e01b827bffffffffffffffffffffffffffffffffffffffffffffffffffffffff1916148061362657506380ac58cd60e01b827bffffffffffffffffffffffffffffffffffffffffffffffffffffffff1916145b806136565750635b5e139f60e01b827bffffffffffffffffffffffffffffffffffffffffffffffffffffffff1916145b9050919050565b600073ffffffffffffffffffffffffffffffffffffffff168273ffffffffffffffffffffffffffffffffffffffff1614156136cd576040517f08c379a00000000000000000000000000000000000000000000000000000000081526004016136c49061496e565b60405180910390fd5b600073ffffffffffffffffffffffffffffffffffffffff166002600083815260200190815260200160002060009054906101000a900473ffffffffffffffffffffffffffffffffffffffff1673ffffffffffffffffffffffffffffffffffffffff161461376f576040517f08c379a000000000000000000000000000000000000000000000000000000000815260040161376690614a0e565b60405180910390fd5b600360008373ffffffffffffffffffffffffffffffffffffffff1673ffffffffffffffffffffffffffffffffffffffff16815260200190815260200160002060008154809291906001019190505550816002600083815260200190815260200160002060006101000a81548173ffffffffffffffffffffffffffffffffffffffff021916908373ffffffffffffffffffffffffffffffffffffffff160217905550808273ffffffffffffffffffffffffffffffffffffffff16600073ffffffffffffffffffffffffffffffffffffffff167fddf252ad1be2c89b69c2b068fc378daa952ba7f163c4a11628f55a4df523b3ef60405160405180910390a45050565b600033905090565b6008805490506009600083815260200190815260200160002081905550600881908060018154018082558091505060019003906000526020600020016000909190919091505550565b60006001600360008573ffffffffffffffffffffffffffffffffffffffff1673ffffffffffffffffffffffffffffffffffffffff1681526020019081526020016000205461390f9190614d06565b90506000600760008481526020019081526020016000205490508181146139f4576000600660008673ffffffffffffffffffffffffffffffffffffffff1673ffffffffffffffffffffffffffffffffffffffff168152602001908152602001600020600084815260200190815260200160002054905080600660008773ffffffffffffffffffffffffffffffffffffffff1673ffffffffffffffffffffffffffffffffffffffff168152602001908152602001600020600084815260200190815260200160002081905550816007600083815260200190815260200160002081905550505b6007600084815260200190815260200160002060009055600660008573ffffffffffffffffffffffffffffffffffffffff1673ffffffffffffffffffffffffffffffffffffffff16815260200190815260200160002060008381526020019081526020016000206000905550505050565b60006001600880549050613a799190614d06565b9050600060096000848152602001908152602001600020549050600060088381548110613aa957613aa8614fb7565b5b906000526020600020015490508060088381548110613acb57613aca614fb7565b5b906000526020600020018190555081600960008381526020019081526020016000208190555060096000858152602001908152602001600020600090556008805480613b1a57613b19614f88565b5b6001900381819060005260206000200160009055905550505050565b6000600360008473ffffffffffffffffffffffffffffffffffffffff1673ffffffffffffffffffffffffffffffffffffffff16815260200190815260200160002054905081600660008573ffffffffffffffffffffffffffffffffffffffff1673ffffffffffffffffffffffffffffffffffffffff168152602001908152602001600020600083815260200190815260200160002081905550806007600084815260200190815260200160002081905550505050565b828054613bf890614e6a565b90600052602060002090601f016020900481019282613c1a5760008555613c61565b82601f10613c3357803560ff1916838001178555613c61565b82800160010185558215613c61579182015b82811115613c60578235825591602001919060010190613c45565b5b509050613c6e9190613c72565b5090565b5b80821115613c8b576000816000905550600101613c73565b5090565b6000613ca2613c9d84614bbc565b614b97565b905082815260208101848484011115613cbe57613cbd615024565b5b613cc9848285614e37565b509392505050565b600081359050613ce0816152b2565b92915050565b600081359050613cf5816152c9565b92915050565b600081359050613d0a816152e0565b92915050565b600081519050613d1f816152e0565b92915050565b600081359050613d34816152f7565b92915050565b600081519050613d49816152f7565b92915050565b60008083601f840112613d6557613d6461501a565b5b8235905067ffffffffffffffff811115613d8257613d81615015565b5b602083019150836001820283011115613d9e57613d9d61501f565b5b9250929050565b600081359050613db48161530e565b92915050565b600081519050613dc981615325565b92915050565b600081359050613dde8161533c565b92915050565b600081359050613df381615353565b92915050565b60008083601f840112613e0f57613e0e61501a565b5b8235905067ffffffffffffffff811115613e2c57613e2b615015565b5b602083019150836001820283011115613e4857613e4761501f565b5b9250929050565b600082601f830112613e6457613e6361501a565b5b8151613e74848260208601613c8f565b91505092915050565b600081359050613e8c8161536a565b92915050565b600081359050613ea181615381565b92915050565b600081519050613eb681615381565b92915050565b600060208284031215613ed257613ed161502e565b5b6000613ee084828501613cd1565b91505092915050565b60008060408385031215613f0057613eff61502e565b5b6000613f0e85828601613ce6565b9250506020613f1f85828601613e92565b9150509250929050565b60008060408385031215613f4057613f3f61502e565b5b6000613f4e85828601613cd1565b9250506020613f5f85828601613cd1565b9150509250929050565b600080600060608486031215613f8257613f8161502e565b5b6000613f9086828701613cd1565b9350506020613fa186828701613cd1565b9250506040613fb286828701613e92565b9150509250925092565b600080600080600060808688031215613fd857613fd761502e565b5b6000613fe688828901613cd1565b9550506020613ff788828901613cd1565b945050604061400888828901613e92565b935050606086013567ffffffffffffffff81111561402957614028615029565b5b61403588828901613d4f565b92509250509295509295909350565b6000806040838503121561405b5761405a61502e565b5b600061406985828601613cd1565b925050602061407a85828601613cfb565b9150509250929050565b6000806040838503121561409b5761409a61502e565b5b60006140a985828601613cd1565b92505060206140ba85828601613e7d565b9150509250929050565b600080604083850312156140db576140da61502e565b5b60006140e985828601613cd1565b92505060206140fa85828601613e92565b9150509250929050565b60006020828403121561411a5761411961502e565b5b600061412884828501613d10565b91505092915050565b6000602082840312156141475761414661502e565b5b600061415584828501613d25565b91505092915050565b6000602082840312156141745761417361502e565b5b600061418284828501613d3a565b91505092915050565b6000806000606084860312156141a4576141a361502e565b5b60006141b286828701613da5565b93505060206141c386828701613cd1565b92505060406141d486828701613e92565b9150509250925092565b6000602082840312156141f4576141f361502e565b5b600061420284828501613dba565b91505092915050565b6000602082840312156142215761422061502e565b5b600061422f84828501613dcf565b91505092915050565b60006020828403121561424e5761424d61502e565b5b600061425c84828501613de4565b91505092915050565b6000806020838503121561427c5761427b61502e565b5b600083013567ffffffffffffffff81111561429a57614299615029565b5b6142a685828601613df9565b92509250509250929050565b6000602082840312156142c8576142c761502e565b5b600082015167ffffffffffffffff8111156142e6576142e5615029565b5b6142f284828501613e4f565b91505092915050565b6000602082840312156143115761431061502e565b5b600061431f84828501613e92565b91505092915050565b60006020828403121561433e5761433d61502e565b5b600061434c84828501613ea7565b91505092915050565b6000806000806060858703121561436f5761436e61502e565b5b600061437d87828801613e92565b945050602061438e87828801613cd1565b935050604085013567ffffffffffffffff8111156143af576143ae615029565b5b6143bb87828801613d4f565b925092505092959194509250565b600080604083850312156143e0576143df61502e565b5b60006143ee85828601613e92565b92505060206143ff85828601613e92565b9150509250929050565b61441281614d4c565b82525050565b61442181614d3a565b82525050565b61443861443382614d3a565b614ecd565b82525050565b61444781614d5e565b82525050565b60006144598385614c03565b9350614466838584614e28565b61446f83615033565b840190509392505050565b600061448582614bed565b61448f8185614c03565b935061449f818560208601614e37565b6144a881615033565b840191505092915050565b6144bc81614e16565b82525050565b60006144cd82614bf8565b6144d78185614c14565b93506144e7818560208601614e37565b6144f081615033565b840191505092915050565b6000614508602b83614c14565b915061451382615051565b604082019050919050565b600061452b602683614c14565b9150614536826150a0565b604082019050919050565b600061454e601183614c14565b9150614559826150ef565b602082019050919050565b6000614571600c83614c14565b915061457c82615118565b602082019050919050565b6000614594601083614c14565b915061459f82615141565b602082019050919050565b60006145b7602083614c14565b91506145c28261516a565b602082019050919050565b60006145da600083614c03565b91506145e582615193565b600082019050919050565b60006145fd602c83614c14565b915061460882615196565b604082019050919050565b6000614620600e83614c14565b915061462b826151e5565b602082019050919050565b6000614643600e83614c14565b915061464e8261520e565b602082019050919050565b6000614666600a83614c14565b915061467182615237565b602082019050919050565b6000614689601f83614c14565b915061469482615260565b602082019050919050565b60006146ac600a83614c14565b91506146b782615289565b602082019050919050565b6146cb81614dde565b82525050565b6146da81614e0c565b82525050565b6146f16146ec82614e0c565b614ef1565b82525050565b600061470382846146e0565b60208201915081905092915050565b600061471e82856146e0565b60208201915061472e8284614427565b6014820191508190509392505050565b60006020820190506147536000830184614418565b92915050565b600060208201905061476e6000830184614409565b92915050565b60006080820190506147896000830188614418565b6147966020830187614418565b6147a360408301866146d1565b81810360608301526147b681848661444d565b90509695505050505050565b60006080820190506147d76000830186614418565b6147e46020830185614418565b6147f160408301846146d1565b8181036060830152614802816145cd565b9050949350505050565b60006060820190506148216000830186614418565b61482e60208301856144b3565b8181036040830152614840818461447a565b9050949350505050565b600060408201905061485f6000830185614418565b61486c60208301846146d1565b9392505050565b60006060820190506148886000830187614418565b61489560208301866146d1565b81810360408301526148a881848661444d565b905095945050505050565b60006060820190506148c86000830186614418565b6148d560208301856146d1565b81810360408301526148e7818461447a565b9050949350505050565b6000602082019050614906600083018461443e565b92915050565b6000602082019050818103600083015261492681846144c2565b905092915050565b60006020820190508181036000830152614947816144fb565b9050919050565b600060208201905081810360008301526149678161451e565b9050919050565b6000602082019050818103600083015261498781614541565b9050919050565b600060208201905081810360008301526149a781614564565b9050919050565b600060208201905081810360008301526149c781614587565b9050919050565b600060208201905081810360008301526149e7816145aa565b9050919050565b60006020820190508181036000830152614a07816145f0565b9050919050565b60006020820190508181036000830152614a2781614613565b9050919050565b60006020820190508181036000830152614a4781614636565b9050919050565b60006020820190508181036000830152614a6781614659565b9050919050565b60006020820190508181036000830152614a878161467c565b9050919050565b60006020820190508181036000830152614aa78161469f565b9050919050565b6000602082019050614ac360008301846146c2565b92915050565b6000602082019050614ade60008301846146d1565b92915050565b6000604082019050614af960008301856146d1565b614b066020830184614418565b9392505050565b600061010082019050614b23600083018a6146d1565b614b3060208301896146d1565b614b3d6040830188614418565b614b4a6060830187614418565b614b5760808301866144b3565b614b6460a083018561443e565b81810360c0830152614b7681846144c2565b905081810360e0830152614b89816145cd565b905098975050505050505050565b6000614ba1614bb2565b9050614bad8282614e9c565b919050565b6000604051905090565b600067ffffffffffffffff821115614bd757614bd6614fe6565b5b614be082615033565b9050602081019050919050565b600081519050919050565b600081519050919050565b600082825260208201905092915050565b600082825260208201905092915050565b6000614c3082614e0c565b9150614c3b83614e0c565b9250827fffffffffffffffffffffffffffffffffffffffffffffffffffffffffffffffff03821115614c7057614c6f614efb565b5b828201905092915050565b6000614c8682614e0c565b9150614c9183614e0c565b925082614ca157614ca0614f2a565b5b828204905092915050565b6000614cb782614e0c565b9150614cc283614e0c565b9250817fffffffffffffffffffffffffffffffffffffffffffffffffffffffffffffffff0483118215151615614cfb57614cfa614efb565b5b828202905092915050565b6000614d1182614e0c565b9150614d1c83614e0c565b925082821015614d2f57614d2e614efb565b5b828203905092915050565b6000614d4582614dec565b9050919050565b6000614d5782614dec565b9050919050565b60008115159050919050565b60007fffffffff0000000000000000000000000000000000000000000000000000000082169050919050565b6000614da182614d3a565b9050919050565b6000614db382614d3a565b9050919050565b6000614dc582614d3a565b9050919050565b6000614dd782614d3a565b9050919050565b600061ffff82169050919050565b600073ffffffffffffffffffffffffffffffffffffffff82169050919050565b6000819050919050565b6000614e2182614e0c565b9050919050565b82818337600083830152505050565b60005b83811015614e55578082015181840152602081019050614e3a565b83811115614e64576000848401525b50505050565b60006002820490506001821680614e8257607f821691505b60208210811415614e9657614e95614f59565b5b50919050565b614ea582615033565b810181811067ffffffffffffffff82111715614ec457614ec3614fe6565b5b80604052505050565b6000614ed882614edf565b9050919050565b6000614eea82615044565b9050919050565b6000819050919050565b7f4e487b7100000000000000000000000000000000000000000000000000000000600052601160045260246000fd5b7f4e487b7100000000000000000000000000000000000000000000000000000000600052601260045260246000fd5b7f4e487b7100000000000000000000000000000000000000000000000000000000600052602260045260246000fd5b7f4e487b7100000000000000000000000000000000000000000000000000000000600052603160045260246000fd5b7f4e487b7100000000000000000000000000000000000000000000000000000000600052603260045260246000fd5b7f4e487b7100000000000000000000000000000000000000000000000000000000600052604160045260246000fd5b600080fd5b600080fd5b600080fd5b600080fd5b600080fd5b600080fd5b6000601f19601f8301169050919050565b60008160601b9050919050565b7f455243373231456e756d657261626c653a206f776e657220696e646578206f7560008201527f74206f6620626f756e6473000000000000000000000000000000000000000000602082015250565b7f4f776e61626c653a206e6577206f776e657220697320746865207a65726f206160008201527f6464726573730000000000000000000000000000000000000000000000000000602082015250565b7f494e56414c49445f524543495049454e54000000000000000000000000000000600082015250565b7f5a45524f5f414444524553530000000000000000000000000000000000000000600082015250565b7f554e534146455f524543495049454e5400000000000000000000000000000000600082015250565b7f4f776e61626c653a2063616c6c6572206973206e6f7420746865206f776e6572600082015250565b50565b7f455243373231456e756d657261626c653a20676c6f62616c20696e646578206f60008201527f7574206f6620626f756e64730000000000000000000000000000000000000000602082015250565b7f414c52454144595f4d494e544544000000000000000000000000000000000000600082015250565b7f4e4f545f415554484f52495a4544000000000000000000000000000000000000600082015250565b7f4e4f545f4d494e54454400000000000000000000000000000000000000000000600082015250565b7f5265656e7472616e637947756172643a207265656e7472616e742063616c6c00600082015250565b7f57524f4e475f46524f4d00000000000000000000000000000000000000000000600082015250565b6152bb81614d3a565b81146152c657600080fd5b50565b6152d281614d4c565b81146152dd57600080fd5b50565b6152e981614d5e565b81146152f457600080fd5b50565b61530081614d6a565b811461530b57600080fd5b50565b61531781614d96565b811461532257600080fd5b50565b61532e81614da8565b811461533957600080fd5b50565b61534581614dba565b811461535057600080fd5b50565b61535c81614dcc565b811461536757600080fd5b50565b61537381614dde565b811461537e57600080fd5b50565b61538a81614e0c565b811461539557600080fd5b5056fea164736f6c6343000806000a",
  "linkReferences": {},
  "deployedLinkReferences": {}
}