{
  "_format": "hh-sol-artifact-1",
  "contractName": "InfiniteTiles",
  "sourceName": "contracts/InfiniteTiles.sol",
  "abi": [
    {
      "inputs": [
        {
          "internalType": "string",
          "name": "_name",
          "type": "string"
        },
        {
          "internalType": "string",
          "name": "_symbol",
          "type": "string"
        },
        {
          "internalType": "string",
          "name": "_baseUri",
          "type": "string"
        },
        {
          "internalType": "contract IPriceResolver",
          "name": "_priceResolver",
          "type": "address"
        },
        {
          "internalType": "contract ITileContentProvider",
          "name": "_tokenUriResolver",
          "type": "address"
        },
        {
          "internalType": "contract IJBDirectory",
          "name": "_jbxDirectory",
          "type": "address"
        },
        {
          "internalType": "uint256",
          "name": "_jbxProjectId",
          "type": "uint256"
        },
        {
          "internalType": "string",
          "name": "_metadataUri",
          "type": "string"
        }
      ],
      "stateMutability": "nonpayable",
      "type": "constructor"
    },
    {
      "inputs": [],
      "name": "ALREADY_MINTED",
      "type": "error"
    },
    {
      "inputs": [],
      "name": "INCORRECT_PRICE",
      "type": "error"
    },
    {
      "inputs": [],
      "name": "INVALID_ADDRESS",
      "type": "error"
    },
    {
      "inputs": [],
      "name": "INVALID_AMOUNT",
      "type": "error"
    },
    {
      "inputs": [],
      "name": "INVALID_RATE",
      "type": "error"
    },
    {
      "inputs": [],
      "name": "INVALID_TOKEN",
      "type": "error"
    },
    {
      "inputs": [],
      "name": "PRIVILEDGED_OPERATION",
      "type": "error"
    },
    {
      "inputs": [],
      "name": "UNSUPPORTED_OPERATION",
      "type": "error"
    },
    {
      "anonymous": false,
      "inputs": [
        {
          "indexed": true,
          "internalType": "address",
          "name": "owner",
          "type": "address"
        },
        {
          "indexed": true,
          "internalType": "address",
          "name": "spender",
          "type": "address"
        },
        {
          "indexed": true,
          "internalType": "uint256",
          "name": "id",
          "type": "uint256"
        }
      ],
      "name": "Approval",
      "type": "event"
    },
    {
      "anonymous": false,
      "inputs": [
        {
          "indexed": true,
          "internalType": "address",
          "name": "owner",
          "type": "address"
        },
        {
          "indexed": true,
          "internalType": "address",
          "name": "operator",
          "type": "address"
        },
        {
          "indexed": false,
          "internalType": "bool",
          "name": "approved",
          "type": "bool"
        }
      ],
      "name": "ApprovalForAll",
      "type": "event"
    },
    {
      "anonymous": false,
      "inputs": [
        {
          "indexed": true,
          "internalType": "address",
          "name": "previousOwner",
          "type": "address"
        },
        {
          "indexed": true,
          "internalType": "address",
          "name": "newOwner",
          "type": "address"
        }
      ],
      "name": "OwnershipTransferred",
      "type": "event"
    },
    {
      "anonymous": false,
      "inputs": [
        {
          "indexed": true,
          "internalType": "address",
          "name": "from",
          "type": "address"
        },
        {
          "indexed": true,
          "internalType": "address",
          "name": "to",
          "type": "address"
        },
        {
          "indexed": true,
          "internalType": "uint256",
          "name": "id",
          "type": "uint256"
        }
      ],
      "name": "Transfer",
      "type": "event"
    },
    {
      "inputs": [
        {
          "internalType": "uint256",
          "name": "",
          "type": "uint256"
        }
      ],
      "name": "addressForId",
      "outputs": [
        {
          "internalType": "address",
          "name": "",
          "type": "address"
        }
      ],
      "stateMutability": "view",
      "type": "function"
    },
    {
      "inputs": [
        {
          "internalType": "address",
          "name": "spender",
          "type": "address"
        },
        {
          "internalType": "uint256",
          "name": "id",
          "type": "uint256"
        }
      ],
      "name": "approve",
      "outputs": [],
      "stateMutability": "nonpayable",
      "type": "function"
    },
    {
      "inputs": [
        {
          "internalType": "address",
          "name": "owner",
          "type": "address"
        }
      ],
      "name": "balanceOf",
      "outputs": [
        {
          "internalType": "uint256",
          "name": "",
          "type": "uint256"
        }
      ],
      "stateMutability": "view",
      "type": "function"
    },
    {
      "inputs": [],
      "name": "baseUri",
      "outputs": [
        {
          "internalType": "string",
          "name": "",
          "type": "string"
        }
      ],
      "stateMutability": "view",
      "type": "function"
    },
    {
      "inputs": [],
      "name": "contractURI",
      "outputs": [
        {
          "internalType": "string",
          "name": "contractUri",
          "type": "string"
        }
      ],
      "stateMutability": "view",
      "type": "function"
    },
    {
      "inputs": [
        {
          "internalType": "uint256",
          "name": "",
          "type": "uint256"
        }
      ],
      "name": "getApproved",
      "outputs": [
        {
          "internalType": "address",
          "name": "",
          "type": "address"
        }
      ],
      "stateMutability": "view",
      "type": "function"
    },
    {
      "inputs": [],
      "name": "getMintPrice",
      "outputs": [
        {
          "internalType": "uint256",
          "name": "price",
          "type": "uint256"
        }
      ],
      "stateMutability": "view",
      "type": "function"
    },
    {
      "inputs": [
        {
          "internalType": "address",
          "name": "_tile",
          "type": "address"
        }
      ],
      "name": "grab",
      "outputs": [
        {
          "internalType": "uint256",
          "name": "mintedTokenId",
          "type": "uint256"
        }
      ],
      "stateMutability": "payable",
      "type": "function"
    },
    {
      "inputs": [
        {
          "internalType": "address",
          "name": "",
          "type": "address"
        }
      ],
      "name": "idForAddress",
      "outputs": [
        {
          "internalType": "uint256",
          "name": "",
          "type": "uint256"
        }
      ],
      "stateMutability": "view",
      "type": "function"
    },
    {
      "inputs": [
        {
          "internalType": "address",
          "name": "",
          "type": "address"
        },
        {
          "internalType": "address",
          "name": "",
          "type": "address"
        }
      ],
      "name": "isApprovedForAll",
      "outputs": [
        {
          "internalType": "bool",
          "name": "",
          "type": "bool"
        }
      ],
      "stateMutability": "view",
      "type": "function"
    },
    {
      "inputs": [
        {
          "internalType": "uint256",
          "name": "index",
          "type": "uint256"
        },
        {
          "internalType": "address",
          "name": "_tile",
          "type": "address"
        },
        {
          "internalType": "bytes",
          "name": "proof",
          "type": "bytes"
        }
      ],
      "name": "merkleMint",
      "outputs": [
        {
          "internalType": "uint256",
          "name": "mintedTokenId",
          "type": "uint256"
        }
      ],
      "stateMutability": "payable",
      "type": "function"
    },
    {
      "inputs": [],
      "name": "mint",
      "outputs": [
        {
          "internalType": "uint256",
          "name": "mintedTokenId",
          "type": "uint256"
        }
      ],
      "stateMutability": "payable",
      "type": "function"
    },
    {
      "inputs": [],
      "name": "name",
      "outputs": [
        {
          "internalType": "string",
          "name": "",
          "type": "string"
        }
      ],
      "stateMutability": "view",
      "type": "function"
    },
    {
      "inputs": [],
      "name": "owner",
      "outputs": [
        {
          "internalType": "address",
          "name": "",
          "type": "address"
        }
      ],
      "stateMutability": "view",
      "type": "function"
    },
    {
      "inputs": [
        {
          "internalType": "uint256",
          "name": "id",
          "type": "uint256"
        }
      ],
      "name": "ownerOf",
      "outputs": [
        {
          "internalType": "address",
          "name": "owner",
          "type": "address"
        }
      ],
      "stateMutability": "view",
      "type": "function"
    },
    {
      "inputs": [
        {
          "internalType": "address",
          "name": "_minter",
          "type": "address"
        }
      ],
      "name": "registerMinter",
      "outputs": [],
      "stateMutability": "nonpayable",
      "type": "function"
    },
    {
      "inputs": [
        {
          "internalType": "address",
          "name": "_minter",
          "type": "address"
        }
      ],
      "name": "removeMinter",
      "outputs": [],
      "stateMutability": "nonpayable",
      "type": "function"
    },
    {
      "inputs": [],
      "name": "renounceOwnership",
      "outputs": [],
      "stateMutability": "nonpayable",
      "type": "function"
    },
    {
      "inputs": [
        {
          "internalType": "uint256",
          "name": "_tokenId",
          "type": "uint256"
        },
        {
          "internalType": "uint256",
          "name": "_salePrice",
          "type": "uint256"
        }
      ],
      "name": "royaltyInfo",
      "outputs": [
        {
          "internalType": "address",
          "name": "receiver",
          "type": "address"
        },
        {
          "internalType": "uint256",
          "name": "royaltyAmount",
          "type": "uint256"
        }
      ],
      "stateMutability": "view",
      "type": "function"
    },
    {
      "inputs": [],
      "name": "royaltyRate",
      "outputs": [
        {
          "internalType": "uint16",
          "name": "",
          "type": "uint16"
        }
      ],
      "stateMutability": "view",
      "type": "function"
    },
    {
      "inputs": [],
      "name": "royaltyReceiver",
      "outputs": [
        {
          "internalType": "address payable",
          "name": "",
          "type": "address"
        }
      ],
      "stateMutability": "view",
      "type": "function"
    },
    {
      "inputs": [
        {
          "internalType": "address",
          "name": "_from",
          "type": "address"
        },
        {
          "internalType": "address",
          "name": "_to",
          "type": "address"
        },
        {
          "internalType": "uint256",
          "name": "_tokenId",
          "type": "uint256"
        }
      ],
      "name": "safeTransferFrom",
      "outputs": [],
      "stateMutability": "nonpayable",
      "type": "function"
    },
    {
      "inputs": [
        {
          "internalType": "address",
          "name": "_from",
          "type": "address"
        },
        {
          "internalType": "address",
          "name": "_to",
          "type": "address"
        },
        {
          "internalType": "uint256",
          "name": "_tokenId",
          "type": "uint256"
        },
        {
          "internalType": "bytes",
          "name": "_data",
          "type": "bytes"
        }
      ],
      "name": "safeTransferFrom",
      "outputs": [],
      "stateMutability": "nonpayable",
      "type": "function"
    },
    {
      "inputs": [],
      "name": "seize",
      "outputs": [
        {
          "internalType": "uint256",
          "name": "tokenId",
          "type": "uint256"
        }
      ],
      "stateMutability": "payable",
      "type": "function"
    },
    {
      "inputs": [
        {
          "internalType": "address",
          "name": "operator",
          "type": "address"
        },
        {
          "internalType": "bool",
          "name": "approved",
          "type": "bool"
        }
      ],
      "name": "setApprovalForAll",
      "outputs": [],
      "stateMutability": "nonpayable",
      "type": "function"
    },
    {
      "inputs": [
        {
          "internalType": "string",
          "name": "contractUri",
          "type": "string"
        }
      ],
      "name": "setContractUri",
      "outputs": [],
      "stateMutability": "nonpayable",
      "type": "function"
    },
    {
      "inputs": [
        {
          "internalType": "contract IJBDirectory",
          "name": "_jbxDirectory",
          "type": "address"
        },
        {
          "internalType": "uint256",
          "name": "_jbxProjectId",
          "type": "uint256"
        }
      ],
      "name": "setJuiceboxParams",
      "outputs": [],
      "stateMutability": "nonpayable",
      "type": "function"
    },
    {
      "inputs": [
        {
          "internalType": "contract IPriceResolver",
          "name": "_priceResolver",
          "type": "address"
        }
      ],
      "name": "setPriceResolver",
      "outputs": [],
      "stateMutability": "nonpayable",
      "type": "function"
    },
    {
      "inputs": [
        {
          "internalType": "address",
          "name": "_royaltyReceiver",
          "type": "address"
        },
        {
          "internalType": "uint16",
          "name": "_royaltyRate",
          "type": "uint16"
        }
      ],
      "name": "setRoyalties",
      "outputs": [],
      "stateMutability": "nonpayable",
      "type": "function"
    },
    {
      "inputs": [
        {
          "internalType": "contract ITileContentProvider",
          "name": "_tokenUriResolver",
          "type": "address"
        }
      ],
      "name": "setTokenUriResolver",
      "outputs": [],
      "stateMutability": "nonpayable",
      "type": "function"
    },
    {
      "inputs": [
        {
          "internalType": "address",
          "name": "_account",
          "type": "address"
        },
        {
          "internalType": "address",
          "name": "_tile",
          "type": "address"
        }
      ],
      "name": "superMint",
      "outputs": [
        {
          "internalType": "uint256",
          "name": "mintedTokenId",
          "type": "uint256"
        }
      ],
      "stateMutability": "payable",
      "type": "function"
    },
    {
      "inputs": [
        {
          "internalType": "bytes4",
          "name": "interfaceId",
          "type": "bytes4"
        }
      ],
      "name": "supportsInterface",
      "outputs": [
        {
          "internalType": "bool",
          "name": "",
          "type": "bool"
        }
      ],
      "stateMutability": "view",
      "type": "function"
    },
    {
      "inputs": [],
      "name": "symbol",
      "outputs": [
        {
          "internalType": "string",
          "name": "",
          "type": "string"
        }
      ],
      "stateMutability": "view",
      "type": "function"
    },
    {
      "inputs": [
        {
          "internalType": "uint256",
          "name": "index",
          "type": "uint256"
        }
      ],
      "name": "tokenByIndex",
      "outputs": [
        {
          "internalType": "uint256",
          "name": "",
          "type": "uint256"
        }
      ],
      "stateMutability": "view",
      "type": "function"
    },
    {
      "inputs": [
        {
          "internalType": "address",
          "name": "owner",
          "type": "address"
        },
        {
          "internalType": "uint256",
          "name": "index",
          "type": "uint256"
        }
      ],
      "name": "tokenOfOwnerByIndex",
      "outputs": [
        {
          "internalType": "uint256",
          "name": "",
          "type": "uint256"
        }
      ],
      "stateMutability": "view",
      "type": "function"
    },
    {
      "inputs": [
        {
          "internalType": "uint256",
          "name": "tokenId",
          "type": "uint256"
        }
      ],
      "name": "tokenURI",
      "outputs": [
        {
          "internalType": "string",
          "name": "uri",
          "type": "string"
        }
      ],
      "stateMutability": "view",
      "type": "function"
    },
    {
      "inputs": [],
      "name": "totalSupply",
      "outputs": [
        {
          "internalType": "uint256",
          "name": "",
          "type": "uint256"
        }
      ],
      "stateMutability": "view",
      "type": "function"
    },
    {
      "inputs": [
        {
          "internalType": "address payable",
          "name": "account",
          "type": "address"
        },
        {
          "internalType": "uint256",
          "name": "amount",
          "type": "uint256"
        }
      ],
      "name": "transferBalance",
      "outputs": [],
      "stateMutability": "nonpayable",
      "type": "function"
    },
    {
      "inputs": [
        {
          "internalType": "address",
          "name": "_from",
          "type": "address"
        },
        {
          "internalType": "address",
          "name": "_to",
          "type": "address"
        },
        {
          "internalType": "uint256",
          "name": "_tokenId",
          "type": "uint256"
        }
      ],
      "name": "transferFrom",
      "outputs": [],
      "stateMutability": "nonpayable",
      "type": "function"
    },
    {
      "inputs": [
        {
          "internalType": "address",
          "name": "newOwner",
          "type": "address"
        }
      ],
      "name": "transferOwnership",
      "outputs": [],
      "stateMutability": "nonpayable",
      "type": "function"
    },
    {
      "inputs": [
        {
          "internalType": "contract IERC20",
          "name": "token",
          "type": "address"
        },
        {
          "internalType": "address",
          "name": "to",
          "type": "address"
        },
        {
          "internalType": "uint256",
          "name": "amount",
          "type": "uint256"
        }
      ],
      "name": "transferTokenBalance",
      "outputs": [],
      "stateMutability": "nonpayable",
      "type": "function"
    },
    {
      "stateMutability": "payable",
      "type": "receive"
    }
  ],
  "bytecode": "0x60806040523480156200001157600080fd5b5060405162005e1c38038062005e1c8339818101604052810190620000379190620004a0565b8787818181600090805190602001906200005392919062000316565b5080600190805190602001906200006c92919062000316565b505050505062000091620000856200024860201b60201c565b6200025060201b60201c565b6001600b8190555085600c9080519060200190620000b192919062000316565b5084600d60006101000a81548173ffffffffffffffffffffffffffffffffffffffff021916908373ffffffffffffffffffffffffffffffffffffffff16021790555083600e60006101000a81548173ffffffffffffffffffffffffffffffffffffffff021916908373ffffffffffffffffffffffffffffffffffffffff16021790555082601060006101000a81548173ffffffffffffffffffffffffffffffffffffffff021916908373ffffffffffffffffffffffffffffffffffffffff1602179055508160118190555080601290805190602001906200019492919062000316565b50600073ffffffffffffffffffffffffffffffffffffffff168473ffffffffffffffffffffffffffffffffffffffff16146200023a578373ffffffffffffffffffffffffffffffffffffffff16631499c592306040518263ffffffff1660e01b8152600401620002059190620005f6565b600060405180830381600087803b1580156200022057600080fd5b505af115801562000235573d6000803e3d6000fd5b505050505b5050505050505050620008a1565b600033905090565b6000600a60009054906101000a900473ffffffffffffffffffffffffffffffffffffffff16905081600a60006101000a81548173ffffffffffffffffffffffffffffffffffffffff021916908373ffffffffffffffffffffffffffffffffffffffff1602179055508173ffffffffffffffffffffffffffffffffffffffff168173ffffffffffffffffffffffffffffffffffffffff167f8be0079c531659141344cd1fd0a4f28419497f9722a3daafe3b4186f6b6457e060405160405180910390a35050565b82805462000324906200074a565b90600052602060002090601f01602090048101928262000348576000855562000394565b82601f106200036357805160ff191683800117855562000394565b8280016001018555821562000394579182015b828111156200039357825182559160200191906001019062000376565b5b509050620003a39190620003a7565b5090565b5b80821115620003c2576000816000905550600101620003a8565b5090565b6000620003dd620003d7846200063c565b62000613565b905082815260208101848484011115620003fc57620003fb62000819565b5b6200040984828562000714565b509392505050565b600081519050620004228162000839565b92915050565b600081519050620004398162000853565b92915050565b60008151905062000450816200086d565b92915050565b600082601f8301126200046e576200046d62000814565b5b815162000480848260208601620003c6565b91505092915050565b6000815190506200049a8162000887565b92915050565b600080600080600080600080610100898b031215620004c457620004c362000823565b5b600089015167ffffffffffffffff811115620004e557620004e46200081e565b5b620004f38b828c0162000456565b985050602089015167ffffffffffffffff8111156200051757620005166200081e565b5b620005258b828c0162000456565b975050604089015167ffffffffffffffff8111156200054957620005486200081e565b5b620005578b828c0162000456565b96505060606200056a8b828c0162000428565b95505060806200057d8b828c016200043f565b94505060a0620005908b828c0162000411565b93505060c0620005a38b828c0162000489565b92505060e089015167ffffffffffffffff811115620005c757620005c66200081e565b5b620005d58b828c0162000456565b9150509295985092959890939650565b620005f081620006ec565b82525050565b60006020820190506200060d6000830184620005e5565b92915050565b60006200061f62000632565b90506200062d828262000780565b919050565b6000604051905090565b600067ffffffffffffffff8211156200065a5762000659620007e5565b5b620006658262000828565b9050602081019050919050565b60006200067f82620006c2565b9050919050565b6000620006938262000672565b9050919050565b6000620006a78262000672565b9050919050565b6000620006bb8262000672565b9050919050565b600073ffffffffffffffffffffffffffffffffffffffff82169050919050565b6000819050919050565b6000620006f98262000700565b9050919050565b60006200070d82620006c2565b9050919050565b60005b838110156200073457808201518184015260208101905062000717565b8381111562000744576000848401525b50505050565b600060028204905060018216806200076357607f821691505b602082108114156200077a5762000779620007b6565b5b50919050565b6200078b8262000828565b810181811067ffffffffffffffff82111715620007ad57620007ac620007e5565b5b80604052505050565b7f4e487b7100000000000000000000000000000000000000000000000000000000600052602260045260246000fd5b7f4e487b7100000000000000000000000000000000000000000000000000000000600052604160045260246000fd5b600080fd5b600080fd5b600080fd5b600080fd5b6000601f19601f8301169050919050565b620008448162000686565b81146200085057600080fd5b50565b6200085e816200069a565b81146200086a57600080fd5b50565b6200087881620006ae565b81146200088457600080fd5b50565b6200089281620006e2565b81146200089e57600080fd5b50565b61556b80620008b16000396000f3fe6080604052600436106102ca5760003560e01c80634f6ccce7116101795780639fbc8713116100d6578063c87b56dd1161008a578063e8a3d48511610064578063e8a3d485146109bc578063e985e9c5146109e7578063f2fde38b14610a24576102db565b8063c87b56dd14610926578063ccb4807b14610963578063e5f30d901461098c576102db565b8063a7f93ebd116100bb578063a7f93ebd146108a7578063b88d4fde146108d2578063c4d1510d146108fb576102db565b80639fbc871314610853578063a22cb4651461087e576102db565b8063715018a61161012d5780638da5cb5b116101125780638da5cb5b146107d257806395d89b41146107fd5780639abc832014610828576102db565b8063715018a6146107925780637b163c1d146107a9576102db565b8063605297e11161015e578063605297e1146106fa5780636352211e1461071857806370a0823114610755576102db565b80634f6ccce71461069457806356a6d9ef146106d1576102db565b80631ad8f848116102275780632f745c59116101db57806338c86f32116101c057806338c86f321461061957806342842e0e1461064257806347230dcb1461066b576102db565b80632f745c59146105b35780633092afd5146105f0576102db565b806323b872dd1161020c57806323b872dd146105235780632407497e1461054c5780632a55205a14610575576102db565b80631ad8f848146104b6578063222fc658146104f3576102db565b8063095ea7b31161027e57806311a1d03b1161026357806311a1d03b146104445780631249c58b1461046d57806318160ddd1461048b576102db565b8063095ea7b3146103f25780630c222ee51461041b576102db565b806303a7f612116102af57806303a7f6121461034d57806306fdde031461038a578063081812fc146103b5576102db565b806301ffc9a7146102e057806303a03a841461031d576102db565b366102db576102d96000610a4d565b005b600080fd5b3480156102ec57600080fd5b506103076004803603810190610302919061422d565b610d33565b6040516103149190614a69565b60405180910390f35b61033760048036038101906103329190614025565b610dad565b6040516103449190614c41565b60405180910390f35b34801561035957600080fd5b50610374600480360381019061036f9190613fb8565b610edd565b6040516103819190614c41565b60405180910390f35b34801561039657600080fd5b5061039f610ef5565b6040516103ac9190614a84565b60405180910390f35b3480156103c157600080fd5b506103dc60048036038101906103d79190614437565b610f83565b6040516103e991906148b6565b60405180910390f35b3480156103fe57600080fd5b50610419600480360381019061041491906141c0565b610fb6565b005b34801561042757600080fd5b50610442600480360381019061043d9190614180565b61119f565b005b34801561045057600080fd5b5061046b60048036038101906104669190614287565b611267565b005b610475611302565b6040516104829190614c41565b60405180910390f35b34801561049757600080fd5b506104a061150b565b6040516104ad9190614c41565b60405180910390f35b3480156104c257600080fd5b506104dd60048036038101906104d89190614437565b611518565b6040516104ea91906148b6565b60405180910390f35b61050d60048036038101906105089190614491565b61154b565b60405161051a9190614c41565b60405180910390f35b34801561052f57600080fd5b5061054a60048036038101906105459190614065565b611732565b005b34801561055857600080fd5b50610573600480360381019061056e9190614374565b61174d565b005b34801561058157600080fd5b5061059c60048036038101906105979190614505565b611799565b6040516105aa9291906149c2565b60405180910390f35b3480156105bf57600080fd5b506105da60048036038101906105d591906141c0565b6118d5565b6040516105e79190614c41565b60405180910390f35b3480156105fc57600080fd5b5061061760048036038101906106129190613fb8565b6119b1565b005b34801561062557600080fd5b50610640600480360381019061063b9190614347565b611a14565b005b34801561064e57600080fd5b5061066960048036038101906106649190614065565b611a60565b005b34801561067757600080fd5b50610692600480360381019061068d9190613fb8565b611a7b565b005b3480156106a057600080fd5b506106bb60048036038101906106b69190614437565b611ade565b6040516106c89190614c41565b60405180910390f35b3480156106dd57600080fd5b506106f860048036038101906106f39190613fe5565b611b4f565b005b610702611c65565b60405161070f9190614c41565b60405180910390f35b34801561072457600080fd5b5061073f600480360381019061073a9190614437565b611eb3565b60405161074c91906148b6565b60405180910390f35b34801561076157600080fd5b5061077c60048036038101906107779190613fb8565b611f5f565b6040516107899190614c41565b60405180910390f35b34801561079e57600080fd5b506107a7612017565b005b3480156107b557600080fd5b506107d060048036038101906107cb91906142da565b61202b565b005b3480156107de57600080fd5b506107e761207f565b6040516107f491906148b6565b60405180910390f35b34801561080957600080fd5b506108126120a9565b60405161081f9190614a84565b60405180910390f35b34801561083457600080fd5b5061083d612137565b60405161084a9190614a84565b60405180910390f35b34801561085f57600080fd5b506108686121c5565b60405161087591906148d1565b60405180910390f35b34801561088a57600080fd5b506108a560048036038101906108a09190614140565b6121eb565b005b3480156108b357600080fd5b506108bc6122e8565b6040516108c99190614c41565b60405180910390f35b3480156108de57600080fd5b506108f960048036038101906108f491906140b8565b61244f565b005b34801561090757600080fd5b5061091061246e565b60405161091d9190614c26565b60405180910390f35b34801561093257600080fd5b5061094d60048036038101906109489190614437565b612482565b60405161095a9190614a84565b60405180910390f35b34801561096f57600080fd5b5061098a600480360381019061098591906143a1565b6126a4565b005b6109a660048036038101906109a19190613fb8565b6126c2565b6040516109b39190614c41565b60405180910390f35b3480156109c857600080fd5b506109d16128cd565b6040516109de9190614a84565b60405180910390f35b3480156109f357600080fd5b50610a0e6004803603810190610a099190614025565b61295f565b604051610a1b9190614a69565b60405180910390f35b348015610a3057600080fd5b50610a4b6004803603810190610a469190613fb8565b61298e565b005b6000601060009054906101000a900473ffffffffffffffffffffffffffffffffffffffff1673ffffffffffffffffffffffffffffffffffffffff16638620265060115461eeee6040518363ffffffff1660e01b8152600401610ab0929190614c5c565b60206040518083038186803b158015610ac857600080fd5b505afa158015610adc573d6000803e3d6000fd5b505050506040513d601f19601f82011682018060405250810190610b00919061431a565b9050600073ffffffffffffffffffffffffffffffffffffffff168173ffffffffffffffffffffffffffffffffffffffff161415610b3d5750610d30565b60008173ffffffffffffffffffffffffffffffffffffffff1634631ebc263f60e01b6011543461eeee33600080600073ffffffffffffffffffffffffffffffffffffffff168c73ffffffffffffffffffffffffffffffffffffffff1614610c5357600e60009054906101000a900473ffffffffffffffffffffffffffffffffffffffff1673ffffffffffffffffffffffffffffffffffffffff16631328c0f68d6040518263ffffffff1660e01b8152600401610bf991906148b6565b60006040518083038186803b158015610c1157600080fd5b505afa158015610c25573d6000803e3d6000fd5b505050506040513d6000823e3d601f19601f82011682018060405250810190610c4e91906143ee565b610c64565b604051806020016040528060008152505b6000604051602401610c7d989796959493929190614c85565b604051602081830303815290604052907bffffffffffffffffffffffffffffffffffffffffffffffffffffffff19166020820180517bffffffffffffffffffffffffffffffffffffffffffffffffffffffff8381831617835250505050604051610ce79190614873565b60006040518083038185875af1925050503d8060008114610d24576040519150601f19603f3d011682016040523d82523d6000602084013e610d29565b606091505b5050905050505b50565b60007f2a55205a000000000000000000000000000000000000000000000000000000007bffffffffffffffffffffffffffffffffffffffffffffffffffffffff1916827bffffffffffffffffffffffffffffffffffffffffffffffffffffffff19161480610da65750610da582612a12565b5b9050919050565b60006002600b541415610df5576040517f08c379a0000000000000000000000000000000000000000000000000000000008152600401610dec90614be6565b60405180910390fd5b6002600b8190555033610e0661207f565b73ffffffffffffffffffffffffffffffffffffffff168173ffffffffffffffffffffffffffffffffffffffff1614158015610e8b5750600f60008273ffffffffffffffffffffffffffffffffffffffff1673ffffffffffffffffffffffffffffffffffffffff16815260200190815260200160002060009054906101000a900460ff16155b15610ec2576040517f7d05041300000000000000000000000000000000000000000000000000000000815260040160405180910390fd5b610ecc8484612a8c565b9150506001600b8190555092915050565b60136020528060005260406000206000915090505481565b60008054610f0290615019565b80601f0160208091040260200160405190810160405280929190818152602001828054610f2e90615019565b8015610f7b5780601f10610f5057610100808354040283529160200191610f7b565b820191906000526020600020905b815481529060010190602001808311610f5e57829003601f168201915b505050505081565b60046020528060005260406000206000915054906101000a900473ffffffffffffffffffffffffffffffffffffffff1681565b60006002600083815260200190815260200160002060009054906101000a900473ffffffffffffffffffffffffffffffffffffffff1690508073ffffffffffffffffffffffffffffffffffffffff163373ffffffffffffffffffffffffffffffffffffffff1614806110ae5750600560008273ffffffffffffffffffffffffffffffffffffffff1673ffffffffffffffffffffffffffffffffffffffff16815260200190815260200160002060003373ffffffffffffffffffffffffffffffffffffffff1673ffffffffffffffffffffffffffffffffffffffff16815260200190815260200160002060009054906101000a900460ff165b6110ed576040517f08c379a00000000000000000000000000000000000000000000000000000000081526004016110e490614ba6565b60405180910390fd5b826004600084815260200190815260200160002060006101000a81548173ffffffffffffffffffffffffffffffffffffffff021916908373ffffffffffffffffffffffffffffffffffffffff160217905550818373ffffffffffffffffffffffffffffffffffffffff168273ffffffffffffffffffffffffffffffffffffffff167f8c5be1e5ebec7d5bd14f71427d1e84f3dd0314c0f7b2291e5b200ac8c7c3b92560405160405180910390a4505050565b6111a7612bcf565b81601560006101000a81548173ffffffffffffffffffffffffffffffffffffffff021916908373ffffffffffffffffffffffffffffffffffffffff1602179055506127108161ffff161115611228576040517f1db2f87000000000000000000000000000000000000000000000000000000000815260040160405180910390fd5b6000601560149054906101000a900461ffff1661ffff1614156112635780601560146101000a81548161ffff021916908361ffff1602179055505b5050565b61126f612bcf565b8273ffffffffffffffffffffffffffffffffffffffff1663a9059cbb83836040518363ffffffff1660e01b81526004016112aa9291906149c2565b602060405180830381600087803b1580156112c457600080fd5b505af11580156112d8573d6000803e3d6000fd5b505050506040513d601f19601f820116820180604052508101906112fc9190614200565b50505050565b60006002600b54141561134a576040517f08c379a000000000000000000000000000000000000000000000000000000000815260040161134190614be6565b60405180910390fd5b6002600b81905550600073ffffffffffffffffffffffffffffffffffffffff16600d60009054906101000a900473ffffffffffffffffffffffffffffffffffffffff1673ffffffffffffffffffffffffffffffffffffffff1614156113db576040517fc1b9a99e00000000000000000000000000000000000000000000000000000000815260040160405180910390fd5b600d60009054906101000a900473ffffffffffffffffffffffffffffffffffffffff1673ffffffffffffffffffffffffffffffffffffffff1663fa8038a333600061142461150b565b3360405160200161143692919061488a565b6040516020818303038152906040526040518463ffffffff1660e01b815260040161146393929190614984565b60206040518083038186803b15801561147b57600080fd5b505afa15801561148f573d6000803e3d6000fd5b505050506040513d601f19601f820116820180604052508101906114b39190614464565b34146114eb576040517f2656d32500000000000000000000000000000000000000000000000000000000815260040160405180910390fd5b6114f433610a4d565b6114fe3333612a8c565b90506001600b8190555090565b6000600880549050905090565b60146020528060005260406000206000915054906101000a900473ffffffffffffffffffffffffffffffffffffffff1681565b60006002600b541415611593576040517f08c379a000000000000000000000000000000000000000000000000000000000815260040161158a90614be6565b60405180910390fd5b6002600b81905550600073ffffffffffffffffffffffffffffffffffffffff16600d60009054906101000a900473ffffffffffffffffffffffffffffffffffffffff1673ffffffffffffffffffffffffffffffffffffffff161415611624576040517fc1b9a99e00000000000000000000000000000000000000000000000000000000815260040160405180910390fd5b600d60009054906101000a900473ffffffffffffffffffffffffffffffffffffffff1673ffffffffffffffffffffffffffffffffffffffff1663fa8038a3338786866040518563ffffffff1660e01b815260040161168594939291906149eb565b60206040518083038186803b15801561169d57600080fd5b505afa1580156116b1573d6000803e3d6000fd5b505050506040513d601f19601f820116820180604052508101906116d59190614464565b341461170d576040517f2656d32500000000000000000000000000000000000000000000000000000000815260040160405180910390fd5b61171684610a4d565b6117203385612a8c565b90506001600b81905550949350505050565b61173d838383612c4d565b611748838383612d56565b505050565b611755612bcf565b80600e60006101000a81548173ffffffffffffffffffffffffffffffffffffffff021916908373ffffffffffffffffffffffffffffffffffffffff16021790555050565b600080600083148061180a5750600073ffffffffffffffffffffffffffffffffffffffff166002600086815260200190815260200160002060009054906101000a900473ffffffffffffffffffffffffffffffffffffffff1673ffffffffffffffffffffffffffffffffffffffff16145b1561181c5760009150600090506118ce565b600073ffffffffffffffffffffffffffffffffffffffff16601560009054906101000a900473ffffffffffffffffffffffffffffffffffffffff1673ffffffffffffffffffffffffffffffffffffffff161461189a57601560009054906101000a900473ffffffffffffffffffffffffffffffffffffffff1661189c565b305b9150612710601560149054906101000a900461ffff1661ffff16846118c19190614e2a565b6118cb9190614df9565b90505b9250929050565b6000600360008473ffffffffffffffffffffffffffffffffffffffff1673ffffffffffffffffffffffffffffffffffffffff168152602001908152602001600020548210611958576040517f08c379a000000000000000000000000000000000000000000000000000000000815260040161194f90614aa6565b60405180910390fd5b600660008473ffffffffffffffffffffffffffffffffffffffff1673ffffffffffffffffffffffffffffffffffffffff168152602001908152602001600020600083815260200190815260200160002054905092915050565b6119b9612bcf565b6000600f60008373ffffffffffffffffffffffffffffffffffffffff1673ffffffffffffffffffffffffffffffffffffffff16815260200190815260200160002060006101000a81548160ff02191690831515021790555050565b611a1c612bcf565b80600d60006101000a81548173ffffffffffffffffffffffffffffffffffffffff021916908373ffffffffffffffffffffffffffffffffffffffff16021790555050565b611a6b838383612c4d565b611a76838383613156565b505050565b611a83612bcf565b6001600f60008373ffffffffffffffffffffffffffffffffffffffff1673ffffffffffffffffffffffffffffffffffffffff16815260200190815260200160002060006101000a81548160ff02191690831515021790555050565b6000611ae861150b565b8210611b29576040517f08c379a0000000000000000000000000000000000000000000000000000000008152600401611b2090614b66565b60405180910390fd5b60088281548110611b3d57611b3c615166565b5b90600052602060002001549050919050565b611b57612bcf565b600073ffffffffffffffffffffffffffffffffffffffff168273ffffffffffffffffffffffffffffffffffffffff161415611bbe576040517f5963709b00000000000000000000000000000000000000000000000000000000815260040160405180910390fd5b6000811480611be357503073ffffffffffffffffffffffffffffffffffffffff163181115b15611c1a576040517ffae8279100000000000000000000000000000000000000000000000000000000815260040160405180910390fd5b8173ffffffffffffffffffffffffffffffffffffffff166108fc829081150290604051600060405180830381858888f19350505050158015611c60573d6000803e3d6000fd5b505050565b6000601360003373ffffffffffffffffffffffffffffffffffffffff1673ffffffffffffffffffffffffffffffffffffffff1681526020019081526020016000205490506000811415611ce4576040517fd0995cf200000000000000000000000000000000000000000000000000000000815260040160405180910390fd5b6000611cef82611eb3565b90503373ffffffffffffffffffffffffffffffffffffffff168173ffffffffffffffffffffffffffffffffffffffff161415611d57576040517fc1b9a99e00000000000000000000000000000000000000000000000000000000815260040160405180910390fd5b600d60009054906101000a900473ffffffffffffffffffffffffffffffffffffffff1673ffffffffffffffffffffffffffffffffffffffff1663fa8038a33384611d9f61150b565b33604051602001611db192919061488a565b6040516020818303038152906040526040518463ffffffff1660e01b8152600401611dde93929190614a2b565b60206040518083038186803b158015611df657600080fd5b505afa158015611e0a573d6000803e3d6000fd5b505050506040513d601f19601f82011682018060405250810190611e2e9190614464565b3414611e66576040517f2656d32500000000000000000000000000000000000000000000000000000000815260040160405180910390fd5b8073ffffffffffffffffffffffffffffffffffffffff166108fc349081150290604051600060405180830381858888f19350505050611ea457600080fd5b611eaf81338461329d565b5090565b60008073ffffffffffffffffffffffffffffffffffffffff166002600084815260200190815260200160002060009054906101000a900473ffffffffffffffffffffffffffffffffffffffff1691508173ffffffffffffffffffffffffffffffffffffffff161415611f5a576040517f08c379a0000000000000000000000000000000000000000000000000000000008152600401611f5190614bc6565b60405180910390fd5b919050565b60008073ffffffffffffffffffffffffffffffffffffffff168273ffffffffffffffffffffffffffffffffffffffff161415611fd0576040517f08c379a0000000000000000000000000000000000000000000000000000000008152600401611fc790614b06565b60405180910390fd5b600360008373ffffffffffffffffffffffffffffffffffffffff1673ffffffffffffffffffffffffffffffffffffffff168152602001908152602001600020549050919050565b61201f612bcf565b612029600061349f565b565b612033612bcf565b81601060006101000a81548173ffffffffffffffffffffffffffffffffffffffff021916908373ffffffffffffffffffffffffffffffffffffffff160217905550806011819055505050565b6000600a60009054906101000a900473ffffffffffffffffffffffffffffffffffffffff16905090565b600180546120b690615019565b80601f01602080910402602001604051908101604052809291908181526020018280546120e290615019565b801561212f5780601f106121045761010080835404028352916020019161212f565b820191906000526020600020905b81548152906001019060200180831161211257829003601f168201915b505050505081565b600c805461214490615019565b80601f016020809104026020016040519081016040528092919081815260200182805461217090615019565b80156121bd5780601f10612192576101008083540402835291602001916121bd565b820191906000526020600020905b8154815290600101906020018083116121a057829003601f168201915b505050505081565b601560009054906101000a900473ffffffffffffffffffffffffffffffffffffffff1681565b80600560003373ffffffffffffffffffffffffffffffffffffffff1673ffffffffffffffffffffffffffffffffffffffff16815260200190815260200160002060008473ffffffffffffffffffffffffffffffffffffffff1673ffffffffffffffffffffffffffffffffffffffff16815260200190815260200160002060006101000a81548160ff0219169083151502179055508173ffffffffffffffffffffffffffffffffffffffff163373ffffffffffffffffffffffffffffffffffffffff167f17307eab39ab6107e8899845ad3d59bd9653f200f220920489ca2b5937696c31836040516122dc9190614a69565b60405180910390a35050565b60008073ffffffffffffffffffffffffffffffffffffffff16600d60009054906101000a900473ffffffffffffffffffffffffffffffffffffffff1673ffffffffffffffffffffffffffffffffffffffff161415612372576040517fc1b9a99e00000000000000000000000000000000000000000000000000000000815260040160405180910390fd5b600d60009054906101000a900473ffffffffffffffffffffffffffffffffffffffff1673ffffffffffffffffffffffffffffffffffffffff1663fa8038a33360006123bb61150b565b336040516020016123cd92919061488a565b6040516020818303038152906040526040518463ffffffff1660e01b81526004016123fa93929190614984565b60206040518083038186803b15801561241257600080fd5b505afa158015612426573d6000803e3d6000fd5b505050506040513d601f19601f8201168201806040525081019061244a9190614464565b905090565b61245a858585612c4d565b6124678585858585613565565b5050505050565b601560149054906101000a900461ffff1681565b6060600073ffffffffffffffffffffffffffffffffffffffff166002600084815260200190815260200160002060009054906101000a900473ffffffffffffffffffffffffffffffffffffffff1673ffffffffffffffffffffffffffffffffffffffff1614156125035760405180602001604052806000815250905061269f565b600073ffffffffffffffffffffffffffffffffffffffff16600e60009054906101000a900473ffffffffffffffffffffffffffffffffffffffff1673ffffffffffffffffffffffffffffffffffffffff161461261057600e60009054906101000a900473ffffffffffffffffffffffffffffffffffffffff1673ffffffffffffffffffffffffffffffffffffffff16631675f455836040518263ffffffff1660e01b81526004016125b49190614c41565b60006040518083038186803b1580156125cc57600080fd5b505afa1580156125e0573d6000803e3d6000fd5b505050506040513d6000823e3d601f19601f8201168201806040525081019061260991906143ee565b905061269e565b600c805461261d90615019565b80601f016020809104026020016040519081016040528092919081815260200182805461264990615019565b80156126965780601f1061266b57610100808354040283529160200191612696565b820191906000526020600020905b81548152906001019060200180831161267957829003601f168201915b505050505090505b5b919050565b6126ac612bcf565b8181601291906126bd929190613cd3565b505050565b60006002600b54141561270a576040517f08c379a000000000000000000000000000000000000000000000000000000000815260040161270190614be6565b60405180910390fd5b6002600b81905550600073ffffffffffffffffffffffffffffffffffffffff16600d60009054906101000a900473ffffffffffffffffffffffffffffffffffffffff1673ffffffffffffffffffffffffffffffffffffffff16141561279b576040517fc1b9a99e00000000000000000000000000000000000000000000000000000000815260040160405180910390fd5b600d60009054906101000a900473ffffffffffffffffffffffffffffffffffffffff1673ffffffffffffffffffffffffffffffffffffffff1663fa8038a33360006127e461150b565b866040516020016127f692919061488a565b6040516020818303038152906040526040518463ffffffff1660e01b815260040161282393929190614984565b60206040518083038186803b15801561283b57600080fd5b505afa15801561284f573d6000803e3d6000fd5b505050506040513d601f19601f820116820180604052508101906128739190614464565b34146128ab576040517f2656d32500000000000000000000000000000000000000000000000000000000815260040160405180910390fd5b6128b482610a4d565b6128be3383612a8c565b90506001600b81905550919050565b6060601280546128dc90615019565b80601f016020809104026020016040519081016040528092919081815260200182805461290890615019565b80156129555780601f1061292a57610100808354040283529160200191612955565b820191906000526020600020905b81548152906001019060200180831161293857829003601f168201915b5050505050905090565b60056020528160005260406000206020528060005260406000206000915091509054906101000a900460ff1681565b612996612bcf565b600073ffffffffffffffffffffffffffffffffffffffff168173ffffffffffffffffffffffffffffffffffffffff161415612a06576040517f08c379a00000000000000000000000000000000000000000000000000000000081526004016129fd90614ac6565b60405180910390fd5b612a0f8161349f565b50565b60007f780e9d63000000000000000000000000000000000000000000000000000000007bffffffffffffffffffffffffffffffffffffffffffffffffffffffff1916827bffffffffffffffffffffffffffffffffffffffffffffffffffffffff19161480612a855750612a84826136b2565b5b9050919050565b60006001612a9861150b565b612aa29190614da3565b90506000601360008473ffffffffffffffffffffffffffffffffffffffff1673ffffffffffffffffffffffffffffffffffffffff1681526020019081526020016000205414612b1d576040517fdfa4c0d500000000000000000000000000000000000000000000000000000000815260040160405180910390fd5b816014600083815260200190815260200160002060006101000a81548173ffffffffffffffffffffffffffffffffffffffff021916908373ffffffffffffffffffffffffffffffffffffffff16021790555080601360008473ffffffffffffffffffffffffffffffffffffffff1673ffffffffffffffffffffffffffffffffffffffff16815260200190815260200160002081905550612bbf60008483612c4d565b612bc98382613744565b92915050565b612bd7613957565b73ffffffffffffffffffffffffffffffffffffffff16612bf561207f565b73ffffffffffffffffffffffffffffffffffffffff1614612c4b576040517f08c379a0000000000000000000000000000000000000000000000000000000008152600401612c4290614b46565b60405180910390fd5b565b600073ffffffffffffffffffffffffffffffffffffffff168373ffffffffffffffffffffffffffffffffffffffff161415612c9057612c8b8161395f565b612ccf565b8173ffffffffffffffffffffffffffffffffffffffff168373ffffffffffffffffffffffffffffffffffffffff1614612cce57612ccd83826139a8565b5b5b600073ffffffffffffffffffffffffffffffffffffffff168273ffffffffffffffffffffffffffffffffffffffff161415612d1257612d0d81613b4c565b612d51565b8273ffffffffffffffffffffffffffffffffffffffff168273ffffffffffffffffffffffffffffffffffffffff1614612d5057612d4f8282613c1d565b5b5b505050565b6002600082815260200190815260200160002060009054906101000a900473ffffffffffffffffffffffffffffffffffffffff1673ffffffffffffffffffffffffffffffffffffffff168373ffffffffffffffffffffffffffffffffffffffff1614612df7576040517f08c379a0000000000000000000000000000000000000000000000000000000008152600401612dee90614c06565b60405180910390fd5b600073ffffffffffffffffffffffffffffffffffffffff168273ffffffffffffffffffffffffffffffffffffffff161415612e67576040517f08c379a0000000000000000000000000000000000000000000000000000000008152600401612e5e90614ae6565b60405180910390fd5b8273ffffffffffffffffffffffffffffffffffffffff163373ffffffffffffffffffffffffffffffffffffffff161480612f275750600560008473ffffffffffffffffffffffffffffffffffffffff1673ffffffffffffffffffffffffffffffffffffffff16815260200190815260200160002060003373ffffffffffffffffffffffffffffffffffffffff1673ffffffffffffffffffffffffffffffffffffffff16815260200190815260200160002060009054906101000a900460ff165b80612f9057506004600082815260200190815260200160002060009054906101000a900473ffffffffffffffffffffffffffffffffffffffff1673ffffffffffffffffffffffffffffffffffffffff163373ffffffffffffffffffffffffffffffffffffffff16145b612fcf576040517f08c379a0000000000000000000000000000000000000000000000000000000008152600401612fc690614ba6565b60405180910390fd5b600360008473ffffffffffffffffffffffffffffffffffffffff1673ffffffffffffffffffffffffffffffffffffffff1681526020019081526020016000206000815480929190600190039190505550600360008373ffffffffffffffffffffffffffffffffffffffff1673ffffffffffffffffffffffffffffffffffffffff16815260200190815260200160002060008154809291906001019190505550816002600083815260200190815260200160002060006101000a81548173ffffffffffffffffffffffffffffffffffffffff021916908373ffffffffffffffffffffffffffffffffffffffff1602179055506004600082815260200190815260200160002060006101000a81549073ffffffffffffffffffffffffffffffffffffffff0219169055808273ffffffffffffffffffffffffffffffffffffffff168473ffffffffffffffffffffffffffffffffffffffff167fddf252ad1be2c89b69c2b068fc378daa952ba7f163c4a11628f55a4df523b3ef60405160405180910390a4505050565b613161838383611732565b60008273ffffffffffffffffffffffffffffffffffffffff163b1480613259575063150b7a0260e01b7bffffffffffffffffffffffffffffffffffffffffffffffffffffffff19168273ffffffffffffffffffffffffffffffffffffffff1663150b7a023386856040518463ffffffff1660e01b81526004016131e69392919061493a565b602060405180830381600087803b15801561320057600080fd5b505af1158015613214573d6000803e3d6000fd5b505050506040513d601f19601f82011682018060405250810190613238919061425a565b7bffffffffffffffffffffffffffffffffffffffffffffffffffffffff1916145b613298576040517f08c379a000000000000000000000000000000000000000000000000000000000815260040161328f90614b26565b60405180910390fd5b505050565b600073ffffffffffffffffffffffffffffffffffffffff168273ffffffffffffffffffffffffffffffffffffffff16141561330d576040517f08c379a000000000000000000000000000000000000000000000000000000000815260040161330490614ae6565b60405180910390fd5b613318838383612c4d565b600360008473ffffffffffffffffffffffffffffffffffffffff1673ffffffffffffffffffffffffffffffffffffffff1681526020019081526020016000206000815480929190600190039190505550600360008373ffffffffffffffffffffffffffffffffffffffff1673ffffffffffffffffffffffffffffffffffffffff16815260200190815260200160002060008154809291906001019190505550816002600083815260200190815260200160002060006101000a81548173ffffffffffffffffffffffffffffffffffffffff021916908373ffffffffffffffffffffffffffffffffffffffff1602179055506004600082815260200190815260200160002060006101000a81549073ffffffffffffffffffffffffffffffffffffffff0219169055808273ffffffffffffffffffffffffffffffffffffffff168473ffffffffffffffffffffffffffffffffffffffff167fddf252ad1be2c89b69c2b068fc378daa952ba7f163c4a11628f55a4df523b3ef60405160405180910390a4505050565b6000600a60009054906101000a900473ffffffffffffffffffffffffffffffffffffffff16905081600a60006101000a81548173ffffffffffffffffffffffffffffffffffffffff021916908373ffffffffffffffffffffffffffffffffffffffff1602179055508173ffffffffffffffffffffffffffffffffffffffff168173ffffffffffffffffffffffffffffffffffffffff167f8be0079c531659141344cd1fd0a4f28419497f9722a3daafe3b4186f6b6457e060405160405180910390a35050565b613570858585611732565b60008473ffffffffffffffffffffffffffffffffffffffff163b148061366c575063150b7a0260e01b7bffffffffffffffffffffffffffffffffffffffffffffffffffffffff19168473ffffffffffffffffffffffffffffffffffffffff1663150b7a0233888787876040518663ffffffff1660e01b81526004016135f99594939291906148ec565b602060405180830381600087803b15801561361357600080fd5b505af1158015613627573d6000803e3d6000fd5b505050506040513d601f19601f8201168201806040525081019061364b919061425a565b7bffffffffffffffffffffffffffffffffffffffffffffffffffffffff1916145b6136ab576040517f08c379a00000000000000000000000000000000000000000000000000000000081526004016136a290614b26565b60405180910390fd5b5050505050565b60006301ffc9a760e01b827bffffffffffffffffffffffffffffffffffffffffffffffffffffffff1916148061370d57506380ac58cd60e01b827bffffffffffffffffffffffffffffffffffffffffffffffffffffffff1916145b8061373d5750635b5e139f60e01b827bffffffffffffffffffffffffffffffffffffffffffffffffffffffff1916145b9050919050565b600073ffffffffffffffffffffffffffffffffffffffff168273ffffffffffffffffffffffffffffffffffffffff1614156137b4576040517f08c379a00000000000000000000000000000000000000000000000000000000081526004016137ab90614ae6565b60405180910390fd5b600073ffffffffffffffffffffffffffffffffffffffff166002600083815260200190815260200160002060009054906101000a900473ffffffffffffffffffffffffffffffffffffffff1673ffffffffffffffffffffffffffffffffffffffff1614613856576040517f08c379a000000000000000000000000000000000000000000000000000000000815260040161384d90614b86565b60405180910390fd5b600360008373ffffffffffffffffffffffffffffffffffffffff1673ffffffffffffffffffffffffffffffffffffffff16815260200190815260200160002060008154809291906001019190505550816002600083815260200190815260200160002060006101000a81548173ffffffffffffffffffffffffffffffffffffffff021916908373ffffffffffffffffffffffffffffffffffffffff160217905550808273ffffffffffffffffffffffffffffffffffffffff16600073ffffffffffffffffffffffffffffffffffffffff167fddf252ad1be2c89b69c2b068fc378daa952ba7f163c4a11628f55a4df523b3ef60405160405180910390a45050565b600033905090565b6008805490506009600083815260200190815260200160002081905550600881908060018154018082558091505060019003906000526020600020016000909190919091505550565b60006001600360008573ffffffffffffffffffffffffffffffffffffffff1673ffffffffffffffffffffffffffffffffffffffff168152602001908152602001600020546139f69190614e84565b9050600060076000848152602001908152602001600020549050818114613adb576000600660008673ffffffffffffffffffffffffffffffffffffffff1673ffffffffffffffffffffffffffffffffffffffff168152602001908152602001600020600084815260200190815260200160002054905080600660008773ffffffffffffffffffffffffffffffffffffffff1673ffffffffffffffffffffffffffffffffffffffff168152602001908152602001600020600084815260200190815260200160002081905550816007600083815260200190815260200160002081905550505b6007600084815260200190815260200160002060009055600660008573ffffffffffffffffffffffffffffffffffffffff1673ffffffffffffffffffffffffffffffffffffffff16815260200190815260200160002060008381526020019081526020016000206000905550505050565b60006001600880549050613b609190614e84565b9050600060096000848152602001908152602001600020549050600060088381548110613b9057613b8f615166565b5b906000526020600020015490508060088381548110613bb257613bb1615166565b5b906000526020600020018190555081600960008381526020019081526020016000208190555060096000858152602001908152602001600020600090556008805480613c0157613c00615137565b5b6001900381819060005260206000200160009055905550505050565b6000600360008473ffffffffffffffffffffffffffffffffffffffff1673ffffffffffffffffffffffffffffffffffffffff16815260200190815260200160002054905081600660008573ffffffffffffffffffffffffffffffffffffffff1673ffffffffffffffffffffffffffffffffffffffff168152602001908152602001600020600083815260200190815260200160002081905550806007600084815260200190815260200160002081905550505050565b828054613cdf90615019565b90600052602060002090601f016020900481019282613d015760008555613d48565b82601f10613d1a57803560ff1916838001178555613d48565b82800160010185558215613d48579182015b82811115613d47578235825591602001919060010190613d2c565b5b509050613d559190613d59565b5090565b5b80821115613d72576000816000905550600101613d5a565b5090565b6000613d89613d8484614d2f565b614d0a565b905082815260208101848484011115613da557613da46151d3565b5b613db0848285614fe6565b509392505050565b600081359050613dc781615461565b92915050565b600081359050613ddc81615478565b92915050565b600081359050613df18161548f565b92915050565b600081519050613e068161548f565b92915050565b600081359050613e1b816154a6565b92915050565b600081519050613e30816154a6565b92915050565b60008083601f840112613e4c57613e4b6151c9565b5b8235905067ffffffffffffffff811115613e6957613e686151c4565b5b602083019150836001820283011115613e8557613e846151ce565b5b9250929050565b600081359050613e9b816154bd565b92915050565b600081359050613eb0816154d4565b92915050565b600081519050613ec5816154eb565b92915050565b600081359050613eda81615502565b92915050565b600081359050613eef81615519565b92915050565b60008083601f840112613f0b57613f0a6151c9565b5b8235905067ffffffffffffffff811115613f2857613f276151c4565b5b602083019150836001820283011115613f4457613f436151ce565b5b9250929050565b600082601f830112613f6057613f5f6151c9565b5b8151613f70848260208601613d76565b91505092915050565b600081359050613f8881615530565b92915050565b600081359050613f9d81615547565b92915050565b600081519050613fb281615547565b92915050565b600060208284031215613fce57613fcd6151dd565b5b6000613fdc84828501613db8565b91505092915050565b60008060408385031215613ffc57613ffb6151dd565b5b600061400a85828601613dcd565b925050602061401b85828601613f8e565b9150509250929050565b6000806040838503121561403c5761403b6151dd565b5b600061404a85828601613db8565b925050602061405b85828601613db8565b9150509250929050565b60008060006060848603121561407e5761407d6151dd565b5b600061408c86828701613db8565b935050602061409d86828701613db8565b92505060406140ae86828701613f8e565b9150509250925092565b6000806000806000608086880312156140d4576140d36151dd565b5b60006140e288828901613db8565b95505060206140f388828901613db8565b945050604061410488828901613f8e565b935050606086013567ffffffffffffffff811115614125576141246151d8565b5b61413188828901613e36565b92509250509295509295909350565b60008060408385031215614157576141566151dd565b5b600061416585828601613db8565b925050602061417685828601613de2565b9150509250929050565b60008060408385031215614197576141966151dd565b5b60006141a585828601613db8565b92505060206141b685828601613f79565b9150509250929050565b600080604083850312156141d7576141d66151dd565b5b60006141e585828601613db8565b92505060206141f685828601613f8e565b9150509250929050565b600060208284031215614216576142156151dd565b5b600061422484828501613df7565b91505092915050565b600060208284031215614243576142426151dd565b5b600061425184828501613e0c565b91505092915050565b6000602082840312156142705761426f6151dd565b5b600061427e84828501613e21565b91505092915050565b6000806000606084860312156142a05761429f6151dd565b5b60006142ae86828701613e8c565b93505060206142bf86828701613db8565b92505060406142d086828701613f8e565b9150509250925092565b600080604083850312156142f1576142f06151dd565b5b60006142ff85828601613ea1565b925050602061431085828601613f8e565b9150509250929050565b6000602082840312156143305761432f6151dd565b5b600061433e84828501613eb6565b91505092915050565b60006020828403121561435d5761435c6151dd565b5b600061436b84828501613ecb565b91505092915050565b60006020828403121561438a576143896151dd565b5b600061439884828501613ee0565b91505092915050565b600080602083850312156143b8576143b76151dd565b5b600083013567ffffffffffffffff8111156143d6576143d56151d8565b5b6143e285828601613ef5565b92509250509250929050565b600060208284031215614404576144036151dd565b5b600082015167ffffffffffffffff811115614422576144216151d8565b5b61442e84828501613f4b565b91505092915050565b60006020828403121561444d5761444c6151dd565b5b600061445b84828501613f8e565b91505092915050565b60006020828403121561447a576144796151dd565b5b600061448884828501613fa3565b91505092915050565b600080600080606085870312156144ab576144aa6151dd565b5b60006144b987828801613f8e565b94505060206144ca87828801613db8565b935050604085013567ffffffffffffffff8111156144eb576144ea6151d8565b5b6144f787828801613e36565b925092505092959194509250565b6000806040838503121561451c5761451b6151dd565b5b600061452a85828601613f8e565b925050602061453b85828601613f8e565b9150509250929050565b61454e81614eca565b82525050565b61455d81614eb8565b82525050565b61457461456f82614eb8565b61507c565b82525050565b61458381614edc565b82525050565b60006145958385614d76565b93506145a2838584614fd7565b6145ab836151e2565b840190509392505050565b60006145c182614d60565b6145cb8185614d76565b93506145db818560208601614fe6565b6145e4816151e2565b840191505092915050565b60006145fa82614d60565b6146048185614d87565b9350614614818560208601614fe6565b80840191505092915050565b61462981614fb3565b82525050565b61463881614fc5565b82525050565b600061464982614d6b565b6146538185614d92565b9350614663818560208601614fe6565b61466c816151e2565b840191505092915050565b6000614684602b83614d92565b915061468f82615200565b604082019050919050565b60006146a7602683614d92565b91506146b28261524f565b604082019050919050565b60006146ca601183614d92565b91506146d58261529e565b602082019050919050565b60006146ed600c83614d92565b91506146f8826152c7565b602082019050919050565b6000614710601083614d92565b915061471b826152f0565b602082019050919050565b6000614733602083614d92565b915061473e82615319565b602082019050919050565b6000614756600083614d76565b915061476182615342565b600082019050919050565b6000614779602c83614d92565b915061478482615345565b604082019050919050565b600061479c600e83614d92565b91506147a782615394565b602082019050919050565b60006147bf600e83614d92565b91506147ca826153bd565b602082019050919050565b60006147e2600a83614d92565b91506147ed826153e6565b602082019050919050565b6000614805601f83614d92565b91506148108261540f565b602082019050919050565b6000614828600a83614d92565b915061483382615438565b602082019050919050565b61484781614f6e565b82525050565b61485681614f9c565b82525050565b61486d61486882614f9c565b6150a0565b82525050565b600061487f82846145ef565b915081905092915050565b6000614896828561485c565b6020820191506148a68284614563565b6014820191508190509392505050565b60006020820190506148cb6000830184614554565b92915050565b60006020820190506148e66000830184614545565b92915050565b60006080820190506149016000830188614554565b61490e6020830187614554565b61491b604083018661484d565b818103606083015261492e818486614589565b90509695505050505050565b600060808201905061494f6000830186614554565b61495c6020830185614554565b614969604083018461484d565b818103606083015261497a81614749565b9050949350505050565b60006060820190506149996000830186614554565b6149a66020830185614620565b81810360408301526149b881846145b6565b9050949350505050565b60006040820190506149d76000830185614554565b6149e4602083018461484d565b9392505050565b6000606082019050614a006000830187614554565b614a0d602083018661484d565b8181036040830152614a20818486614589565b905095945050505050565b6000606082019050614a406000830186614554565b614a4d602083018561484d565b8181036040830152614a5f81846145b6565b9050949350505050565b6000602082019050614a7e600083018461457a565b92915050565b60006020820190508181036000830152614a9e818461463e565b905092915050565b60006020820190508181036000830152614abf81614677565b9050919050565b60006020820190508181036000830152614adf8161469a565b9050919050565b60006020820190508181036000830152614aff816146bd565b9050919050565b60006020820190508181036000830152614b1f816146e0565b9050919050565b60006020820190508181036000830152614b3f81614703565b9050919050565b60006020820190508181036000830152614b5f81614726565b9050919050565b60006020820190508181036000830152614b7f8161476c565b9050919050565b60006020820190508181036000830152614b9f8161478f565b9050919050565b60006020820190508181036000830152614bbf816147b2565b9050919050565b60006020820190508181036000830152614bdf816147d5565b9050919050565b60006020820190508181036000830152614bff816147f8565b9050919050565b60006020820190508181036000830152614c1f8161481b565b9050919050565b6000602082019050614c3b600083018461483e565b92915050565b6000602082019050614c56600083018461484d565b92915050565b6000604082019050614c71600083018561484d565b614c7e6020830184614554565b9392505050565b600061010082019050614c9b600083018b61484d565b614ca8602083018a61484d565b614cb56040830189614554565b614cc26060830188614554565b614ccf608083018761462f565b614cdc60a083018661457a565b81810360c0830152614cee818561463e565b9050614cfd60e083018461462f565b9998505050505050505050565b6000614d14614d25565b9050614d20828261504b565b919050565b6000604051905090565b600067ffffffffffffffff821115614d4a57614d49615195565b5b614d53826151e2565b9050602081019050919050565b600081519050919050565b600081519050919050565b600082825260208201905092915050565b600081905092915050565b600082825260208201905092915050565b6000614dae82614f9c565b9150614db983614f9c565b9250827fffffffffffffffffffffffffffffffffffffffffffffffffffffffffffffffff03821115614dee57614ded6150aa565b5b828201905092915050565b6000614e0482614f9c565b9150614e0f83614f9c565b925082614e1f57614e1e6150d9565b5b828204905092915050565b6000614e3582614f9c565b9150614e4083614f9c565b9250817fffffffffffffffffffffffffffffffffffffffffffffffffffffffffffffffff0483118215151615614e7957614e786150aa565b5b828202905092915050565b6000614e8f82614f9c565b9150614e9a83614f9c565b925082821015614ead57614eac6150aa565b5b828203905092915050565b6000614ec382614f7c565b9050919050565b6000614ed582614f7c565b9050919050565b60008115159050919050565b60007fffffffff0000000000000000000000000000000000000000000000000000000082169050919050565b6000614f1f82614eb8565b9050919050565b6000614f3182614eb8565b9050919050565b6000614f4382614eb8565b9050919050565b6000614f5582614eb8565b9050919050565b6000614f6782614eb8565b9050919050565b600061ffff82169050919050565b600073ffffffffffffffffffffffffffffffffffffffff82169050919050565b6000819050919050565b600060ff82169050919050565b6000614fbe82614f9c565b9050919050565b6000614fd082614fa6565b9050919050565b82818337600083830152505050565b60005b83811015615004578082015181840152602081019050614fe9565b83811115615013576000848401525b50505050565b6000600282049050600182168061503157607f821691505b6020821081141561504557615044615108565b5b50919050565b615054826151e2565b810181811067ffffffffffffffff8211171561507357615072615195565b5b80604052505050565b60006150878261508e565b9050919050565b6000615099826151f3565b9050919050565b6000819050919050565b7f4e487b7100000000000000000000000000000000000000000000000000000000600052601160045260246000fd5b7f4e487b7100000000000000000000000000000000000000000000000000000000600052601260045260246000fd5b7f4e487b7100000000000000000000000000000000000000000000000000000000600052602260045260246000fd5b7f4e487b7100000000000000000000000000000000000000000000000000000000600052603160045260246000fd5b7f4e487b7100000000000000000000000000000000000000000000000000000000600052603260045260246000fd5b7f4e487b7100000000000000000000000000000000000000000000000000000000600052604160045260246000fd5b600080fd5b600080fd5b600080fd5b600080fd5b600080fd5b600080fd5b6000601f19601f8301169050919050565b60008160601b9050919050565b7f455243373231456e756d657261626c653a206f776e657220696e646578206f7560008201527f74206f6620626f756e6473000000000000000000000000000000000000000000602082015250565b7f4f776e61626c653a206e6577206f776e657220697320746865207a65726f206160008201527f6464726573730000000000000000000000000000000000000000000000000000602082015250565b7f494e56414c49445f524543495049454e54000000000000000000000000000000600082015250565b7f5a45524f5f414444524553530000000000000000000000000000000000000000600082015250565b7f554e534146455f524543495049454e5400000000000000000000000000000000600082015250565b7f4f776e61626c653a2063616c6c6572206973206e6f7420746865206f776e6572600082015250565b50565b7f455243373231456e756d657261626c653a20676c6f62616c20696e646578206f60008201527f7574206f6620626f756e64730000000000000000000000000000000000000000602082015250565b7f414c52454144595f4d494e544544000000000000000000000000000000000000600082015250565b7f4e4f545f415554484f52495a4544000000000000000000000000000000000000600082015250565b7f4e4f545f4d494e54454400000000000000000000000000000000000000000000600082015250565b7f5265656e7472616e637947756172643a207265656e7472616e742063616c6c00600082015250565b7f57524f4e475f46524f4d00000000000000000000000000000000000000000000600082015250565b61546a81614eb8565b811461547557600080fd5b50565b61548181614eca565b811461548c57600080fd5b50565b61549881614edc565b81146154a357600080fd5b50565b6154af81614ee8565b81146154ba57600080fd5b50565b6154c681614f14565b81146154d157600080fd5b50565b6154dd81614f26565b81146154e857600080fd5b50565b6154f481614f38565b81146154ff57600080fd5b50565b61550b81614f4a565b811461551657600080fd5b50565b61552281614f5c565b811461552d57600080fd5b50565b61553981614f6e565b811461554457600080fd5b50565b61555081614f9c565b811461555b57600080fd5b5056fea164736f6c6343000806000a",
  "linkReferences": {},
  "deployedLinkReferences": {}
}