{
  "_format": "hh-sol-artifact-1",
  "contractName": "LegacyOwnershipPriceResolver",
  "sourceName": "contracts/LegacyOwnershipPriceResolver.sol",
  "abi": [
    {
      "inputs": [
        {
          "internalType": "contract IOriginalInfiniteTiles",
          "name": "_legacyContract",
          "type": "address"
        },
        {
          "internalType": "uint256",
          "name": "_basePrice",
          "type": "uint256"
        },
        {
          "internalType": "uint256",
          "name": "_multiplier",
          "type": "uint256"
        },
        {
          "internalType": "uint256",
          "name": "_tierSize",
          "type": "uint256"
        },
        {
          "internalType": "uint256",
          "name": "_priceCap",
          "type": "uint256"
        },
        {
          "internalType": "enum SupplyPriceResolver.PriceFunction",
          "name": "_priceFunction",
          "type": "uint8"
        }
      ],
      "stateMutability": "nonpayable",
      "type": "constructor"
    },
    {
      "inputs": [],
      "name": "UNSUPPORTED_OPERATION",
      "type": "error"
    },
    {
      "inputs": [],
      "name": "getPrice",
      "outputs": [
        {
          "internalType": "uint256",
          "name": "",
          "type": "uint256"
        }
      ],
      "stateMutability": "view",
      "type": "function"
    },
    {
      "inputs": [
        {
          "internalType": "address",
          "name": "",
          "type": "address"
        }
      ],
      "name": "getPriceFor",
      "outputs": [
        {
          "internalType": "uint256",
          "name": "",
          "type": "uint256"
        }
      ],
      "stateMutability": "view",
      "type": "function"
    },
    {
      "inputs": [
        {
          "internalType": "uint256",
          "name": "",
          "type": "uint256"
        }
      ],
      "name": "getPriceOf",
      "outputs": [
        {
          "internalType": "uint256",
          "name": "",
          "type": "uint256"
        }
      ],
      "stateMutability": "view",
      "type": "function"
    },
    {
      "inputs": [
        {
          "internalType": "address",
          "name": "account",
          "type": "address"
        },
        {
          "internalType": "uint256",
          "name": "",
          "type": "uint256"
        },
        {
          "internalType": "bytes",
          "name": "params",
          "type": "bytes"
        }
      ],
      "name": "getPriceWithParams",
      "outputs": [
        {
          "internalType": "uint256",
          "name": "price",
          "type": "uint256"
        }
      ],
      "stateMutability": "view",
      "type": "function"
    }
  ],
  "bytecode": "0x6101406040523480156200001257600080fd5b506040516200105338038062001053833981810160405281019062000038919062000121565b848484848484608081815250508360a081815250508260c081815250508160e081815250508060018111156200007357620000726200020f565b5b6101008160018111156200008c576200008b6200020f565b5b60f81b8152505050505050508573ffffffffffffffffffffffffffffffffffffffff166101208173ffffffffffffffffffffffffffffffffffffffff1660601b8152505050505050505062000288565b600081519050620000ed8162000243565b92915050565b60008151905062000104816200025d565b92915050565b6000815190506200011b816200026e565b92915050565b60008060008060008060c087890312156200014157620001406200023e565b5b60006200015189828a01620000dc565b96505060206200016489828a016200010a565b95505060406200017789828a016200010a565b94505060606200018a89828a016200010a565b93505060806200019d89828a016200010a565b92505060a0620001b089828a01620000f3565b9150509295509295509295565b6000620001ca82620001e5565b9050919050565b6000620001de82620001bd565b9050919050565b600073ffffffffffffffffffffffffffffffffffffffff82169050919050565b6000819050919050565b7f4e487b7100000000000000000000000000000000000000000000000000000000600052602160045260246000fd5b600080fd5b6200024e81620001d1565b81146200025a57600080fd5b50565b600281106200026b57600080fd5b50565b620002798162000205565b81146200028557600080fd5b50565b60805160a05160c05160e0516101005160f81c6101205160601c610d4b62000308600039600081816101f301526102a0015260006104a00152600081816105e7015261060f0152600081816104fa015261058301526000818161052601526105af0152600081816104d901528181610562015261063c0152610d4b6000f3fe608060405234801561001057600080fd5b506004361061004c5760003560e01c80637d2b87c01461005157806398d5fdca14610081578063b54b4fb91461009f578063fa8038a3146100cf575b600080fd5b61006b600480360381019061006691906107a7565b6100ff565b6040516100789190610908565b60405180910390f35b610089610133565b6040516100969190610908565b60405180910390f35b6100b960048036038101906100b49190610875565b610167565b6040516100c69190610908565b60405180910390f35b6100e960048036038101906100e49190610801565b61019b565b6040516100f69190610908565b60405180910390f35b60006040517fc1b9a99e00000000000000000000000000000000000000000000000000000000815260040160405180910390fd5b60006040517fc1b9a99e00000000000000000000000000000000000000000000000000000000815260040160405180910390fd5b60006040517fc1b9a99e00000000000000000000000000000000000000000000000000000000815260040160405180910390fd5b6000806101ed84848080601f016020809104026020016040519081016040528093929190818152602001838380828437600081840152601f19601f8201169050808301925050505050505060206103a0565b905060007f000000000000000000000000000000000000000000000000000000000000000073ffffffffffffffffffffffffffffffffffffffff1663bc8c30c5836040518263ffffffff1660e01b815260040161024a91906108ed565b60206040518083038186803b15801561026257600080fd5b505afa158015610276573d6000803e3d6000fd5b505050506040513d601f19601f8201168201806040525081019061029a91906108a2565b905060007f000000000000000000000000000000000000000000000000000000000000000073ffffffffffffffffffffffffffffffffffffffff16636352211e836040518263ffffffff1660e01b81526004016102f79190610908565b60206040518083038186803b15801561030f57600080fd5b505afa158015610323573d6000803e3d6000fd5b505050506040513d601f19601f8201168201806040525081019061034791906107d4565b90508073ffffffffffffffffffffffffffffffffffffffff168873ffffffffffffffffffffffffffffffffffffffff1614610390576103898860008888610438565b9350610395565b600093505b505050949350505050565b60008060005b6014811015610426576008816103bc9190610b1b565b60ff60f81b8683876103ce9190610923565b815181106103df576103de610cbb565b5b602001015160f81c60f81b167effffffffffffffffffffffffffffffffffffffffffffffffffffffffffffff1916901c82179150808061041e90610be5565b9150506103a6565b50606081901c60001c91505092915050565b60008061048884848080601f016020809104026020016040519081016040528093929190818152602001838380828437600081840152601f19601f82011690508083019250505050505050610667565b90506000600181111561049e5761049d610c8c565b5b7f000000000000000000000000000000000000000000000000000000000000000060018111156104d1576104d0610c8c565b5b1415610560577f00000000000000000000000000000000000000000000000000000000000000007f0000000000000000000000000000000000000000000000000000000000000000826105249190610979565b7f000000000000000000000000000000000000000000000000000000000000000061054f9190610b1b565b6105599190610b1b565b91506105e5565b7f00000000000000000000000000000000000000000000000000000000000000007f0000000000000000000000000000000000000000000000000000000000000000826105ad9190610979565b7f00000000000000000000000000000000000000000000000000000000000000006105d891906109fd565b6105e29190610b1b565b91505b7f0000000000000000000000000000000000000000000000000000000000000000821115610631577f000000000000000000000000000000000000000000000000000000000000000091505b600082141561065e577f000000000000000000000000000000000000000000000000000000000000000091505b50949350505050565b600080600090505b60208110156106f7576001816106859190610923565b60206106919190610b75565b600861069d9190610b1b565b60026106a991906109fd565b8382815181106106bc576106bb610cbb565b5b602001015160f81c60f81b60f81c60ff166106d79190610b1b565b826106e29190610923565b915080806106ef90610be5565b91505061066f565b50919050565b60008135905061070c81610d10565b92915050565b60008151905061072181610d10565b92915050565b60008083601f84011261073d5761073c610cef565b5b8235905067ffffffffffffffff81111561075a57610759610cea565b5b60208301915083600182028301111561077657610775610cf4565b5b9250929050565b60008135905061078c81610d27565b92915050565b6000815190506107a181610d27565b92915050565b6000602082840312156107bd576107bc610cfe565b5b60006107cb848285016106fd565b91505092915050565b6000602082840312156107ea576107e9610cfe565b5b60006107f884828501610712565b91505092915050565b6000806000806060858703121561081b5761081a610cfe565b5b6000610829878288016106fd565b945050602061083a8782880161077d565b935050604085013567ffffffffffffffff81111561085b5761085a610cf9565b5b61086787828801610727565b925092505092959194509250565b60006020828403121561088b5761088a610cfe565b5b60006108998482850161077d565b91505092915050565b6000602082840312156108b8576108b7610cfe565b5b60006108c684828501610792565b91505092915050565b6108d881610ba9565b82525050565b6108e781610bdb565b82525050565b600060208201905061090260008301846108cf565b92915050565b600060208201905061091d60008301846108de565b92915050565b600061092e82610bdb565b915061093983610bdb565b9250827fffffffffffffffffffffffffffffffffffffffffffffffffffffffffffffffff0382111561096e5761096d610c2e565b5b828201905092915050565b600061098482610bdb565b915061098f83610bdb565b92508261099f5761099e610c5d565b5b828204905092915050565b6000808291508390505b60018511156109f4578086048111156109d0576109cf610c2e565b5b60018516156109df5780820291505b80810290506109ed85610d03565b94506109b4565b94509492505050565b6000610a0882610bdb565b9150610a1383610bdb565b9250610a407fffffffffffffffffffffffffffffffffffffffffffffffffffffffffffffffff8484610a48565b905092915050565b600082610a585760019050610b14565b81610a665760009050610b14565b8160018114610a7c5760028114610a8657610ab5565b6001915050610b14565b60ff841115610a9857610a97610c2e565b5b8360020a915084821115610aaf57610aae610c2e565b5b50610b14565b5060208310610133831016604e8410600b8410161715610aea5782820a905083811115610ae557610ae4610c2e565b5b610b14565b610af784848460016109aa565b92509050818404811115610b0e57610b0d610c2e565b5b81810290505b9392505050565b6000610b2682610bdb565b9150610b3183610bdb565b9250817fffffffffffffffffffffffffffffffffffffffffffffffffffffffffffffffff0483118215151615610b6a57610b69610c2e565b5b828202905092915050565b6000610b8082610bdb565b9150610b8b83610bdb565b925082821015610b9e57610b9d610c2e565b5b828203905092915050565b6000610bb482610bbb565b9050919050565b600073ffffffffffffffffffffffffffffffffffffffff82169050919050565b6000819050919050565b6000610bf082610bdb565b91507fffffffffffffffffffffffffffffffffffffffffffffffffffffffffffffffff821415610c2357610c22610c2e565b5b600182019050919050565b7f4e487b7100000000000000000000000000000000000000000000000000000000600052601160045260246000fd5b7f4e487b7100000000000000000000000000000000000000000000000000000000600052601260045260246000fd5b7f4e487b7100000000000000000000000000000000000000000000000000000000600052602160045260246000fd5b7f4e487b7100000000000000000000000000000000000000000000000000000000600052603260045260246000fd5b600080fd5b600080fd5b600080fd5b600080fd5b600080fd5b60008160011c9050919050565b610d1981610ba9565b8114610d2457600080fd5b50565b610d3081610bdb565b8114610d3b57600080fd5b5056fea164736f6c6343000806000a",
  "linkReferences": {},
  "deployedLinkReferences": {}
}