{
  "_format": "hh-sol-artifact-1",
  "contractName": "StringHelpers",
  "sourceName": "contracts/components/StringHelpers.sol",
  "abi": [
    {
      "inputs": [
        {
          "internalType": "string",
          "name": "_str",
          "type": "string"
        },
        {
          "internalType": "string",
          "name": "_from",
          "type": "string"
        },
        {
          "internalType": "string",
          "name": "_to",
          "type": "string"
        }
      ],
      "name": "replace",
      "outputs": [
        {
          "internalType": "string",
          "name": "",
          "type": "string"
        }
      ],
      "stateMutability": "pure",
      "type": "function"
    },
    {
      "inputs": [
        {
          "internalType": "string",
          "name": "_str",
          "type": "string"
        },
        {
          "internalType": "string",
          "name": "_prefix",
          "type": "string"
        }
      ],
      "name": "stringStartsWith",
      "outputs": [
        {
          "internalType": "bool",
          "name": "",
          "type": "bool"
        }
      ],
      "stateMutability": "pure",
      "type": "function"
    }
  ],
  "bytecode": "0x610b17610053600b82828239805160001a607314610046577f4e487b7100000000000000000000000000000000000000000000000000000000600052600060045260246000fd5b30600052607381538281f3fe73000000000000000000000000000000000000000030146080604052600436106100405760003560e01c806338b3155614610045578063e00ad03e14610075575b600080fd5b61005f600480360381019061005a91906105f8565b6100a5565b60405161006c91906107ef565b60405180910390f35b61008f600480360381019061008a9190610670565b6101ee565b60405161009c919061080a565b60405180910390f35b60008083905060008390506000815167ffffffffffffffff8111156100cd576100cc610ab6565b5b6040519080825280601f01601f1916602001820160405280156100ff5781602001600182028036833780820191505090505b50905060005b82518163ffffffff16101561019357838163ffffffff168151811061012d5761012c610a87565b5b602001015160f81c60f81b828263ffffffff168151811061015157610150610a87565b5b60200101907effffffffffffffffffffffffffffffffffffffffffffffffffffffffffffff1916908160001a905350808061018b90610a2b565b915050610105565b50806040516020016101a591906107c1565b60405160208183030381529060405280519060200120826040516020016101cc91906107c1565b6040516020818303038152906040528051906020012014935050505092915050565b606060008460405160200161020391906107d8565b604051602081830303815290604052905060008460405160200161022791906107d8565b604051602081830303815290604052905060008460405160200161024b91906107d8565b604051602081830303815290604052905060005b8251845161026d9190610915565b81116105795760005b83518110156105655783818151811061029257610291610a87565b5b602001015160f81c60f81b7effffffffffffffffffffffffffffffffffffffffffffffffffffffffffffff19168582846102cc91906108bf565b815181106102dd576102dc610a87565b5b602001015160f81c60f81b7effffffffffffffffffffffffffffffffffffffffffffffffffffffffffffff19161461031457610565565b600184516103229190610915565b81141561055257600083518551875161033b9190610915565b61034591906108bf565b67ffffffffffffffff81111561035e5761035d610ab6565b5b6040519080825280601f01601f1916602001820160405280156103905781602001600182028036833780820191505090505b50905060005b83811015610411578681815181106103b1576103b0610a87565b5b602001015160f81c60f81b8282815181106103cf576103ce610a87565b5b60200101907effffffffffffffffffffffffffffffffffffffffffffffffffffffffffffff1916908160001a9053508080610409906109e2565b915050610396565b5060005b845181101561049c5784818151811061043157610430610a87565b5b602001015160f81c60f81b82828661044991906108bf565b8151811061045a57610459610a87565b5b60200101907effffffffffffffffffffffffffffffffffffffffffffffffffffffffffffff1916908160001a9053508080610494906109e2565b915050610415565b5060008551846104ac91906108bf565b90505b8651811015610543578681815181106104cb576104ca610a87565b5b602001015160f81c60f81b8286518851846104e69190610915565b6104f091906108bf565b8151811061050157610500610a87565b5b60200101907effffffffffffffffffffffffffffffffffffffffffffffffffffffffffffff1916908160001a905350808061053b906109e2565b9150506104af565b50809650505050505050610581565b808061055d906109e2565b915050610276565b508080610571906109e2565b91505061025f565b879450505050505b9392505050565b600061059b61059684610851565b61082c565b9050828152602081018484840111156105b7576105b6610aea565b5b6105c284828561096f565b509392505050565b600082601f8301126105df576105de610ae5565b5b81356105ef848260208601610588565b91505092915050565b6000806040838503121561060f5761060e610af4565b5b600083013567ffffffffffffffff81111561062d5761062c610aef565b5b610639858286016105ca565b925050602083013567ffffffffffffffff81111561065a57610659610aef565b5b610666858286016105ca565b9150509250929050565b60008060006060848603121561068957610688610af4565b5b600084013567ffffffffffffffff8111156106a7576106a6610aef565b5b6106b3868287016105ca565b935050602084013567ffffffffffffffff8111156106d4576106d3610aef565b5b6106e0868287016105ca565b925050604084013567ffffffffffffffff81111561070157610700610aef565b5b61070d868287016105ca565b9150509250925092565b61072081610949565b82525050565b600061073182610882565b61073b8185610898565b935061074b81856020860161097e565b80840191505092915050565b60006107628261088d565b61076c81856108a3565b935061077c81856020860161097e565b61078581610af9565b840191505092915050565b600061079b8261088d565b6107a581856108b4565b93506107b581856020860161097e565b80840191505092915050565b60006107cd8284610726565b915081905092915050565b60006107e48284610790565b915081905092915050565b60006020820190506108046000830184610717565b92915050565b600060208201905081810360008301526108248184610757565b905092915050565b6000610836610847565b905061084282826109b1565b919050565b6000604051905090565b600067ffffffffffffffff82111561086c5761086b610ab6565b5b61087582610af9565b9050602081019050919050565b600081519050919050565b600081519050919050565b600081905092915050565b600082825260208201905092915050565b600081905092915050565b60006108ca82610955565b91506108d583610955565b9250827fffffffffffffffffffffffffffffffffffffffffffffffffffffffffffffffff0382111561090a57610909610a58565b5b828201905092915050565b600061092082610955565b915061092b83610955565b92508282101561093e5761093d610a58565b5b828203905092915050565b60008115159050919050565b6000819050919050565b600063ffffffff82169050919050565b82818337600083830152505050565b60005b8381101561099c578082015181840152602081019050610981565b838111156109ab576000848401525b50505050565b6109ba82610af9565b810181811067ffffffffffffffff821117156109d9576109d8610ab6565b5b80604052505050565b60006109ed82610955565b91507fffffffffffffffffffffffffffffffffffffffffffffffffffffffffffffffff821415610a2057610a1f610a58565b5b600182019050919050565b6000610a368261095f565b915063ffffffff821415610a4d57610a4c610a58565b5b600182019050919050565b7f4e487b7100000000000000000000000000000000000000000000000000000000600052601160045260246000fd5b7f4e487b7100000000000000000000000000000000000000000000000000000000600052603260045260246000fd5b7f4e487b7100000000000000000000000000000000000000000000000000000000600052604160045260246000fd5b600080fd5b600080fd5b600080fd5b600080fd5b6000601f19601f830116905091905056fea164736f6c6343000806000a",
  "linkReferences": {},
  "deployedLinkReferences": {}
}