{
  "_format": "hh-sol-artifact-1",
  "contractName": "TileContentProvider",
  "sourceName": "contracts/components/TileContentProvider.sol",
  "abi": [
    {
      "inputs": [],
      "stateMutability": "nonpayable",
      "type": "constructor"
    },
    {
      "inputs": [],
      "name": "PRIVILEGED_OPERATION",
      "type": "error"
    },
    {
      "anonymous": false,
      "inputs": [
        {
          "indexed": true,
          "internalType": "address",
          "name": "previousOwner",
          "type": "address"
        },
        {
          "indexed": true,
          "internalType": "address",
          "name": "newOwner",
          "type": "address"
        }
      ],
      "name": "OwnershipTransferred",
      "type": "event"
    },
    {
      "inputs": [
        {
          "internalType": "address",
          "name": "_tile",
          "type": "address"
        }
      ],
      "name": "externalPreviewUrl",
      "outputs": [
        {
          "internalType": "string",
          "name": "url",
          "type": "string"
        }
      ],
      "stateMutability": "view",
      "type": "function"
    },
    {
      "inputs": [],
      "name": "gatewayAnimationUrl",
      "outputs": [
        {
          "internalType": "string",
          "name": "",
          "type": "string"
        }
      ],
      "stateMutability": "view",
      "type": "function"
    },
    {
      "inputs": [],
      "name": "gatewayPreviewUrl",
      "outputs": [
        {
          "internalType": "string",
          "name": "",
          "type": "string"
        }
      ],
      "stateMutability": "view",
      "type": "function"
    },
    {
      "inputs": [
        {
          "internalType": "address",
          "name": "_tile",
          "type": "address"
        }
      ],
      "name": "getSvgContent",
      "outputs": [
        {
          "internalType": "string",
          "name": "",
          "type": "string"
        }
      ],
      "stateMutability": "view",
      "type": "function"
    },
    {
      "inputs": [
        {
          "internalType": "uint256",
          "name": "",
          "type": "uint256"
        }
      ],
      "name": "layer",
      "outputs": [
        {
          "internalType": "uint8",
          "name": "",
          "type": "uint8"
        }
      ],
      "stateMutability": "view",
      "type": "function"
    },
    {
      "inputs": [],
      "name": "owner",
      "outputs": [
        {
          "internalType": "address",
          "name": "",
          "type": "address"
        }
      ],
      "stateMutability": "view",
      "type": "function"
    },
    {
      "inputs": [
        {
          "internalType": "uint256",
          "name": "",
          "type": "uint256"
        }
      ],
      "name": "positionIndex",
      "outputs": [
        {
          "internalType": "uint8",
          "name": "",
          "type": "uint8"
        }
      ],
      "stateMutability": "view",
      "type": "function"
    },
    {
      "inputs": [
        {
          "internalType": "uint256",
          "name": "",
          "type": "uint256"
        }
      ],
      "name": "positionKind",
      "outputs": [
        {
          "internalType": "bool",
          "name": "",
          "type": "bool"
        }
      ],
      "stateMutability": "view",
      "type": "function"
    },
    {
      "inputs": [],
      "name": "renounceOwnership",
      "outputs": [],
      "stateMutability": "nonpayable",
      "type": "function"
    },
    {
      "inputs": [
        {
          "internalType": "string",
          "name": "_gatewayAnimationUrl",
          "type": "string"
        },
        {
          "internalType": "string",
          "name": "_gatewayPreviewUrl",
          "type": "string"
        }
      ],
      "name": "setHttpGateways",
      "outputs": [],
      "stateMutability": "nonpayable",
      "type": "function"
    },
    {
      "inputs": [
        {
          "internalType": "contract IInfiniteTiles",
          "name": "_parent",
          "type": "address"
        }
      ],
      "name": "setParent",
      "outputs": [],
      "stateMutability": "nonpayable",
      "type": "function"
    },
    {
      "inputs": [
        {
          "internalType": "uint256",
          "name": "",
          "type": "uint256"
        }
      ],
      "name": "size",
      "outputs": [
        {
          "internalType": "uint8",
          "name": "",
          "type": "uint8"
        }
      ],
      "stateMutability": "view",
      "type": "function"
    },
    {
      "inputs": [
        {
          "internalType": "uint256",
          "name": "",
          "type": "uint256"
        }
      ],
      "name": "solid",
      "outputs": [
        {
          "internalType": "bool",
          "name": "",
          "type": "bool"
        }
      ],
      "stateMutability": "view",
      "type": "function"
    },
    {
      "inputs": [
        {
          "internalType": "uint256",
          "name": "_tokenId",
          "type": "uint256"
        }
      ],
      "name": "tokenUri",
      "outputs": [
        {
          "internalType": "string",
          "name": "uri",
          "type": "string"
        }
      ],
      "stateMutability": "view",
      "type": "function"
    },
    {
      "inputs": [
        {
          "internalType": "address",
          "name": "newOwner",
          "type": "address"
        }
      ],
      "name": "transferOwnership",
      "outputs": [],
      "stateMutability": "nonpayable",
      "type": "function"
    }
  ],
  "bytecode": "0x60806040526040518061020001604052806040518060800160405280604781526020016200ad136047913981526020016040518060800160405280604581526020016200ad5a6045913981526020016040518060800160405280604181526020016200aba46041913981526020016040518060800160405280604381526020016200abe56043913981526020016040518060800160405280604d81526020016200ad9f604d913981526020016040518060800160405280604f81526020016200ac28604f913981526020016040518060800160405280605581526020016200ae2c6055913981526020016040518060800160405280605781526020016200aae66057913981526020016040518060600160405280602b81526020016200b153602b913981526020016040518060600160405280602981526020016200ab3d6029913981526020016040518060600160405280602b81526020016200ac77602b913981526020016040518060600160405280602d81526020016200aca2602d913981526020016040518060800160405280604281526020016200b17e6042913981526020016040518060800160405280604481526020016200accf6044913981526020016040518060600160405280604081526020016200adec6040913981526020016040518060600160405280603e81526020016200ab66603e91398152506000906010620002109291906200571b565b506040518060400160405280600781526020017f2366616633653800000000000000000000000000000000000000000000000000815250600190805190602001906200025e92919062005782565b50600160405160200162000273919062005be8565b604051602081830303815290604052600290805190602001906200029992919062005782565b506040518060400160405280600e81526020017f3c2f673e3c2f673e3c2f7376673e00000000000000000000000000000000000081525060039080519060200190620002e792919062005782565b506064600460006101000a81548161ffff021916908361ffff16021790555060405180611fc00160405280600060ff168152602001600060ff168152602001600060ff168152602001600160ff168152602001600160ff168152602001600160ff168152602001600260ff168152602001600260ff168152602001600260ff168152602001600360ff168152602001600360ff168152602001600360ff168152602001600460ff168152602001600460ff168152602001600460ff168152602001600560ff168152602001600560ff168152602001600560ff168152602001600660ff168152602001600660ff168152602001600660ff168152602001600760ff168152602001600760ff168152602001600760ff168152602001600860ff168152602001600860ff168152602001600860ff168152602001600960ff168152602001600960ff168152602001600960ff168152602001600a60ff168152602001600a60ff168152602001600a60ff168152602001600b60ff168152602001600b60ff168152602001600b60ff168152602001600c60ff168152602001600c60ff168152602001600c60ff168152602001600d60ff168152602001600d60ff168152602001600d60ff168152602001600e60ff168152602001600e60ff168152602001600e60ff168152602001600f60ff168152602001600f60ff168152602001600f60ff168152602001600060ff168152602001600060ff168152602001600060ff168152602001600060ff168152602001600160ff168152602001600160ff168152602001600160ff168152602001600160ff168152602001600260ff168152602001600260ff168152602001600260ff168152602001600260ff168152602001600360ff168152602001600360ff168152602001600360ff168152602001600360ff168152602001600460ff168152602001600460ff168152602001600460ff168152602001600460ff168152602001600560ff168152602001600560ff168152602001600560ff168152602001600560ff168152602001600660ff168152602001600660ff168152602001600660ff168152602001600660ff168152602001600760ff168152602001600760ff168152602001600760ff168152602001600760ff168152602001600860ff168152602001600860ff168152602001600860ff168152602001600860ff168152602001600960ff168152602001600960ff168152602001600960ff168152602001600960ff168152602001600a60ff168152602001600a60ff168152602001600a60ff168152602001600a60ff168152602001600b60ff168152602001600b60ff168152602001600b60ff168152602001600b60ff168152602001600c60ff168152602001600c60ff168152602001600c60ff168152602001600c60ff168152602001600d60ff168152602001600d60ff168152602001600d60ff168152602001600d60ff168152602001600e60ff168152602001600e60ff168152602001600e60ff168152602001600e60ff168152602001600f60ff168152602001600f60ff168152602001600f60ff168152602001600f60ff168152602001600060ff168152602001600060ff168152602001600160ff168152602001600160ff168152602001600260ff168152602001600260ff168152602001600360ff168152602001600360ff168152602001600460ff168152602001600460ff168152602001600560ff168152602001600560ff168152602001600660ff168152602001600660ff168152602001600760ff168152602001600760ff168152602001600860ff168152602001600860ff168152602001600960ff168152602001600960ff168152602001600a60ff168152602001600a60ff168152602001600b60ff168152602001600b60ff168152602001600c60ff168152602001600c60ff168152602001600d60ff168152602001600d60ff168152602001600e60ff168152602001600e60ff168152602001600f60ff168152602001600f60ff168152602001600060ff168152602001600060ff168152602001600060ff168152602001600060ff168152602001600160ff168152602001600160ff168152602001600160ff168152602001600160ff168152602001600260ff168152602001600260ff168152602001600260ff168152602001600260ff168152602001600360ff168152602001600360ff168152602001600360ff168152602001600360ff168152602001600460ff168152602001600460ff168152602001600460ff168152602001600460ff168152602001600560ff168152602001600560ff168152602001600560ff168152602001600560ff168152602001600660ff168152602001600660ff168152602001600660ff168152602001600660ff168152602001600760ff168152602001600760ff168152602001600760ff168152602001600760ff168152602001600860ff168152602001600860ff168152602001600860ff168152602001600860ff168152602001600060ff168152602001600060ff168152602001600060ff168152602001600060ff168152602001600060ff168152602001600060ff168152602001600160ff168152602001600160ff168152602001600160ff168152602001600160ff168152602001600160ff168152602001600160ff168152602001600260ff168152602001600260ff168152602001600260ff168152602001600260ff168152602001600260ff168152602001600260ff168152602001600360ff168152602001600360ff168152602001600360ff168152602001600360ff168152602001600360ff168152602001600360ff168152602001600460ff168152602001600460ff168152602001600460ff168152602001600460ff168152602001600460ff168152602001600460ff168152602001600560ff168152602001600560ff168152602001600560ff168152602001600560ff168152602001600560ff168152602001600560ff168152602001600660ff168152602001600660ff168152602001600660ff168152602001600660ff168152602001600660ff168152602001600660ff168152602001600760ff168152602001600760ff168152602001600760ff168152602001600760ff168152602001600760ff168152602001600760ff168152602001600860ff168152602001600860ff168152602001600860ff168152602001600860ff168152602001600860ff168152602001600860ff168152602001600060ff168152602001600060ff168152602001600160ff168152602001600160ff168152602001600260ff168152602001600260ff168152602001600360ff168152602001600360ff168152602001600460ff168152602001600460ff168152602001600560ff168152602001600560ff168152602001600660ff168152602001600660ff168152602001600760ff168152602001600760ff168152602001600860ff168152602001600860ff168152602001600460ff168152602001600460ff1681525060059060fe62000d0e92919062005813565b5060405180611fc00160405280600160ff168152602001600260ff168152602001600360ff168152602001600160ff168152602001600260ff168152602001600360ff168152602001600160ff168152602001600260ff168152602001600360ff168152602001600160ff168152602001600260ff168152602001600360ff168152602001600160ff168152602001600260ff168152602001600360ff168152602001600160ff168152602001600260ff168152602001600360ff168152602001600160ff168152602001600260ff168152602001600360ff168152602001600160ff168152602001600260ff168152602001600360ff168152602001600160ff168152602001600260ff168152602001600360ff168152602001600160ff168152602001600260ff168152602001600360ff168152602001600160ff168152602001600260ff168152602001600360ff168152602001600160ff168152602001600260ff168152602001600360ff168152602001600160ff168152602001600260ff168152602001600360ff168152602001600160ff168152602001600260ff168152602001600360ff168152602001600160ff168152602001600260ff168152602001600360ff168152602001600160ff168152602001600260ff168152602001600360ff168152602001600160ff168152602001600160ff168152602001600260ff168152602001600260ff168152602001600160ff168152602001600160ff168152602001600260ff168152602001600260ff168152602001600160ff168152602001600160ff168152602001600260ff168152602001600260ff168152602001600160ff168152602001600160ff168152602001600260ff168152602001600260ff168152602001600160ff168152602001600160ff168152602001600260ff168152602001600260ff168152602001600160ff168152602001600160ff168152602001600260ff168152602001600260ff168152602001600160ff168152602001600160ff168152602001600260ff168152602001600260ff168152602001600160ff168152602001600160ff168152602001600260ff168152602001600260ff168152602001600160ff168152602001600160ff168152602001600260ff168152602001600260ff168152602001600160ff168152602001600160ff168152602001600260ff168152602001600260ff168152602001600160ff168152602001600160ff168152602001600260ff168152602001600260ff168152602001600160ff168152602001600160ff168152602001600260ff168152602001600260ff168152602001600160ff168152602001600160ff168152602001600260ff168152602001600260ff168152602001600160ff168152602001600160ff168152602001600260ff168152602001600260ff168152602001600160ff168152602001600160ff168152602001600260ff168152602001600260ff168152602001600160ff168152602001600160ff168152602001600260ff168152602001600260ff168152602001600360ff168152602001600360ff168152602001600360ff168152602001600360ff168152602001600360ff168152602001600360ff168152602001600360ff168152602001600360ff168152602001600360ff168152602001600360ff168152602001600360ff168152602001600360ff168152602001600360ff168152602001600360ff168152602001600360ff168152602001600360ff168152602001600360ff168152602001600360ff168152602001600360ff168152602001600360ff168152602001600360ff168152602001600360ff168152602001600360ff168152602001600360ff168152602001600360ff168152602001600360ff168152602001600360ff168152602001600360ff168152602001600360ff168152602001600360ff168152602001600360ff168152602001600360ff168152602001600160ff168152602001600160ff168152602001600260ff168152602001600260ff168152602001600160ff168152602001600160ff168152602001600260ff168152602001600260ff168152602001600160ff168152602001600160ff168152602001600260ff168152602001600260ff168152602001600160ff168152602001600160ff168152602001600260ff168152602001600260ff168152602001600160ff168152602001600160ff168152602001600260ff168152602001600260ff168152602001600160ff168152602001600160ff168152602001600260ff168152602001600260ff168152602001600160ff168152602001600160ff168152602001600260ff168152602001600260ff168152602001600160ff168152602001600160ff168152602001600260ff168152602001600260ff168152602001600160ff168152602001600160ff168152602001600260ff168152602001600260ff168152602001600060ff168152602001600060ff168152602001600060ff168152602001600160ff168152602001600160ff168152602001600160ff168152602001600060ff168152602001600060ff168152602001600060ff168152602001600160ff168152602001600160ff168152602001600160ff168152602001600060ff168152602001600060ff168152602001600060ff168152602001600160ff168152602001600160ff168152602001600160ff168152602001600060ff168152602001600060ff168152602001600060ff168152602001600160ff168152602001600160ff168152602001600160ff168152602001600060ff168152602001600060ff168152602001600060ff168152602001600160ff168152602001600160ff168152602001600160ff168152602001600060ff168152602001600060ff168152602001600060ff168152602001600160ff168152602001600160ff168152602001600160ff168152602001600060ff168152602001600060ff168152602001600060ff168152602001600160ff168152602001600160ff168152602001600160ff168152602001600060ff168152602001600060ff168152602001600060ff168152602001600160ff168152602001600160ff168152602001600160ff168152602001600060ff168152602001600060ff168152602001600060ff168152602001600160ff168152602001600160ff168152602001600160ff168152602001600260ff168152602001600260ff168152602001600260ff168152602001600260ff168152602001600260ff168152602001600260ff168152602001600260ff168152602001600260ff168152602001600260ff168152602001600260ff168152602001600260ff168152602001600260ff168152602001600260ff168152602001600260ff168152602001600260ff168152602001600260ff168152602001600260ff168152602001600260ff168152602001600160ff168152602001600260ff1681525060069060fe6200171792919062005813565b5060405180611fc00160405280600260ff168152602001600260ff168152602001600260ff168152602001600260ff168152602001600260ff168152602001600260ff168152602001600260ff168152602001600260ff168152602001600260ff168152602001600260ff168152602001600260ff168152602001600260ff168152602001600260ff168152602001600260ff168152602001600260ff168152602001600260ff168152602001600260ff168152602001600260ff168152602001600260ff168152602001600260ff168152602001600260ff168152602001600260ff168152602001600260ff168152602001600260ff168152602001600260ff168152602001600260ff168152602001600260ff168152602001600260ff168152602001600260ff168152602001600260ff168152602001600260ff168152602001600260ff168152602001600260ff168152602001600260ff168152602001600260ff168152602001600260ff168152602001600260ff168152602001600260ff168152602001600260ff168152602001600260ff168152602001600260ff168152602001600260ff168152602001600260ff168152602001600260ff168152602001600260ff168152602001600260ff168152602001600260ff168152602001600260ff168152602001600160ff168152602001600260ff168152602001600160ff168152602001600260ff168152602001600160ff168152602001600260ff168152602001600160ff168152602001600260ff168152602001600160ff168152602001600260ff168152602001600160ff168152602001600260ff168152602001600160ff168152602001600260ff168152602001600160ff168152602001600260ff168152602001600160ff168152602001600260ff168152602001600160ff168152602001600260ff168152602001600160ff168152602001600260ff168152602001600160ff168152602001600260ff168152602001600160ff168152602001600260ff168152602001600160ff168152602001600260ff168152602001600160ff168152602001600260ff168152602001600160ff168152602001600260ff168152602001600160ff168152602001600260ff168152602001600160ff168152602001600260ff168152602001600160ff168152602001600260ff168152602001600160ff168152602001600260ff168152602001600160ff168152602001600260ff168152602001600160ff168152602001600260ff168152602001600160ff168152602001600260ff168152602001600160ff168152602001600260ff168152602001600160ff168152602001600260ff168152602001600160ff168152602001600260ff168152602001600160ff168152602001600260ff168152602001600160ff168152602001600260ff168152602001600160ff168152602001600260ff168152602001600160ff168152602001600260ff168152602001600160ff168152602001600260ff168152602001600160ff168152602001600260ff168152602001600060ff168152602001600160ff168152602001600060ff168152602001600160ff168152602001600060ff168152602001600160ff168152602001600060ff168152602001600160ff168152602001600060ff168152602001600160ff168152602001600060ff168152602001600160ff168152602001600060ff168152602001600160ff168152602001600060ff168152602001600160ff168152602001600060ff168152602001600160ff168152602001600060ff168152602001600160ff168152602001600060ff168152602001600160ff168152602001600060ff168152602001600160ff168152602001600060ff168152602001600160ff168152602001600060ff168152602001600160ff168152602001600060ff168152602001600160ff168152602001600060ff168152602001600160ff168152602001600160ff168152602001600260ff168152602001600160ff168152602001600260ff168152602001600160ff168152602001600260ff168152602001600160ff168152602001600260ff168152602001600160ff168152602001600260ff168152602001600160ff168152602001600260ff168152602001600160ff168152602001600260ff168152602001600160ff168152602001600260ff168152602001600160ff168152602001600260ff168152602001600160ff168152602001600260ff168152602001600160ff168152602001600260ff168152602001600160ff168152602001600260ff168152602001600160ff168152602001600260ff168152602001600160ff168152602001600260ff168152602001600160ff168152602001600260ff168152602001600160ff168152602001600260ff168152602001600160ff168152602001600260ff168152602001600160ff168152602001600260ff168152602001600060ff168152602001600160ff168152602001600260ff168152602001600060ff168152602001600160ff168152602001600260ff168152602001600060ff168152602001600160ff168152602001600260ff168152602001600060ff168152602001600160ff168152602001600260ff168152602001600060ff168152602001600160ff168152602001600260ff168152602001600060ff168152602001600160ff168152602001600260ff168152602001600060ff168152602001600160ff168152602001600260ff168152602001600060ff168152602001600160ff168152602001600260ff168152602001600060ff168152602001600160ff168152602001600260ff168152602001600060ff168152602001600160ff168152602001600260ff168152602001600060ff168152602001600160ff168152602001600260ff168152602001600060ff168152602001600160ff168152602001600260ff168152602001600060ff168152602001600160ff168152602001600260ff168152602001600060ff168152602001600160ff168152602001600260ff168152602001600060ff168152602001600160ff168152602001600260ff168152602001600060ff168152602001600160ff168152602001600260ff168152602001600060ff168152602001600160ff168152602001600260ff168152602001600060ff168152602001600160ff168152602001600260ff168152602001600060ff168152602001600160ff168152602001600060ff168152602001600160ff168152602001600060ff168152602001600160ff168152602001600060ff168152602001600160ff168152602001600060ff168152602001600160ff168152602001600060ff168152602001600160ff168152602001600060ff168152602001600160ff168152602001600060ff168152602001600160ff168152602001600060ff168152602001600160ff168152602001600060ff168152602001600060ff1681525060079060fe6200212092919062005813565b5060405180611fc00160405280600015151515815260200160001515151581526020016000151515158152602001600015151515815260200160001515151581526020016000151515158152602001600015151515815260200160001515151581526020016000151515158152602001600015151515815260200160001515151581526020016000151515158152602001600015151515815260200160001515151581526020016000151515158152602001600015151515815260200160001515151581526020016000151515158152602001600015151515815260200160001515151581526020016000151515158152602001600015151515815260200160001515151581526020016000151515158152602001600015151515815260200160001515151581526020016000151515158152602001600015151515815260200160001515151581526020016000151515158152602001600015151515815260200160001515151581526020016000151515158152602001600015151515815260200160001515151581526020016000151515158152602001600015151515815260200160001515151581526020016000151515158152602001600015151515815260200160001515151581526020016000151515158152602001600015151515815260200160001515151581526020016000151515158152602001600015151515815260200160001515151581526020016000151515158152602001600015151515815260200160001515151581526020016000151515158152602001600015151515815260200160001515151581526020016000151515158152602001600015151515815260200160001515151581526020016000151515158152602001600015151515815260200160001515151581526020016000151515158152602001600015151515815260200160001515151581526020016000151515158152602001600015151515815260200160001515151581526020016000151515158152602001600015151515815260200160001515151581526020016000151515158152602001600015151515815260200160001515151581526020016000151515158152602001600015151515815260200160001515151581526020016000151515158152602001600015151515815260200160001515151581526020016000151515158152602001600015151515815260200160001515151581526020016000151515158152602001600015151515815260200160001515151581526020016000151515158152602001600015151515815260200160001515151581526020016000151515158152602001600015151515815260200160001515151581526020016000151515158152602001600015151515815260200160001515151581526020016000151515158152602001600015151515815260200160001515151581526020016000151515158152602001600015151515815260200160001515151581526020016000151515158152602001600015151515815260200160001515151581526020016000151515158152602001600015151515815260200160001515151581526020016000151515158152602001600015151515815260200160001515151581526020016000151515158152602001600015151515815260200160001515151581526020016000151515158152602001600015151515815260200160001515151581526020016000151515158152602001600015151515815260200160001515151581526020016000151515158152602001600015151515815260200160001515151581526020016000151515158152602001600015151515815260200160001515151581526020016000151515158152602001600015151515815260200160001515151581526020016000151515158152602001600015151515815260200160001515151581526020016000151515158152602001600015151515815260200160001515151581526020016000151515158152602001600015151515815260200160001515151581526020016000151515158152602001600015151515815260200160001515151581526020016000151515158152602001600015151515815260200160001515151581526020016000151515158152602001600015151515815260200160001515151581526020016000151515158152602001600115151515815260200160011515151581526020016001151515158152602001600115151515815260200160011515151581526020016001151515158152602001600115151515815260200160011515151581526020016001151515158152602001600115151515815260200160011515151581526020016001151515158152602001600115151515815260200160011515151581526020016001151515158152602001600115151515815260200160011515151581526020016001151515158152602001600115151515815260200160011515151581526020016001151515158152602001600115151515815260200160011515151581526020016001151515158152602001600115151515815260200160011515151581526020016001151515158152602001600115151515815260200160011515151581526020016001151515158152602001600115151515815260200160011515151581526020016001151515158152602001600115151515815260200160011515151581526020016001151515158152602001600115151515815260200160011515151581526020016001151515158152602001600115151515815260200160011515151581526020016001151515158152602001600115151515815260200160011515151581526020016001151515158152602001600115151515815260200160011515151581526020016001151515158152602001600115151515815260200160011515151581526020016001151515158152602001600115151515815260200160011515151581526020016001151515158152602001600115151515815260200160011515151581526020016001151515158152602001600115151515815260200160011515151581526020016001151515158152602001600115151515815260200160011515151581526020016001151515158152602001600115151515815260200160011515151581526020016001151515158152602001600115151515815260200160011515151581526020016001151515158152602001600115151515815260200160011515151581526020016001151515158152602001600115151515815260200160011515151581526020016001151515158152602001600115151515815260200160011515151581526020016001151515158152602001600115151515815260200160011515151581526020016001151515158152602001600115151515815260200160011515151581526020016001151515158152602001600115151515815260200160011515151581526020016001151515158152602001600115151515815260200160011515151581526020016001151515158152602001600115151515815260200160011515151581526020016001151515158152602001600115151515815260200160011515151581526020016001151515158152602001600115151515815260200160011515151581526020016001151515158152602001600115151515815260200160011515151581526020016001151515158152602001600115151515815260200160011515151581526020016001151515158152602001600115151515815260200160011515151581526020016001151515158152602001600115151515815260200160011515151581525060089060fe62002c27929190620058c1565b5060405180611fc00160405280600015151515815260200160001515151581526020016000151515158152602001600015151515815260200160001515151581526020016000151515158152602001600015151515815260200160001515151581526020016000151515158152602001600015151515815260200160001515151581526020016000151515158152602001600015151515815260200160001515151581526020016000151515158152602001600015151515815260200160001515151581526020016000151515158152602001600015151515815260200160001515151581526020016000151515158152602001600015151515815260200160001515151581526020016000151515158152602001600015151515815260200160001515151581526020016000151515158152602001600015151515815260200160001515151581526020016000151515158152602001600015151515815260200160001515151581526020016000151515158152602001600015151515815260200160001515151581526020016000151515158152602001600015151515815260200160001515151581526020016000151515158152602001600015151515815260200160001515151581526020016000151515158152602001600015151515815260200160001515151581526020016000151515158152602001600015151515815260200160001515151581526020016000151515158152602001600115151515815260200160011515151581526020016001151515158152602001600115151515815260200160011515151581526020016001151515158152602001600115151515815260200160011515151581526020016001151515158152602001600115151515815260200160011515151581526020016001151515158152602001600115151515815260200160011515151581526020016001151515158152602001600115151515815260200160011515151581526020016001151515158152602001600115151515815260200160011515151581526020016001151515158152602001600115151515815260200160011515151581526020016001151515158152602001600115151515815260200160011515151581526020016001151515158152602001600115151515815260200160011515151581526020016001151515158152602001600115151515815260200160011515151581526020016001151515158152602001600115151515815260200160011515151581526020016001151515158152602001600115151515815260200160011515151581526020016001151515158152602001600115151515815260200160011515151581526020016001151515158152602001600115151515815260200160011515151581526020016001151515158152602001600115151515815260200160011515151581526020016001151515158152602001600115151515815260200160011515151581526020016001151515158152602001600115151515815260200160011515151581526020016001151515158152602001600115151515815260200160011515151581526020016001151515158152602001600115151515815260200160011515151581526020016001151515158152602001600115151515815260200160011515151581526020016001151515158152602001600115151515815260200160011515151581526020016001151515158152602001600115151515815260200160011515151581526020016001151515158152602001600115151515815260200160011515151581526020016001151515158152602001600115151515815260200160011515151581526020016001151515158152602001600115151515815260200160011515151581526020016001151515158152602001600115151515815260200160011515151581526020016001151515158152602001600115151515815260200160011515151581526020016001151515158152602001600115151515815260200160011515151581526020016001151515158152602001600115151515815260200160011515151581526020016001151515158152602001600115151515815260200160011515151581526020016001151515158152602001600115151515815260200160011515151581526020016001151515158152602001600015151515815260200160001515151581526020016000151515158152602001600015151515815260200160001515151581526020016000151515158152602001600015151515815260200160001515151581526020016000151515158152602001600015151515815260200160001515151581526020016000151515158152602001600015151515815260200160001515151581526020016000151515158152602001600015151515815260200160001515151581526020016000151515158152602001600015151515815260200160001515151581526020016000151515158152602001600015151515815260200160001515151581526020016000151515158152602001600015151515815260200160001515151581526020016000151515158152602001600015151515815260200160001515151581526020016000151515158152602001600015151515815260200160001515151581526020016000151515158152602001600015151515815260200160001515151581526020016000151515158152602001600115151515815260200160011515151581526020016001151515158152602001600115151515815260200160011515151581526020016001151515158152602001600115151515815260200160011515151581526020016001151515158152602001600115151515815260200160011515151581526020016001151515158152602001600115151515815260200160011515151581526020016001151515158152602001600115151515815260200160011515151581526020016001151515158152602001600115151515815260200160011515151581526020016001151515158152602001600115151515815260200160011515151581526020016001151515158152602001600115151515815260200160011515151581526020016001151515158152602001600115151515815260200160011515151581526020016001151515158152602001600115151515815260200160011515151581526020016001151515158152602001600115151515815260200160011515151581526020016001151515158152602001600115151515815260200160011515151581526020016001151515158152602001600115151515815260200160011515151581526020016001151515158152602001600115151515815260200160011515151581526020016001151515158152602001600115151515815260200160011515151581526020016001151515158152602001600115151515815260200160011515151581526020016001151515158152602001600115151515815260200160011515151581526020016001151515158152602001600115151515815260200160011515151581526020016001151515158152602001600115151515815260200160011515151581526020016001151515158152602001600115151515815260200160011515151581526020016001151515158152602001600115151515815260200160011515151581526020016001151515158152602001600115151515815260200160011515151581526020016001151515158152602001600115151515815260200160011515151581526020016001151515158152602001600015151515815260200160001515151581525060099060fe6200372e929190620058c1565b506040518060400160405280600781526020017f2346453434363500000000000000000000000000000000000000000000000000815250600b90805190602001906200377c92919062005782565b506040518060400160405280600481526020017f2332323200000000000000000000000000000000000000000000000000000000815250600c9080519060200190620037ca92919062005782565b506040518060400160405280600781526020017f2331413439454600000000000000000000000000000000000000000000000000815250600d90805190602001906200381892919062005782565b506040518060400160405280600781526020017f2346384439333800000000000000000000000000000000000000000000000000815250600e90805190602001906200386692919062005782565b506040518061030001604052806102d281526020016200ae816102d29139600f90805190602001906200389b92919062005782565b506040518061020001604052806040518060600160405280600b8054620038c29062005c3b565b80601f0160208091040260200160405190810160405280929190818152602001828054620038f09062005c3b565b8015620039415780601f10620039155761010080835404028352916020019162003941565b820191906000526020600020905b8154815290600101906020018083116200392357829003601f168201915b50505050508152602001600e80546200395a9062005c3b565b80601f0160208091040260200160405190810160405280929190818152602001828054620039889062005c3b565b8015620039d95780601f10620039ad57610100808354040283529160200191620039d9565b820191906000526020600020905b815481529060010190602001808311620039bb57829003601f168201915b50505050508152602001600c8054620039f29062005c3b565b80601f016020809104026020016040519081016040528092919081815260200182805462003a209062005c3b565b801562003a715780601f1062003a455761010080835404028352916020019162003a71565b820191906000526020600020905b81548152906001019060200180831162003a5357829003601f168201915b505050505081525081526020016040518060600160405280600b805462003a989062005c3b565b80601f016020809104026020016040519081016040528092919081815260200182805462003ac69062005c3b565b801562003b175780601f1062003aeb5761010080835404028352916020019162003b17565b820191906000526020600020905b81548152906001019060200180831162003af957829003601f168201915b50505050508152602001600c805462003b309062005c3b565b80601f016020809104026020016040519081016040528092919081815260200182805462003b5e9062005c3b565b801562003baf5780601f1062003b835761010080835404028352916020019162003baf565b820191906000526020600020905b81548152906001019060200180831162003b9157829003601f168201915b50505050508152602001600d805462003bc89062005c3b565b80601f016020809104026020016040519081016040528092919081815260200182805462003bf69062005c3b565b801562003c475780601f1062003c1b5761010080835404028352916020019162003c47565b820191906000526020600020905b81548152906001019060200180831162003c2957829003601f168201915b505050505081525081526020016040518060600160405280600b805462003c6e9062005c3b565b80601f016020809104026020016040519081016040528092919081815260200182805462003c9c9062005c3b565b801562003ced5780601f1062003cc15761010080835404028352916020019162003ced565b820191906000526020600020905b81548152906001019060200180831162003ccf57829003601f168201915b50505050508152602001600e805462003d069062005c3b565b80601f016020809104026020016040519081016040528092919081815260200182805462003d349062005c3b565b801562003d855780601f1062003d595761010080835404028352916020019162003d85565b820191906000526020600020905b81548152906001019060200180831162003d6757829003601f168201915b50505050508152602001600d805462003d9e9062005c3b565b80601f016020809104026020016040519081016040528092919081815260200182805462003dcc9062005c3b565b801562003e1d5780601f1062003df15761010080835404028352916020019162003e1d565b820191906000526020600020905b81548152906001019060200180831162003dff57829003601f168201915b505050505081525081526020016040518060600160405280600b805462003e449062005c3b565b80601f016020809104026020016040519081016040528092919081815260200182805462003e729062005c3b565b801562003ec35780601f1062003e975761010080835404028352916020019162003ec3565b820191906000526020600020905b81548152906001019060200180831162003ea557829003601f168201915b50505050508152602001600d805462003edc9062005c3b565b80601f016020809104026020016040519081016040528092919081815260200182805462003f0a9062005c3b565b801562003f5b5780601f1062003f2f5761010080835404028352916020019162003f5b565b820191906000526020600020905b81548152906001019060200180831162003f3d57829003601f168201915b50505050508152602001600e805462003f749062005c3b565b80601f016020809104026020016040519081016040528092919081815260200182805462003fa29062005c3b565b801562003ff35780601f1062003fc75761010080835404028352916020019162003ff3565b820191906000526020600020905b81548152906001019060200180831162003fd557829003601f168201915b505050505081525081526020016040518060600160405280600d80546200401a9062005c3b565b80601f0160208091040260200160405190810160405280929190818152602001828054620040489062005c3b565b8015620040995780601f106200406d5761010080835404028352916020019162004099565b820191906000526020600020905b8154815290600101906020018083116200407b57829003601f168201915b50505050508152602001600e8054620040b29062005c3b565b80601f0160208091040260200160405190810160405280929190818152602001828054620040e09062005c3b565b8015620041315780601f10620041055761010080835404028352916020019162004131565b820191906000526020600020905b8154815290600101906020018083116200411357829003601f168201915b50505050508152602001600b80546200414a9062005c3b565b80601f0160208091040260200160405190810160405280929190818152602001828054620041789062005c3b565b8015620041c95780601f106200419d57610100808354040283529160200191620041c9565b820191906000526020600020905b815481529060010190602001808311620041ab57829003601f168201915b505050505081525081526020016040518060600160405280600d8054620041f09062005c3b565b80601f01602080910402602001604051908101604052809291908181526020018280546200421e9062005c3b565b80156200426f5780601f1062004243576101008083540402835291602001916200426f565b820191906000526020600020905b8154815290600101906020018083116200425157829003601f168201915b50505050508152602001600b8054620042889062005c3b565b80601f0160208091040260200160405190810160405280929190818152602001828054620042b69062005c3b565b8015620043075780601f10620042db5761010080835404028352916020019162004307565b820191906000526020600020905b815481529060010190602001808311620042e957829003601f168201915b50505050508152602001600e8054620043209062005c3b565b80601f01602080910402602001604051908101604052809291908181526020018280546200434e9062005c3b565b80156200439f5780601f1062004373576101008083540402835291602001916200439f565b820191906000526020600020905b8154815290600101906020018083116200438157829003601f168201915b505050505081525081526020016040518060600160405280600d8054620043c69062005c3b565b80601f0160208091040260200160405190810160405280929190818152602001828054620043f49062005c3b565b8015620044455780601f10620044195761010080835404028352916020019162004445565b820191906000526020600020905b8154815290600101906020018083116200442757829003601f168201915b50505050508152602001600e80546200445e9062005c3b565b80601f01602080910402602001604051908101604052809291908181526020018280546200448c9062005c3b565b8015620044dd5780601f10620044b157610100808354040283529160200191620044dd565b820191906000526020600020905b815481529060010190602001808311620044bf57829003601f168201915b50505050508152602001600e8054620044f69062005c3b565b80601f0160208091040260200160405190810160405280929190818152602001828054620045249062005c3b565b8015620045755780601f10620045495761010080835404028352916020019162004575565b820191906000526020600020905b8154815290600101906020018083116200455757829003601f168201915b505050505081525081526020016040518060600160405280600d80546200459c9062005c3b565b80601f0160208091040260200160405190810160405280929190818152602001828054620045ca9062005c3b565b80156200461b5780601f10620045ef576101008083540402835291602001916200461b565b820191906000526020600020905b815481529060010190602001808311620045fd57829003601f168201915b50505050508152602001600c8054620046349062005c3b565b80601f0160208091040260200160405190810160405280929190818152602001828054620046629062005c3b565b8015620046b35780601f106200468757610100808354040283529160200191620046b3565b820191906000526020600020905b8154815290600101906020018083116200469557829003601f168201915b50505050508152602001600b8054620046cc9062005c3b565b80601f0160208091040260200160405190810160405280929190818152602001828054620046fa9062005c3b565b80156200474b5780601f106200471f576101008083540402835291602001916200474b565b820191906000526020600020905b8154815290600101906020018083116200472d57829003601f168201915b505050505081525081526020016040518060600160405280600c8054620047729062005c3b565b80601f0160208091040260200160405190810160405280929190818152602001828054620047a09062005c3b565b8015620047f15780601f10620047c557610100808354040283529160200191620047f1565b820191906000526020600020905b815481529060010190602001808311620047d357829003601f168201915b50505050508152602001600b80546200480a9062005c3b565b80601f0160208091040260200160405190810160405280929190818152602001828054620048389062005c3b565b8015620048895780601f106200485d5761010080835404028352916020019162004889565b820191906000526020600020905b8154815290600101906020018083116200486b57829003601f168201915b50505050508152602001600e8054620048a29062005c3b565b80601f0160208091040260200160405190810160405280929190818152602001828054620048d09062005c3b565b8015620049215780601f10620048f55761010080835404028352916020019162004921565b820191906000526020600020905b8154815290600101906020018083116200490357829003601f168201915b505050505081525081526020016040518060600160405280600c8054620049489062005c3b565b80601f0160208091040260200160405190810160405280929190818152602001828054620049769062005c3b565b8015620049c75780601f106200499b57610100808354040283529160200191620049c7565b820191906000526020600020905b815481529060010190602001808311620049a957829003601f168201915b50505050508152602001600b8054620049e09062005c3b565b80601f016020809104026020016040519081016040528092919081815260200182805462004a0e9062005c3b565b801562004a5f5780601f1062004a335761010080835404028352916020019162004a5f565b820191906000526020600020905b81548152906001019060200180831162004a4157829003601f168201915b50505050508152602001600d805462004a789062005c3b565b80601f016020809104026020016040519081016040528092919081815260200182805462004aa69062005c3b565b801562004af75780601f1062004acb5761010080835404028352916020019162004af7565b820191906000526020600020905b81548152906001019060200180831162004ad957829003601f168201915b505050505081525081526020016040518060600160405280600c805462004b1e9062005c3b565b80601f016020809104026020016040519081016040528092919081815260200182805462004b4c9062005c3b565b801562004b9d5780601f1062004b715761010080835404028352916020019162004b9d565b820191906000526020600020905b81548152906001019060200180831162004b7f57829003601f168201915b50505050508152602001600d805462004bb69062005c3b565b80601f016020809104026020016040519081016040528092919081815260200182805462004be49062005c3b565b801562004c355780601f1062004c095761010080835404028352916020019162004c35565b820191906000526020600020905b81548152906001019060200180831162004c1757829003601f168201915b50505050508152602001600b805462004c4e9062005c3b565b80601f016020809104026020016040519081016040528092919081815260200182805462004c7c9062005c3b565b801562004ccd5780601f1062004ca15761010080835404028352916020019162004ccd565b820191906000526020600020905b81548152906001019060200180831162004caf57829003601f168201915b505050505081525081526020016040518060600160405280600c805462004cf49062005c3b565b80601f016020809104026020016040519081016040528092919081815260200182805462004d229062005c3b565b801562004d735780601f1062004d475761010080835404028352916020019162004d73565b820191906000526020600020905b81548152906001019060200180831162004d5557829003601f168201915b50505050508152602001600e805462004d8c9062005c3b565b80601f016020809104026020016040519081016040528092919081815260200182805462004dba9062005c3b565b801562004e0b5780601f1062004ddf5761010080835404028352916020019162004e0b565b820191906000526020600020905b81548152906001019060200180831162004ded57829003601f168201915b50505050508152602001600d805462004e249062005c3b565b80601f016020809104026020016040519081016040528092919081815260200182805462004e529062005c3b565b801562004ea35780601f1062004e775761010080835404028352916020019162004ea3565b820191906000526020600020905b81548152906001019060200180831162004e8557829003601f168201915b505050505081525081526020016040518060600160405280600e805462004eca9062005c3b565b80601f016020809104026020016040519081016040528092919081815260200182805462004ef89062005c3b565b801562004f495780601f1062004f1d5761010080835404028352916020019162004f49565b820191906000526020600020905b81548152906001019060200180831162004f2b57829003601f168201915b50505050508152602001600b805462004f629062005c3b565b80601f016020809104026020016040519081016040528092919081815260200182805462004f909062005c3b565b801562004fe15780601f1062004fb55761010080835404028352916020019162004fe1565b820191906000526020600020905b81548152906001019060200180831162004fc357829003601f168201915b50505050508152602001600c805462004ffa9062005c3b565b80601f0160208091040260200160405190810160405280929190818152602001828054620050289062005c3b565b8015620050795780601f106200504d5761010080835404028352916020019162005079565b820191906000526020600020905b8154815290600101906020018083116200505b57829003601f168201915b505050505081525081526020016040518060600160405280600e8054620050a09062005c3b565b80601f0160208091040260200160405190810160405280929190818152602001828054620050ce9062005c3b565b80156200511f5780601f10620050f3576101008083540402835291602001916200511f565b820191906000526020600020905b8154815290600101906020018083116200510157829003601f168201915b50505050508152602001600d8054620051389062005c3b565b80601f0160208091040260200160405190810160405280929190818152602001828054620051669062005c3b565b8015620051b75780601f106200518b57610100808354040283529160200191620051b7565b820191906000526020600020905b8154815290600101906020018083116200519957829003601f168201915b50505050508152602001600b8054620051d09062005c3b565b80601f0160208091040260200160405190810160405280929190818152602001828054620051fe9062005c3b565b80156200524f5780601f1062005223576101008083540402835291602001916200524f565b820191906000526020600020905b8154815290600101906020018083116200523157829003601f168201915b505050505081525081526020016040518060600160405280600e8054620052769062005c3b565b80601f0160208091040260200160405190810160405280929190818152602001828054620052a49062005c3b565b8015620052f55780601f10620052c957610100808354040283529160200191620052f5565b820191906000526020600020905b815481529060010190602001808311620052d757829003601f168201915b50505050508152602001600c80546200530e9062005c3b565b80601f01602080910402602001604051908101604052809291908181526020018280546200533c9062005c3b565b80156200538d5780601f1062005361576101008083540402835291602001916200538d565b820191906000526020600020905b8154815290600101906020018083116200536f57829003601f168201915b50505050508152602001600d8054620053a69062005c3b565b80601f0160208091040260200160405190810160405280929190818152602001828054620053d49062005c3b565b8015620054255780601f10620053f95761010080835404028352916020019162005425565b820191906000526020600020905b8154815290600101906020018083116200540757829003601f168201915b505050505081525081526020016040518060600160405280600e80546200544c9062005c3b565b80601f01602080910402602001604051908101604052809291908181526020018280546200547a9062005c3b565b8015620054cb5780601f106200549f57610100808354040283529160200191620054cb565b820191906000526020600020905b815481529060010190602001808311620054ad57829003601f168201915b50505050508152602001600c8054620054e49062005c3b565b80601f0160208091040260200160405190810160405280929190818152602001828054620055129062005c3b565b8015620055635780601f10620055375761010080835404028352916020019162005563565b820191906000526020600020905b8154815290600101906020018083116200554557829003601f168201915b50505050508152602001600b80546200557c9062005c3b565b80601f0160208091040260200160405190810160405280929190818152602001828054620055aa9062005c3b565b8015620055fb5780601f10620055cf57610100808354040283529160200191620055fb565b820191906000526020600020905b815481529060010190602001808311620055dd57829003601f168201915b50505050508152508152506010906010620056189291906200596e565b503480156200562657600080fd5b50620056476200563b6200564d60201b60201c565b6200565560201b60201c565b62005dfc565b600033905090565b6000600a60009054906101000a900473ffffffffffffffffffffffffffffffffffffffff16905081600a60006101000a81548173ffffffffffffffffffffffffffffffffffffffff021916908373ffffffffffffffffffffffffffffffffffffffff1602179055508173ffffffffffffffffffffffffffffffffffffffff168173ffffffffffffffffffffffffffffffffffffffff167f8be0079c531659141344cd1fd0a4f28419497f9722a3daafe3b4186f6b6457e060405160405180910390a35050565b8280548282559060005260206000209081019282156200576f579160200282015b828111156200576e5782518290805190602001906200575d92919062005782565b50916020019190600101906200573c565b5b5090506200577e9190620059d0565b5090565b828054620057909062005c3b565b90600052602060002090601f016020900481019282620057b4576000855562005800565b82601f10620057cf57805160ff191683800117855562005800565b8280016001018555821562005800579182015b82811115620057ff578251825591602001919060010190620057e2565b5b5090506200580f9190620059f8565b5090565b82805482825590600052602060002090601f01602090048101928215620058ae5791602002820160005b838211156200587d57835183826101000a81548160ff021916908360ff16021790555092602001926001016020816000010492830192600103026200583d565b8015620058ac5782816101000a81549060ff02191690556001016020816000010492830192600103026200587d565b505b509050620058bd9190620059f8565b5090565b82805482825590600052602060002090601f016020900481019282156200595b5791602002820160005b838211156200592a57835183826101000a81548160ff0219169083151502179055509260200192600101602081600001049283019260010302620058eb565b8015620059595782816101000a81549060ff02191690556001016020816000010492830192600103026200592a565b505b5090506200596a9190620059f8565b5090565b828054828255906000526020600020908101928215620059bd579160200282015b82811115620059bc57825182906003620059ab92919062005a17565b50916020019190600101906200598f565b5b509050620059cc919062005a7e565b5090565b5b80821115620059f45760008181620059ea919062005aa6565b50600101620059d1565b5090565b5b8082111562005a13576000816000905550600101620059f9565b5090565b82805482825590600052602060002090810192821562005a6b579160200282015b8281111562005a6a57825182908051906020019062005a5992919062005782565b509160200191906001019062005a38565b5b50905062005a7a9190620059d0565b5090565b5b8082111562005aa2576000818162005a98919062005aec565b5060010162005a7f565b5090565b50805462005ab49062005c3b565b6000825580601f1062005ac8575062005ae9565b601f01602090049060005260206000209081019062005ae89190620059f8565b5b50565b508054600082559060005260206000209081019062005b0c9190620059d0565b50565b6000815462005b1e8162005c3b565b62005b2a818662005c30565b9450600182166000811462005b48576001811462005b5a5762005b91565b60ff1983168652818601935062005b91565b62005b658562005c1b565b60005b8381101562005b895781548189015260018201915060208101905062005b68565b838801955050505b50505092915050565b600062005ba9602c8362005c30565b915062005bb68262005ca0565b602c82019050919050565b600062005bd060d68362005c30565b915062005bdd8262005cef565b60d682019050919050565b600062005bf58262005bc1565b915062005c03828462005b0f565b915062005c108262005b9a565b915081905092915050565b60008190508160005260206000209050919050565b600081905092915050565b6000600282049050600182168062005c5457607f821691505b6020821081141562005c6b5762005c6a62005c71565b5b50919050565b7f4e487b7100000000000000000000000000000000000000000000000000000000600052602260045260246000fd5b7f22202f3e3c67207472616e73666f726d3d226d617472697828312c302c302c3160008201527f2c33302c333029223e3c673e0000000000000000000000000000000000000000602082015250565b7f3c73766720786d6c6e733d22687474703a2f2f7777772e77332e6f72672f323060008201527f30302f7376672220786d6c6e733a786c696e6b3d22687474703a2f2f7777772e60208201527f77332e6f72672f313939392f786c696e6b2220786d6c6e733a7376676a733d2260408201527f687474703a2f2f7376676a732e6465762f7376676a73222076657273696f6e3d60608201527f22312e31222077696474683d2233363022206865696768743d2233363022206960808201527f643d225376676a7353766731303030223e3c726563742077696474683d22333660a08201527f3022206865696768743d22333630222066696c6c3d220000000000000000000060c082015250565b614cda8062005e0c6000396000f3fe608060405234801561001057600080fd5b50600436106100f55760003560e01c8063715cd10111610097578063b30af10811610066578063b30af10814610286578063bddbafda146102b6578063dbab0af1146102e6578063f2fde38b14610316576100f5565b8063715cd101146101ea57806385edea131461021a5780638da5cb5b1461024a5780639423a9e814610268576100f5565b80631675f455116100d35780631675f45514610162578063174f44e61461019257806354420e55146101c2578063715018a6146101e0576100f5565b80630f777e80146100fa5780631328c0f6146101165780631499c59214610146575b600080fd5b610114600480360381019061010f9190612f63565b610332565b005b610130600480360381019061012b9190612eaf565b610364565b60405161013d9190613aa4565b60405180910390f35b610160600480360381019061015b9190612f36565b6103b0565b005b61017c6004803603810190610177919061302d565b6104bf565b6040516101899190613aa4565b60405180910390f35b6101ac60048036038101906101a7919061302d565b61057b565b6040516101b99190613a89565b60405180910390f35b6101ca6105af565b6040516101d79190613aa4565b60405180910390f35b6101e861063d565b005b61020460048036038101906101ff919061302d565b610651565b6040516102119190613c3d565b60405180910390f35b610234600480360381019061022f919061302d565b610685565b6040516102419190613c3d565b60405180910390f35b6102526106b9565b60405161025f9190613a6e565b60405180910390f35b6102706106e3565b60405161027d9190613aa4565b60405180910390f35b6102a0600480360381019061029b9190612eaf565b610771565b6040516102ad9190613aa4565b60405180910390f35b6102d060048036038101906102cb919061302d565b610827565b6040516102dd9190613c3d565b60405180910390f35b61030060048036038101906102fb919061302d565b61085b565b60405161030d9190613a89565b60405180910390f35b610330600480360381019061032b9190612eaf565b61088f565b005b61033a610913565b83836012919061034b929190612c51565b5081816013919061035d929190612c51565b5050505050565b606060136103898373ffffffffffffffffffffffffffffffffffffffff166014610991565b60405160200161039a9291906138f4565b6040516020818303038152906040529050919050565b600073ffffffffffffffffffffffffffffffffffffffff16601160009054906101000a900473ffffffffffffffffffffffffffffffffffffffff1673ffffffffffffffffffffffffffffffffffffffff16148061043f57506104106106b9565b73ffffffffffffffffffffffffffffffffffffffff163373ffffffffffffffffffffffffffffffffffffffff16145b1561048a5780601160006101000a81548173ffffffffffffffffffffffffffffffffffffffff021916908373ffffffffffffffffffffffffffffffffffffffff1602179055506104bc565b6040517feb1ffbe300000000000000000000000000000000000000000000000000000000815260040160405180910390fd5b50565b6060610574601160009054906101000a900473ffffffffffffffffffffffffffffffffffffffff1673ffffffffffffffffffffffffffffffffffffffff16631ad8f848846040518263ffffffff1660e01b815260040161051f9190613c22565b60206040518083038186803b15801561053757600080fd5b505afa15801561054b573d6000803e3d6000fd5b505050506040513d601f19601f8201168201806040525081019061056f9190612edc565b610771565b9050919050565b6009818154811061058b57600080fd5b9060005260206000209060209182820401919006915054906101000a900460ff1681565b601280546105bc906142bf565b80601f01602080910402602001604051908101604052809291908181526020018280546105e8906142bf565b80156106355780601f1061060a57610100808354040283529160200191610635565b820191906000526020600020905b81548152906001019060200180831161061857829003601f168201915b505050505081565b610645610913565b61064f6000610bcd565b565b6007818154811061066157600080fd5b9060005260206000209060209182820401919006915054906101000a900460ff1681565b6006818154811061069557600080fd5b9060005260206000209060209182820401919006915054906101000a900460ff1681565b6000600a60009054906101000a900473ffffffffffffffffffffffffffffffffffffffff16905090565b601380546106f0906142bf565b80601f016020809104026020016040519081016040528092919081815260200182805461071c906142bf565b80156107695780601f1061073e57610100808354040283529160200191610769565b820191906000526020600020905b81548152906001019060200180831161074c57829003601f168201915b505050505081565b606061077b612cd7565b6000606061078885610c93565b80935081945082955050505060006107a1848484611310565b905060006107b085858561183f565b905060006107f26107c0896120d2565b600f8585866012886040516020016107de97969594939291906139b1565b604051602081830303815290604052612295565b9050600081604051602001610807919061398f565b604051602081830303815290604052905080975050505050505050919050565b6005818154811061083757600080fd5b9060005260206000209060209182820401919006915054906101000a900460ff1681565b6008818154811061086b57600080fd5b9060005260206000209060209182820401919006915054906101000a900460ff1681565b610897610913565b600073ffffffffffffffffffffffffffffffffffffffff168173ffffffffffffffffffffffffffffffffffffffff161415610907576040517f08c379a00000000000000000000000000000000000000000000000000000000081526004016108fe90613be2565b60405180910390fd5b61091081610bcd565b50565b61091b61242d565b73ffffffffffffffffffffffffffffffffffffffff166109396106b9565b73ffffffffffffffffffffffffffffffffffffffff161461098f576040517f08c379a000000000000000000000000000000000000000000000000000000000815260040161098690613c02565b60405180910390fd5b565b6060600060028360026109a4919061403a565b6109ae9190613d33565b67ffffffffffffffff8111156109c7576109c661456d565b5b6040519080825280601f01601f1916602001820160405280156109f95781602001600182028036833780820191505090505b5090507f300000000000000000000000000000000000000000000000000000000000000081600081518110610a3157610a3061453e565b5b60200101907effffffffffffffffffffffffffffffffffffffffffffffffffffffffffffff1916908160001a9053507f780000000000000000000000000000000000000000000000000000000000000081600181518110610a9557610a9461453e565b5b60200101907effffffffffffffffffffffffffffffffffffffffffffffffffffffffffffff1916908160001a90535060006001846002610ad5919061403a565b610adf9190613d33565b90505b6001811115610b7f577f3031323334353637383961626364656600000000000000000000000000000000600f861660108110610b2157610b2061453e565b5b1a60f81b828281518110610b3857610b3761453e565b5b60200101907effffffffffffffffffffffffffffffffffffffffffffffffffffffffffffff1916908160001a905350600485901c945080610b7890614295565b9050610ae2565b5060008414610bc3576040517f08c379a0000000000000000000000000000000000000000000000000000000008152600401610bba90613bc2565b60405180910390fd5b8091505092915050565b6000600a60009054906101000a900473ffffffffffffffffffffffffffffffffffffffff16905081600a60006101000a81548173ffffffffffffffffffffffffffffffffffffffff021916908373ffffffffffffffffffffffffffffffffffffffff1602179055508173ffffffffffffffffffffffffffffffffffffffff168173ffffffffffffffffffffffffffffffffffffffff167f8be0079c531659141344cd1fd0a4f28419497f9722a3daafe3b4186f6b6457e060405160405180910390a35050565b610c9b612cd7565b600060606000610caa85612435565b905060005b600a8161ffff1614610eb057816000600483610ccb9190613ffe565b610cd59190613cfb565b61ffff1681518110610cea57610ce961453e565b5b6020026020010151858261ffff16600a8110610d0957610d0861453e565b5b6020020151600060048110610d2157610d2061453e565b5b602002019061ffff16908161ffff1681525050816001600483610d449190613ffe565b610d4e9190613cfb565b61ffff1681518110610d6357610d6261453e565b5b6020026020010151858261ffff16600a8110610d8257610d8161453e565b5b6020020151600160048110610d9a57610d9961453e565b5b602002019061ffff16908161ffff1681525050816002600483610dbd9190613ffe565b610dc79190613cfb565b61ffff1681518110610ddc57610ddb61453e565b5b6020026020010151858261ffff16600a8110610dfb57610dfa61453e565b5b6020020151600260048110610e1357610e1261453e565b5b602002019061ffff16908161ffff1681525050816003600483610e369190613ffe565b610e409190613cfb565b61ffff1681518110610e5557610e5461453e565b5b6020026020010151858261ffff16600a8110610e7457610e7361453e565b5b6020020151600360048110610e8c57610e8b61453e565b5b602002019061ffff16908161ffff168152505080610ea990614322565b9050610caf565b506000604051806040016040528061010060988973ffffffffffffffffffffffffffffffffffffffff16901c610ee691906143ed565b73ffffffffffffffffffffffffffffffffffffffff1673ffffffffffffffffffffffffffffffffffffffff16815260200161010060908973ffffffffffffffffffffffffffffffffffffffff16901c610f3f91906143ed565b73ffffffffffffffffffffffffffffffffffffffff1673ffffffffffffffffffffffffffffffffffffffff168152509050600267ffffffffffffffff811115610f8b57610f8a61456d565b5b604051908082528060200260200182016040528015610fc457816020015b610fb1612d05565b815260200190600190039081610fa95790505b50925060005b600281146113065760ff828260028110610fe757610fe661453e565b5b602002015173ffffffffffffffffffffffffffffffffffffffff16141561101957806110129061434d565b9050611301565b60008083836002811061102f5761102e61453e565b5b602002015173ffffffffffffffffffffffffffffffffffffffff161161106c578282600281106110625761106161453e565b5b6020020151611091565b60018383600281106110815761108061453e565b5b6020020151611090919061410d565b5b905060058173ffffffffffffffffffffffffffffffffffffffff16815481106110bd576110bc61453e565b5b90600052602060002090602091828204019190069054906101000a900460ff16858760ff16815181106110f3576110f261453e565b5b60200260200101516000019060ff16908160ff168152505060068173ffffffffffffffffffffffffffffffffffffffff16815481106111355761113461453e565b5b90600052602060002090602091828204019190069054906101000a900460ff16858760ff168151811061116b5761116a61453e565b5b60200260200101516020019060ff16908160ff168152505060078173ffffffffffffffffffffffffffffffffffffffff16815481106111ad576111ac61453e565b5b90600052602060002090602091828204019190069054906101000a900460ff16858760ff16815181106111e3576111e261453e565b5b60200260200101516040019060ff16908160ff168152505060088173ffffffffffffffffffffffffffffffffffffffff16815481106112255761122461453e565b5b90600052602060002090602091828204019190069054906101000a900460ff16858760ff168151811061125b5761125a61453e565b5b6020026020010151606001901515908115158152505060098173ffffffffffffffffffffffffffffffffffffffff168154811061129b5761129a61453e565b5b90600052602060002090602091828204019190069054906101000a900460ff16858760ff16815181106112d1576112d061453e565b5b60200260200101516080019015159081151581525050856112f1906143c3565b9550816112fd9061434d565b9150505b610fca565b5050509193909250565b606080606060008060005b60038160ff16146117565760005b60098160ff161461147a576000806113428c8486612539565b9150915073__$6e2d4cb37a9abc1d4e95d74fe07644e2dd$__6338b31556836040518263ffffffff1660e01b815260040161137d9190613b45565b60206040518083038186803b15801561139557600080fd5b505af41580156113a9573d6000803e3d6000fd5b505050506040513d601f19601f820116820180604052508101906113cd9190612f09565b1561146757856113dc90614322565b9550876000895114611423576040518060400160405280600281526020017f2c20000000000000000000000000000000000000000000000000000000000000815250611434565b604051806020016040528060008152505b6114418861ffff16612690565b83604051602001611455949392919061376d565b60405160208183030381529060405297505b82611471906143c3565b92505050611329565b5060005b8860ff168160ff1614611744576000888260ff16815181106114a3576114a261453e565b5b602002602001015190508260ff16816040015160ff16146114d057816114c8906143c3565b91505061173f565b600080600080846020015160ff1614156114ed576064905061153a565b6001846020015160ff161415611507576101e89050611539565b6002846020015160ff161415611521576103849050611538565b6003846020015160ff1614156115375761076c90505b5b5b5b836040015160ff166002141561155a576005816115579190613d89565b90505b6000846000015160ff16905084606001516115dd57606460048261157e919061444f565b6115889190614094565b9350600b8163ffffffff16116115ce5760078163ffffffff16116115c35760038163ffffffff16116115bb5760006115be565b60645b6115c6565b60c85b60ff166115d2565b61012c5b61ffff16925061164f565b84606001511561164e5760326003826115f6919061444f565b60646116029190614094565b61160c9190613d89565b9350603260058263ffffffff161161163b5760028263ffffffff1611611633576000611636565b60645b61163e565b60c85b6116489190613dc3565b60ff1692505b5b8761165990614322565b97508960008b51146116a0576040518060400160405280600281526020017f2c200000000000000000000000000000000000000000000000000000000000008152506116b1565b604051806020016040528060008152505b6116be8a61ffff16612690565b6116cd8763ffffffff16612690565b6116da8c61ffff16612690565b6116e98863ffffffff16612690565b6116f68e61ffff16612690565b6117058963ffffffff16612690565b60405160200161171c989796959493929190613698565b604051602081830303815290604052995085611737906143c3565b955050505050505b61147e565b508061174f906143c3565b905061131b565b5082600084511461179c576040518060400160405280600281526020017f2c200000000000000000000000000000000000000000000000000000000000008152506117ad565b604051806020016040528060008152505b6117b98960ff16612690565b60008751146117fd576040518060400160405280600281526020017f2c2000000000000000000000000000000000000000000000000000000000000081525061180e565b604051806020016040528060008152505b87604051602001611823959493929190613918565b6040516020818303038152906040529450505050509392505050565b60606002805461184e906142bf565b80601f016020809104026020016040519081016040528092919081815260200182805461187a906142bf565b80156118c75780601f1061189c576101008083540402835291602001916118c7565b820191906000526020600020905b8154815290600101906020018083116118aa57829003601f168201915b5050505050905060005b60038160ff161461207b5760005b60098160ff1614611d52576000806118f8888486612539565b9150915073__$6e2d4cb37a9abc1d4e95d74fe07644e2dd$__6338b31556836040518263ffffffff1660e01b81526004016119339190613ac6565b60206040518083038186803b15801561194b57600080fd5b505af415801561195f573d6000803e3d6000fd5b505050506040513d601f19601f820116820180604052508101906119839190612f09565b15611b1f57846119ad606460038661199b9190614480565b6119a591906140d2565b60ff16612690565b6119dd606460036009886119c19190614480565b6119cb9190613e5c565b6119d591906140d2565b60ff16612690565b73__$6e2d4cb37a9abc1d4e95d74fe07644e2dd$__63e00ad03e73__$6e2d4cb37a9abc1d4e95d74fe07644e2dd$__63e00ad03e88886040518363ffffffff1660e01b8152600401611a30929190613afb565b60006040518083038186803b158015611a4857600080fd5b505af4158015611a5c573d6000803e3d6000fd5b505050506040513d6000823e3d601f19601f82011682018060405250810190611a859190612fe4565b6040518263ffffffff1660e01b8152600401611aa19190613b7a565b60006040518083038186803b158015611ab957600080fd5b505af4158015611acd573d6000803e3d6000fd5b505050506040513d6000823e3d601f19601f82011682018060405250810190611af69190612fe4565b604051602001611b09949392919061388a565b6040516020818303038152906040529450611d3f565b73__$6e2d4cb37a9abc1d4e95d74fe07644e2dd$__6338b31556836040518263ffffffff1660e01b8152600401611b569190613b45565b60206040518083038186803b158015611b6e57600080fd5b505af4158015611b82573d6000803e3d6000fd5b505050506040513d601f19601f82011682018060405250810190611ba69190612f09565b15611d3e5784611bd06064600386611bbe9190614480565b611bc891906140d2565b60ff16612690565b611c0060646003600988611be49190614480565b611bee9190613e5c565b611bf891906140d2565b60ff16612690565b73__$6e2d4cb37a9abc1d4e95d74fe07644e2dd$__63e00ad03e73__$6e2d4cb37a9abc1d4e95d74fe07644e2dd$__63e00ad03e88886040518363ffffffff1660e01b8152600401611c53929190613afb565b60006040518083038186803b158015611c6b57600080fd5b505af4158015611c7f573d6000803e3d6000fd5b505050506040513d6000823e3d601f19601f82011682018060405250810190611ca89190612fe4565b6040518263ffffffff1660e01b8152600401611cc49190613b7a565b60006040518083038186803b158015611cdc57600080fd5b505af4158015611cf0573d6000803e3d6000fd5b505050506040513d6000823e3d601f19601f82011682018060405250810190611d199190612fe4565b604051602001611d2c949392919061388a565b60405160208183030381529060405294505b5b82611d49906143c3565b925050506118df565b5060005b8460ff168160ff161015612069576000848260ff1681518110611d7c57611d7b61453e565b5b602002602001015190508260ff16816040015160ff1614611da95781611da1906143c3565b915050612064565b600080600080846020015160ff161415611dc65760649050611e13565b6001846020015160ff161415611de0576101e89050611e12565b6002846020015160ff161415611dfa576103849050611e11565b6003846020015160ff161415611e105761076c90505b5b5b5b836040015160ff1660021415611e3357600581611e309190613d89565b90505b6000846000015160ff1690508460600151611eb6576064600482611e57919061444f565b611e619190614094565b9350600b8163ffffffff1611611ea75760078163ffffffff1611611e9c5760038163ffffffff1611611e94576000611e97565b60645b611e9f565b60c85b60ff16611eab565b61012c5b61ffff169250611f28565b846060015115611f27576032600382611ecf919061444f565b6064611edb9190614094565b611ee59190613d89565b9350603260058263ffffffff1611611f145760028263ffffffff1611611f0c576000611f0f565b60645b611f17565b60c85b611f219190613dc3565b60ff1692505b5b87611f388563ffffffff16612690565b611f478563ffffffff16612690565b611f5a8563ffffffff16601460056127f1565b8860800151611f9e576040518060400160405280600481526020017f6e6f6e650000000000000000000000000000000000000000000000000000000081525061202a565b60018054611fab906142bf565b80601f0160208091040260200160405190810160405280929190818152602001828054611fd7906142bf565b80156120245780601f10611ff957610100808354040283529160200191612024565b820191906000526020600020905b81548152906001019060200180831161200757829003601f168201915b50505050505b6001604051602001612041969594939291906137f0565b60405160208183030381529060405297508561205c906143c3565b955050505050505b611d56565b5080612074906143c3565b90506118d1565b508060036040516020016120909291906137cc565b60405160208183030381529060405290506120c9816040516020016120b59190613681565b604051602081830303815290604052612295565b90509392505050565b60606000602867ffffffffffffffff8111156120f1576120f061456d565b5b6040519080825280601f01601f1916602001820160405280156121235781602001600182028036833780820191505090505b50905060005b601481101561228b5760008160136121419190614141565b600861214d919061403a565b60026121599190613ee0565b8573ffffffffffffffffffffffffffffffffffffffff1661217a9190613e2b565b60f81b9050600060108260f81c6121919190613e5c565b60f81b905060008160f81c60106121a891906140d2565b8360f81c6121b691906141a9565b60f81b90506121c482612aec565b858560026121d2919061403a565b815181106121e3576121e261453e565b5b60200101907effffffffffffffffffffffffffffffffffffffffffffffffffffffffffffff1916908160001a90535061221b81612aec565b85600186600261222b919061403a565b6122359190613d33565b815181106122465761224561453e565b5b60200101907effffffffffffffffffffffffffffffffffffffffffffffffffffffffffffff1916908160001a90535050505080806122839061434d565b915050612129565b5080915050919050565b606060008251905060008114156122be5760405180602001604052806000815250915050612428565b600060036002836122cf9190613d33565b6122d99190613e2b565b60046122e5919061403a565b905060006020826122f69190613d33565b67ffffffffffffffff81111561230f5761230e61456d565b5b6040519080825280601f01601f1916602001820160405280156123415781602001600182028036833780820191505090505b5090506000604051806060016040528060408152602001614c8e604091399050600181016020830160005b868110156123e55760038101905062ffffff818a015116603f8160121c168401518060081b905060ff603f83600c1c1686015116810190508060081b905060ff603f8360061c1686015116810190508060081b905060ff603f831686015116810190508060e01b9050808452600484019350505061236c565b5060038606600181146123ff576002811461240f5761241a565b613d3d60f01b600283035261241a565b603d60f81b60018303525b508484525050819450505050505b919050565b600033905090565b60606000602867ffffffffffffffff8111156124545761245361456d565b5b6040519080825280602002602001820160405280156124825781602001602082028036833780820191505090505b509050600083905060005b60008273ffffffffffffffffffffffffffffffffffffffff16111561252e5760006010836124bb91906143ed565b90508061ffff16836124cd919061410d565b92506010836124dc9190613dfa565b925080848360276124ed9190614175565b63ffffffff16815181106125045761250361453e565b5b602002602001019061ffff16908161ffff1681525050818061252590614396565b9250505061248d565b829350505050919050565b60608060006125868660018761254f9190613dc3565b60ff16600a81106125635761256261453e565b5b602002015160006004811061257b5761257a61453e565b5b602002015185612b32565b90506000866001876125989190613dc3565b60ff16600a81106125ac576125ab61453e565b5b60200201516001866125be9190613dc3565b60ff16600481106125d2576125d161453e565b5b602002015161ffff16815481106125ec576125eb61453e565b5b9060005260206000200181818054612603906142bf565b80601f016020809104026020016040519081016040528092919081815260200182805461262f906142bf565b801561267c5780601f106126515761010080835404028352916020019161267c565b820191906000526020600020905b81548152906001019060200180831161265f57829003601f168201915b505050505091509250925050935093915050565b606060008214156126d8576040518060400160405280600181526020017f300000000000000000000000000000000000000000000000000000000000000081525090506127ec565b600082905060005b6000821461270a5780806126f39061434d565b915050600a826127039190613e2b565b91506126e0565b60008167ffffffffffffffff8111156127265761272561456d565b5b6040519080825280601f01601f1916602001820160405280156127585781602001600182028036833780820191505090505b5090505b600085146127e5576001826127719190614141565b9150600a85612780919061441e565b603061278c9190613d33565b60f81b8183815181106127a2576127a161453e565b5b60200101907effffffffffffffffffffffffffffffffffffffffffffffffffffffffffffff1916908160001a905350600a856127de9190613e2b565b945061275c565b8093505050505b919050565b6060600083856128019190613e2b565b905060008484600a6128139190613ee0565b8761281e919061403a565b6128289190613e2b565b905060008083116128485760405180602001604052806000815250612852565b61285183612690565b5b6040516020016128629190613681565b604051602081830303815290604052905060008083116128b7576040518060400160405280600181526020017f30000000000000000000000000000000000000000000000000000000000000008152506128c1565b6128c083612690565b5b6040516020016128d19190613681565b6040516020818303038152906040529050600086600184516128f39190613d33565b6128fd9190613d33565b67ffffffffffffffff8111156129165761291561456d565b5b6040519080825280601f01601f1916602001820160405280156129485781602001600182028036833780820191505090505b50905060005b83518111612a295783518110156129c4578381815181106129725761297161453e565b5b602001015160f81c60f81b8282815181106129905761298f61453e565b5b60200101907effffffffffffffffffffffffffffffffffffffffffffffffffffffffffffff1916908160001a905350612a16565b8351811415612a1557602e60f81b8282815181106129e5576129e461453e565b5b60200101907effffffffffffffffffffffffffffffffffffffffffffffffffffffffffffff1916908160001a9053505b5b8080612a219061434d565b91505061294e565b5060005b87835111612a3c578251612a3e565b875b811015612adc5782818551612a539190613d33565b81518110612a6457612a6361453e565b5b602001015160f81c60f81b826001865184612a7f9190613d33565b612a899190613d33565b81518110612a9a57612a9961453e565b5b60200101907effffffffffffffffffffffffffffffffffffffffffffffffffffffffffffff1916908160001a9053508080612ad49061434d565b915050612a2d565b5080955050505050509392505050565b6000600a8260f81c60ff161015612b175760308260f81c612b0d9190613dc3565b60f81b9050612b2d565b60578260f81c612b279190613dc3565b60f81b90505b919050565b6060600060108461ffff1681548110612b4e57612b4d61453e565b5b90600052602060002001805480602002602001604051908101604052809291908181526020016000905b82821015612c24578382906000526020600020018054612b97906142bf565b80601f0160208091040260200160405190810160405280929190818152602001828054612bc3906142bf565b8015612c105780601f10612be557610100808354040283529160200191612c10565b820191906000526020600020905b815481529060010190602001808311612bf357829003601f168201915b505050505081526020019060010190612b78565b505050509050808360ff1681518110612c4057612c3f61453e565b5b602002602001015191505092915050565b828054612c5d906142bf565b90600052602060002090601f016020900481019282612c7f5760008555612cc6565b82601f10612c9857803560ff1916838001178555612cc6565b82800160010185558215612cc6579182015b82811115612cc5578235825591602001919060010190612caa565b5b509050612cd39190612d41565b5090565b604051806101400160405280600a905b612cef612d5e565b815260200190600190039081612ce75790505090565b6040518060a00160405280600060ff168152602001600060ff168152602001600060ff1681526020016000151581526020016000151581525090565b5b80821115612d5a576000816000905550600101612d42565b5090565b6040518060800160405280600490602082028036833780820191505090505090565b6000612d93612d8e84613c7d565b613c58565b905082815260208101848484011115612daf57612dae6145ab565b5b612dba848285614262565b509392505050565b600081359050612dd181614c31565b92915050565b600081519050612de681614c31565b92915050565b600081519050612dfb81614c48565b92915050565b600081359050612e1081614c5f565b92915050565b60008083601f840112612e2c57612e2b6145a1565b5b8235905067ffffffffffffffff811115612e4957612e4861459c565b5b602083019150836001820283011115612e6557612e646145a6565b5b9250929050565b600082601f830112612e8157612e806145a1565b5b8151612e91848260208601612d80565b91505092915050565b600081359050612ea981614c76565b92915050565b600060208284031215612ec557612ec46145b5565b5b6000612ed384828501612dc2565b91505092915050565b600060208284031215612ef257612ef16145b5565b5b6000612f0084828501612dd7565b91505092915050565b600060208284031215612f1f57612f1e6145b5565b5b6000612f2d84828501612dec565b91505092915050565b600060208284031215612f4c57612f4b6145b5565b5b6000612f5a84828501612e01565b91505092915050565b60008060008060408587031215612f7d57612f7c6145b5565b5b600085013567ffffffffffffffff811115612f9b57612f9a6145b0565b5b612fa787828801612e16565b9450945050602085013567ffffffffffffffff811115612fca57612fc96145b0565b5b612fd687828801612e16565b925092505092959194509250565b600060208284031215612ffa57612ff96145b5565b5b600082015167ffffffffffffffff811115613018576130176145b0565b5b61302484828501612e6c565b91505092915050565b600060208284031215613043576130426145b5565b5b600061305184828501612e9a565b91505092915050565b613063816141dd565b82525050565b613072816141ef565b82525050565b600061308382613cc3565b61308d8185613cce565b935061309d818560208601614262565b6130a6816145ba565b840191505092915050565b60006130bc82613cc3565b6130c68185613cdf565b93506130d6818560208601614262565b6130df816145ba565b840191505092915050565b60006130f582613cc3565b6130ff8185613cf0565b935061310f818560208601614262565b80840191505092915050565b60008154613128816142bf565b6131328186613cf0565b9450600182166000811461314d576001811461315e57613191565b60ff19831686528186019350613191565b61316785613cae565b60005b838110156131895781548189015260018201915060208101905061316a565b838801955050505b50505092915050565b60006131a7600283613cf0565b91506131b2826145d8565b600282019050919050565b60006131ca602083613cce565b91506131d582614601565b602082019050919050565b60006131ed601683613cf0565b91506131f88261462a565b601682019050919050565b6000613210601c83613cf0565b915061321b82614653565b601c82019050919050565b6000613233601383613cf0565b915061323e8261467c565b601382019050919050565b6000613256601683613cf0565b9150613261826146a5565b601682019050919050565b6000613279600e83613cf0565b9150613284826146ce565b600e82019050919050565b600061329c602683613cce565b91506132a7826146f7565b604082019050919050565b60006132bf601183613cf0565b91506132ca82614746565b601182019050919050565b60006132e2601d83613cf0565b91506132ed8261476f565b601d82019050919050565b6000613305600183613cf0565b915061331082614798565b600182019050919050565b6000613328602f83613cf0565b9150613333826147c1565b602f82019050919050565b600061334b600583613cf0565b915061335682614810565b600582019050919050565b600061336e600383613cf0565b915061337982614839565b600382019050919050565b6000613391601a83613cdf565b915061339c82614862565b602082019050919050565b60006133b4600883613cf0565b91506133bf8261488b565b600882019050919050565b60006133d7600583613cdf565b91506133e2826148b4565b602082019050919050565b60006133fa600f83613cf0565b9150613405826148dd565b600f82019050919050565b600061341d600283613cf0565b915061342882614906565b600282019050919050565b6000613440600483613cdf565b915061344b8261492f565b602082019050919050565b6000613463602083613cce565b915061346e82614958565b602082019050919050565b6000613486602c83613cf0565b915061349182614981565b602c82019050919050565b60006134a9600483613cf0565b91506134b4826149d0565b600482019050919050565b60006134cc601d83613cf0565b91506134d7826149f9565b601d82019050919050565b60006134ef600883613cf0565b91506134fa82614a22565b600882019050919050565b6000613512600783613cdf565b915061351d82614a4b565b602082019050919050565b6000613535600283613cdf565b915061354082614a74565b602082019050919050565b6000613558601883613cf0565b915061356382614a9d565b601882019050919050565b600061357b601383613cf0565b915061358682614ac6565b601382019050919050565b600061359e602883613cf0565b91506135a982614aef565b602882019050919050565b60006135c1602683613cf0565b91506135cc82614b3e565b602682019050919050565b60006135e4600383613cf0565b91506135ef82614b8d565b600382019050919050565b6000613607601583613cf0565b915061361282614bb6565b601582019050919050565b600061362a600d83613cf0565b915061363582614bdf565b600d82019050919050565b600061364d600f83613cf0565b915061365882614c08565b600f82019050919050565b61366c8161423b565b82525050565b61367b81614255565b82525050565b600061368d82846130ea565b915081905092915050565b60006136a4828b6130ea565b91506136b0828a6130ea565b91506136bb82613249565b91506136c782896130ea565b91506136d282613640565b91506136de82886130ea565b91506136e98261333e565b91506136f482613249565b915061370082876130ea565b915061370b826133ed565b915061371782866130ea565b91506137228261333e565b915061372d82613249565b915061373982856130ea565b9150613744826131e0565b915061375082846130ea565b915061375b82613361565b91508190509998505050505050505050565b600061377982876130ea565b915061378582866130ea565b91506137908261354b565b915061379c82856130ea565b91506137a78261356e565b91506137b382846130ea565b91506137be82613361565b915081905095945050505050565b60006137d882856130ea565b91506137e4828461311b565b91508190509392505050565b60006137fc82896130ea565b9150613807826132d5565b915061381382886130ea565b915061381e826132f8565b915061382a82876130ea565b91506138358261326c565b915061384182866130ea565b915061384c826134e2565b915061385882856130ea565b915061386382613203565b915061386f828461311b565b915061387a826133a7565b9150819050979650505050505050565b600061389682876130ea565b91506138a1826132d5565b91506138ad82866130ea565b91506138b8826132f8565b91506138c482856130ea565b91506138cf826135d7565b91506138db82846130ea565b91506138e68261349c565b915081905095945050505050565b6000613900828561311b565b915061390c82846130ea565b91508190509392505050565b600061392382613410565b915061392f82886130ea565b915061393b82876130ea565b915061394682613591565b915061395282866130ea565b915061395d82613361565b915061396982856130ea565b915061397582846130ea565b91506139808261319a565b91508190509695505050505050565b600061399a826134bf565b91506139a682846130ea565b915081905092915050565b60006139bc8261361d565b91506139c8828a6130ea565b91506139d382613226565b91506139df828961311b565b91506139ea826132b2565b91506139f682886130ea565b9150613a01826135b4565b9150613a0d82876130ea565b9150613a1882613479565b9150613a2482866130ea565b9150613a2f826135fa565b9150613a3b828561311b565b9150613a468261331b565b9150613a5282846130ea565b9150613a5d82613361565b915081905098975050505050505050565b6000602082019050613a83600083018461305a565b92915050565b6000602082019050613a9e6000830184613069565b92915050565b60006020820190508181036000830152613abe8184613078565b905092915050565b60006040820190508181036000830152613ae081846130b1565b90508181036020830152613af3816133ca565b905092915050565b60006060820190508181036000830152613b1581856130b1565b90508181036020830152613b2881613433565b90508181036040830152613b3c81846130b1565b90509392505050565b60006040820190508181036000830152613b5f81846130b1565b90508181036020830152613b7281613505565b905092915050565b60006060820190508181036000830152613b9481846130b1565b90508181036020830152613ba781613528565b90508181036040830152613bba81613384565b905092915050565b60006020820190508181036000830152613bdb816131bd565b9050919050565b60006020820190508181036000830152613bfb8161328f565b9050919050565b60006020820190508181036000830152613c1b81613456565b9050919050565b6000602082019050613c376000830184613663565b92915050565b6000602082019050613c526000830184613672565b92915050565b6000613c62613c73565b9050613c6e82826142f1565b919050565b6000604051905090565b600067ffffffffffffffff821115613c9857613c9761456d565b5b613ca1826145ba565b9050602081019050919050565b60008190508160005260206000209050919050565b600081519050919050565b600082825260208201905092915050565b600082825260208201905092915050565b600081905092915050565b6000613d068261420d565b9150613d118361420d565b92508261ffff03821115613d2857613d276144b1565b5b828201905092915050565b6000613d3e8261423b565b9150613d498361423b565b9250827fffffffffffffffffffffffffffffffffffffffffffffffffffffffffffffffff03821115613d7e57613d7d6144b1565b5b828201905092915050565b6000613d9482614245565b9150613d9f83614245565b92508263ffffffff03821115613db857613db76144b1565b5b828201905092915050565b6000613dce82614255565b9150613dd983614255565b92508260ff03821115613def57613dee6144b1565b5b828201905092915050565b6000613e058261421b565b9150613e108361421b565b925082613e2057613e1f6144e0565b5b828204905092915050565b6000613e368261423b565b9150613e418361423b565b925082613e5157613e506144e0565b5b828204905092915050565b6000613e6782614255565b9150613e7283614255565b925082613e8257613e816144e0565b5b828204905092915050565b6000808291508390505b6001851115613ed757808604811115613eb357613eb26144b1565b5b6001851615613ec25780820291505b8081029050613ed0856145cb565b9450613e97565b94509492505050565b6000613eeb8261423b565b9150613ef68361423b565b9250613f237fffffffffffffffffffffffffffffffffffffffffffffffffffffffffffffffff8484613f2b565b905092915050565b600082613f3b5760019050613ff7565b81613f495760009050613ff7565b8160018114613f5f5760028114613f6957613f98565b6001915050613ff7565b60ff841115613f7b57613f7a6144b1565b5b8360020a915084821115613f9257613f916144b1565b5b50613ff7565b5060208310610133831016604e8410600b8410161715613fcd5782820a905083811115613fc857613fc76144b1565b5b613ff7565b613fda8484846001613e8d565b92509050818404811115613ff157613ff06144b1565b5b81810290505b9392505050565b60006140098261420d565b91506140148361420d565b92508161ffff048311821515161561402f5761402e6144b1565b5b828202905092915050565b60006140458261423b565b91506140508361423b565b9250817fffffffffffffffffffffffffffffffffffffffffffffffffffffffffffffffff0483118215151615614089576140886144b1565b5b828202905092915050565b600061409f82614245565b91506140aa83614245565b92508163ffffffff04831182151516156140c7576140c66144b1565b5b828202905092915050565b60006140dd82614255565b91506140e883614255565b92508160ff0483118215151615614102576141016144b1565b5b828202905092915050565b60006141188261421b565b91506141238361421b565b925082821015614136576141356144b1565b5b828203905092915050565b600061414c8261423b565b91506141578361423b565b92508282101561416a576141696144b1565b5b828203905092915050565b600061418082614245565b915061418b83614245565b92508282101561419e5761419d6144b1565b5b828203905092915050565b60006141b482614255565b91506141bf83614255565b9250828210156141d2576141d16144b1565b5b828203905092915050565b60006141e88261421b565b9050919050565b60008115159050919050565b6000614206826141dd565b9050919050565b600061ffff82169050919050565b600073ffffffffffffffffffffffffffffffffffffffff82169050919050565b6000819050919050565b600063ffffffff82169050919050565b600060ff82169050919050565b60005b83811015614280578082015181840152602081019050614265565b8381111561428f576000848401525b50505050565b60006142a08261423b565b915060008214156142b4576142b36144b1565b5b600182039050919050565b600060028204905060018216806142d757607f821691505b602082108114156142eb576142ea61450f565b5b50919050565b6142fa826145ba565b810181811067ffffffffffffffff821117156143195761431861456d565b5b80604052505050565b600061432d8261420d565b915061ffff821415614342576143416144b1565b5b600182019050919050565b60006143588261423b565b91507fffffffffffffffffffffffffffffffffffffffffffffffffffffffffffffffff82141561438b5761438a6144b1565b5b600182019050919050565b60006143a182614245565b915063ffffffff8214156143b8576143b76144b1565b5b600182019050919050565b60006143ce82614255565b915060ff8214156143e2576143e16144b1565b5b600182019050919050565b60006143f88261421b565b91506144038361421b565b925082614413576144126144e0565b5b828206905092915050565b60006144298261423b565b91506144348361423b565b925082614444576144436144e0565b5b828206905092915050565b600061445a82614245565b915061446583614245565b925082614475576144746144e0565b5b828206905092915050565b600061448b82614255565b915061449683614255565b9250826144a6576144a56144e0565b5b828206905092915050565b7f4e487b7100000000000000000000000000000000000000000000000000000000600052601160045260246000fd5b7f4e487b7100000000000000000000000000000000000000000000000000000000600052601260045260246000fd5b7f4e487b7100000000000000000000000000000000000000000000000000000000600052602260045260246000fd5b7f4e487b7100000000000000000000000000000000000000000000000000000000600052603260045260246000fd5b7f4e487b7100000000000000000000000000000000000000000000000000000000600052604160045260246000fd5b600080fd5b600080fd5b600080fd5b600080fd5b600080fd5b600080fd5b6000601f19601f8301169050919050565b60008160011c9050919050565b7f205d000000000000000000000000000000000000000000000000000000000000600082015250565b7f537472696e67733a20686578206c656e67746820696e73756666696369656e74600082015250565b7f206469616d65746572222c202276616c7565223a202200000000000000000000600082015250565b7f22207374726f6b652d77696474683d22313022207374726f6b653d2200000000600082015250565b7f222c20226465736372697074696f6e223a202200000000000000000000000000600082015250565b7f7b202274726169745f74797065223a202252696e672000000000000000000000600082015250565b7f29223e3c636972636c6520723d22000000000000000000000000000000000000600082015250565b7f4f776e61626c653a206e6577206f776e657220697320746865207a65726f206160008201527f6464726573730000000000000000000000000000000000000000000000000000602082015250565b7f222c202261747472696275746573223a20000000000000000000000000000000600082015250565b7f3c67207472616e73666f726d3d226d617472697828312c302c302c312c000000600082015250565b7f2c00000000000000000000000000000000000000000000000000000000000000600082015250565b7f3f7265736f6c7574696f6e3d6c6f772674696c653d646174613a696d6167652f60008201527f7376672b786d6c3b6261736536342c0000000000000000000000000000000000602082015250565b7f22207d2c20000000000000000000000000000000000000000000000000000000600082015250565b7f22207d0000000000000000000000000000000000000000000000000000000000600082015250565b7f207374796c653d226f7061636974793a20302e38383b22202f3e000000000000600082015250565b7f22202f3e3c2f673e000000000000000000000000000000000000000000000000600082015250565b7f3c70617468000000000000000000000000000000000000000000000000000000600082015250565b7f2079222c202276616c7565223a20220000000000000000000000000000000000600082015250565b7f5b20000000000000000000000000000000000000000000000000000000000000600082015250565b7f2330303000000000000000000000000000000000000000000000000000000000600082015250565b7f4f776e61626c653a2063616c6c6572206973206e6f7420746865206f776e6572600082015250565b7f222c2022696d6167655f64617461223a2022646174613a696d6167652f73766760008201527f2b786d6c3b6261736536342c0000000000000000000000000000000000000000602082015250565b7f3c2f673e00000000000000000000000000000000000000000000000000000000600082015250565b7f646174613a6170706c69636174696f6e2f6a736f6e3b6261736536342c000000600082015250565b7f222066696c6c3d22000000000000000000000000000000000000000000000000600082015250565b7f3c636972636c6500000000000000000000000000000000000000000000000000600082015250565b7f2f3e000000000000000000000000000000000000000000000000000000000000600082015250565b7f7b202274726169745f74797065223a2022436972636c65200000000000000000600082015250565b7f20436f6c6f72222c202276616c7565223a202200000000000000000000000000600082015250565b7f7b202274726169745f74797065223a202252696e6720436f756e74222c20227660008201527f616c7565223a2022000000000000000000000000000000000000000000000000602082015250565b7f2c2022696d616765223a2022646174613a696d6167652f7376672b786d6c3b6260008201527f61736536342c0000000000000000000000000000000000000000000000000000602082015250565b7f29223e0000000000000000000000000000000000000000000000000000000000600082015250565b7f222c2022616e696d6174696f6e5f75726c223a20220000000000000000000000600082015250565b7f7b20226e616d65223a2022307800000000000000000000000000000000000000600082015250565b7f2078222c202276616c7565223a20220000000000000000000000000000000000600082015250565b614c3a816141dd565b8114614c4557600080fd5b50565b614c51816141ef565b8114614c5c57600080fd5b50565b614c68816141fb565b8114614c7357600080fd5b50565b614c7f8161423b565b8114614c8a57600080fd5b5056fe4142434445464748494a4b4c4d4e4f505152535455565758595a6162636465666768696a6b6c6d6e6f707172737475767778797a303132333435363738392b2fa164736f6c6343000806000a3c7061746820643d224d302031303043302034342e373731352034342e373731352030203130302030433130302035352e323238352035352e32323835203130302030203130305a222066696c6c3d2223303030222f3e3c7061746820643d224d302030483130304c302031303056305a222066696c6c3d2223303030222f3e3c7061746820643d224d353020304335302032372e363134322032372e36313432203530203020353056304835305a222066696c6c3d2223303030222f3e3c7061746820643d224d3020304c302031303048313030433130302034342e373731352035352e323238352030203020305a222066696c6c3d2223303030222f3e3c7061746820643d224d31303020304c31303020313030483043302034342e373731352034342e3737313520302031303020305a222066696c6c3d2223303030222f3e3c636972636c652063783d223230222063793d2232302220723d223230222066696c6c3d222330303022207472616e73666f726d3d226d617472697828312c302c302c312c33302c33302922202f3e3c7061746820643d224d3020313030483130304c302030563130305a222066696c6c3d2223303030222f3e3c7061746820643d224d3130302031303048304c3130302030563130305a222066696c6c3d2223303030222f3e3c7061746820643d224d3530203130304335302037322e333835382037322e3338353820353020313030203530563130304835305a222066696c6c3d2223303030222f3e3c7061746820643d224d313030203130304c3130302030483043302035352e323238352034342e373731352031303020313030203130305a222066696c6c3d2223303030222f3e3c7061746820643d224d30203130304c30203048313030433130302035352e323238352035352e32323835203130302030203130305a222066696c6c3d2223303030222f3e3c636972636c652063783d223530222063793d2235302220723d223530222066696c6c3d222330303022207472616e73666f726d3d226d617472697828312c302c302c312c302c302922202f3e3c7061746820643d224d353020304335302032372e363134322037322e333835382035302031303020353056304835305a222066696c6c3d2223303030222f3e3c7061746820643d224d30203043302035352e323238352034342e37373135203130302031303020313030433130302034342e373731352035352e323238352030203020305a222066696c6c3d2223303030222f3e48756d616e732061726520636861726163746572697a656420627920612064657369726520746f20666f726d20636f6d6d756e69746965732061726f756e642069646561732c2073796d626f6c732c20616e642061727469666163747320746861742073617469736679206f7572206f7665726c617070696e6720696e746572707265746174696f6e73206f66206265617574792e2054696c65732061726520612063656c6562726174696f6e206f662077686174206769766573206d65616e696e6720746f2074686f736520636f6d6d756e69746965733a2074686520696e646976696475616c2e5468657265206973206f6e652054696c652067656e65726174656420666f7220657665727920706f737369626c65204554482077616c6c65742061646472657373206561636820726570726573656e74696e67206120756e69717565206964656e7469747920696e2074686520646563656e7472616c697a65642065636f73797374656d2074686174206d616b65732070726f6a65637473206c696b65207468697320706f737369626c652e20204d617468656d61746963616c6c792c20616c6c2054696c65732061726520657175616c6c7920726172652e2020546865792061726520616c6c2066617368696f6e65642066726f6d207468652073616d65206173736f72746d656e74206f662073696d706c652073686170657320616e6420636f6c6f72732c20627574206561636820696e206120756e69717565207761792e20496e20746861742073656e73652c2054696c657320617265206120626974206c696b652075732e2020426563617573652074686520737570706c79206973207669727475616c6c7920696e66696e6974652c2066756e64696e6720666f72207468652044414f206d617920636f6e74696e756520696e646566696e6974656c792c206173206c6f6e672061732054696c65732061726520736f6c642e202d20706572692e6574683c7061746820643d224d313030203048304c3130302031303056305a222066696c6c3d2223303030222f3e3c7061746820643d224d3530203130304335302037322e333835382032372e363134322035302030203530563130304835305a222066696c6c3d2223303030222f3e",
  "linkReferences": {
    "contracts/components/StringHelpers.sol": {
      "StringHelpers": [
        {
          "length": 20,
          "start": 29012
        },
        {
          "length": 20,
          "start": 30474
        },
        {
          "length": 20,
          "start": 30699
        },
        {
          "length": 20,
          "start": 30725
        },
        {
          "length": 20,
          "start": 31021
        },
        {
          "length": 20,
          "start": 31246
        },
        {
          "length": 20,
          "start": 31272
        }
      ]
    }
  },
  "deployedLinkReferences": {
    "contracts/components/StringHelpers.sol": {
      "StringHelpers": [
        {
          "length": 20,
          "start": 4936
        },
        {
          "length": 20,
          "start": 6398
        },
        {
          "length": 20,
          "start": 6623
        },
        {
          "length": 20,
          "start": 6649
        },
        {
          "length": 20,
          "start": 6945
        },
        {
          "length": 20,
          "start": 7170
        },
        {
          "length": 20,
          "start": 7196
        }
      ]
    }
  }
}